{
	"azero-swap-contracts/contracts/szERC1155.sol": {
		"szERC1155": {
			"abi": [
				{
					"inputs": [],
					"stateMutability": "nonpayable",
					"type": "constructor"
				},
				{
					"anonymous": false,
					"inputs": [
						{
							"indexed": true,
							"internalType": "address",
							"name": "account",
							"type": "address"
						},
						{
							"indexed": true,
							"internalType": "address",
							"name": "operator",
							"type": "address"
						},
						{
							"indexed": false,
							"internalType": "bool",
							"name": "approved",
							"type": "bool"
						}
					],
					"name": "ApprovalForAll",
					"type": "event"
				},
				{
					"anonymous": false,
					"inputs": [
						{
							"indexed": true,
							"internalType": "address",
							"name": "operator",
							"type": "address"
						},
						{
							"indexed": true,
							"internalType": "address",
							"name": "from",
							"type": "address"
						},
						{
							"indexed": true,
							"internalType": "address",
							"name": "to",
							"type": "address"
						},
						{
							"indexed": false,
							"internalType": "uint256[]",
							"name": "ids",
							"type": "uint256[]"
						},
						{
							"indexed": false,
							"internalType": "uint256[]",
							"name": "values",
							"type": "uint256[]"
						}
					],
					"name": "TransferBatch",
					"type": "event"
				},
				{
					"anonymous": false,
					"inputs": [
						{
							"indexed": true,
							"internalType": "address",
							"name": "operator",
							"type": "address"
						},
						{
							"indexed": true,
							"internalType": "address",
							"name": "from",
							"type": "address"
						},
						{
							"indexed": true,
							"internalType": "address",
							"name": "to",
							"type": "address"
						},
						{
							"indexed": false,
							"internalType": "uint256",
							"name": "id",
							"type": "uint256"
						},
						{
							"indexed": false,
							"internalType": "uint256",
							"name": "value",
							"type": "uint256"
						}
					],
					"name": "TransferSingle",
					"type": "event"
				},
				{
					"anonymous": false,
					"inputs": [
						{
							"indexed": false,
							"internalType": "string",
							"name": "value",
							"type": "string"
						},
						{
							"indexed": true,
							"internalType": "uint256",
							"name": "id",
							"type": "uint256"
						}
					],
					"name": "URI",
					"type": "event"
				},
				{
					"inputs": [
						{
							"internalType": "address",
							"name": "account",
							"type": "address"
						},
						{
							"internalType": "uint256",
							"name": "id",
							"type": "uint256"
						}
					],
					"name": "balanceOf",
					"outputs": [
						{
							"internalType": "uint256",
							"name": "",
							"type": "uint256"
						}
					],
					"stateMutability": "view",
					"type": "function"
				},
				{
					"inputs": [
						{
							"internalType": "address[]",
							"name": "accounts",
							"type": "address[]"
						},
						{
							"internalType": "uint256[]",
							"name": "ids",
							"type": "uint256[]"
						}
					],
					"name": "balanceOfBatch",
					"outputs": [
						{
							"internalType": "uint256[]",
							"name": "",
							"type": "uint256[]"
						}
					],
					"stateMutability": "view",
					"type": "function"
				},
				{
					"inputs": [],
					"name": "decimals",
					"outputs": [
						{
							"internalType": "uint256",
							"name": "",
							"type": "uint256"
						}
					],
					"stateMutability": "pure",
					"type": "function"
				},
				{
					"inputs": [
						{
							"internalType": "uint256",
							"name": "id",
							"type": "uint256"
						}
					],
					"name": "exists",
					"outputs": [
						{
							"internalType": "bool",
							"name": "",
							"type": "bool"
						}
					],
					"stateMutability": "view",
					"type": "function"
				},
				{
					"inputs": [
						{
							"internalType": "address",
							"name": "account",
							"type": "address"
						},
						{
							"internalType": "address",
							"name": "operator",
							"type": "address"
						}
					],
					"name": "isApprovedForAll",
					"outputs": [
						{
							"internalType": "bool",
							"name": "",
							"type": "bool"
						}
					],
					"stateMutability": "view",
					"type": "function"
				},
				{
					"inputs": [],
					"name": "name",
					"outputs": [
						{
							"internalType": "string",
							"name": "",
							"type": "string"
						}
					],
					"stateMutability": "view",
					"type": "function"
				},
				{
					"inputs": [
						{
							"internalType": "address",
							"name": "from",
							"type": "address"
						},
						{
							"internalType": "address",
							"name": "to",
							"type": "address"
						},
						{
							"internalType": "uint256[]",
							"name": "ids",
							"type": "uint256[]"
						},
						{
							"internalType": "uint256[]",
							"name": "amounts",
							"type": "uint256[]"
						},
						{
							"internalType": "bytes",
							"name": "data",
							"type": "bytes"
						}
					],
					"name": "safeBatchTransferFrom",
					"outputs": [],
					"stateMutability": "nonpayable",
					"type": "function"
				},
				{
					"inputs": [
						{
							"internalType": "address",
							"name": "from",
							"type": "address"
						},
						{
							"internalType": "address",
							"name": "to",
							"type": "address"
						},
						{
							"internalType": "uint256",
							"name": "id",
							"type": "uint256"
						},
						{
							"internalType": "uint256",
							"name": "amount",
							"type": "uint256"
						},
						{
							"internalType": "bytes",
							"name": "data",
							"type": "bytes"
						}
					],
					"name": "safeTransferFrom",
					"outputs": [],
					"stateMutability": "nonpayable",
					"type": "function"
				},
				{
					"inputs": [
						{
							"internalType": "address",
							"name": "operator",
							"type": "address"
						},
						{
							"internalType": "bool",
							"name": "approved",
							"type": "bool"
						}
					],
					"name": "setApprovalForAll",
					"outputs": [],
					"stateMutability": "nonpayable",
					"type": "function"
				},
				{
					"inputs": [
						{
							"internalType": "bytes4",
							"name": "interfaceId",
							"type": "bytes4"
						}
					],
					"name": "supportsInterface",
					"outputs": [
						{
							"internalType": "bool",
							"name": "",
							"type": "bool"
						}
					],
					"stateMutability": "view",
					"type": "function"
				},
				{
					"inputs": [],
					"name": "symbol",
					"outputs": [
						{
							"internalType": "string",
							"name": "",
							"type": "string"
						}
					],
					"stateMutability": "view",
					"type": "function"
				},
				{
					"inputs": [
						{
							"internalType": "uint256",
							"name": "id",
							"type": "uint256"
						}
					],
					"name": "totalSupply",
					"outputs": [
						{
							"internalType": "uint256",
							"name": "",
							"type": "uint256"
						}
					],
					"stateMutability": "view",
					"type": "function"
				},
				{
					"inputs": [
						{
							"internalType": "uint256",
							"name": "",
							"type": "uint256"
						}
					],
					"name": "uri",
					"outputs": [
						{
							"internalType": "string",
							"name": "",
							"type": "string"
						}
					],
					"stateMutability": "view",
					"type": "function"
				}
			],
			"devdoc": {
				"kind": "dev",
				"methods": {
					"balanceOf(address,uint256)": {
						"details": "See {IERC1155-balanceOf}. Requirements: - `account` cannot be the zero address."
					},
					"balanceOfBatch(address[],uint256[])": {
						"details": "See {IERC1155-balanceOfBatch}. Requirements: - `accounts` and `ids` must have the same length."
					},
					"exists(uint256)": {
						"details": "Indicates whether any token exist with a given id, or not."
					},
					"isApprovedForAll(address,address)": {
						"details": "See {IERC1155-isApprovedForAll}."
					},
					"safeBatchTransferFrom(address,address,uint256[],uint256[],bytes)": {
						"details": "See {IERC1155-safeBatchTransferFrom}."
					},
					"safeTransferFrom(address,address,uint256,uint256,bytes)": {
						"details": "See {IERC1155-safeTransferFrom}."
					},
					"setApprovalForAll(address,bool)": {
						"details": "See {IERC1155-setApprovalForAll}."
					},
					"supportsInterface(bytes4)": {
						"details": "See {IERC165-supportsInterface}."
					},
					"totalSupply(uint256)": {
						"details": "Total amount of tokens in with a given id."
					},
					"uri(uint256)": {
						"details": "See {IERC1155MetadataURI-uri}. This implementation returns the same URI for *all* token types. It relies on the token type ID substitution mechanism https://eips.ethereum.org/EIPS/eip-1155#metadata[defined in the EIP]. Clients calling this function must replace the `\\{id\\}` substring with the actual token type ID."
					}
				},
				"version": 1
			},
			"evm": {
				"assembly": "    /* \"azero-swap-contracts/contracts/szERC1155.sol\":201:233  string contractName = \"SwapZero\" */\n  0xc0\n    /* \"azero-swap-contracts/contracts/szERC1155.sol\":158:709  contract szERC1155 is ERC1155Supply {... */\n  0x40\n    /* \"azero-swap-contracts/contracts/szERC1155.sol\":201:233  string contractName = \"SwapZero\" */\n  mstore\n  0x08\n    /* \"azero-swap-contracts/contracts/szERC1155.sol\":158:709  contract szERC1155 is ERC1155Supply {... */\n  0x80\n    /* \"azero-swap-contracts/contracts/szERC1155.sol\":201:233  string contractName = \"SwapZero\" */\n  dup2\n  swap1\n  mstore\n  shl(0xc0, 0x537761705a65726f)\n  0xa0\n  swap1\n  dup2\n  mstore\n  tag_1\n  swap2\n  0x04\n  swap2\n  swap1\n  tag_2\n  jump\t// in\ntag_1:\n  pop\n    /* \"azero-swap-contracts/contracts/szERC1155.sol\":239:268  string contractSymbol = \"SWZ\" */\n  0x40\n  dup1\n  mload\n  dup1\n  dup3\n  add\n  swap1\n  swap2\n  mstore\n  0x03\n  dup1\n  dup3\n  mstore\n  shl(0xe9, 0x29abad)\n  0x20\n  swap1\n  swap3\n  add\n  swap2\n  dup3\n  mstore\n  tag_3\n  swap2\n  0x05\n  swap2\n  tag_2\n  jump\t// in\ntag_3:\n  pop\n    /* \"azero-swap-contracts/contracts/szERC1155.sol\":297:343  constructor()... */\n  callvalue\n  dup1\n  iszero\n  tag_4\n  jumpi\n  0x00\n  dup1\n  revert\ntag_4:\n  pop\n    /* \"azero-swap-contracts/contracts/openzeppelin-contracts-4.6.0/contracts/token/ERC1155/ERC1155.sol\":1107:1169  constructor(string memory uri_) {... */\n  0x40\n  dup1\n  mload\n  0x20\n  dup2\n  add\n  swap1\n  swap2\n  mstore\n  0x00\n  dup2\n  mstore\n    /* \"azero-swap-contracts/contracts/openzeppelin-contracts-4.6.0/contracts/token/ERC1155/ERC1155.sol\":1149:1162  _setURI(uri_) */\n  tag_8\n    /* \"azero-swap-contracts/contracts/openzeppelin-contracts-4.6.0/contracts/token/ERC1155/ERC1155.sol\":1107:1169  constructor(string memory uri_) {... */\n  dup2\n    /* \"azero-swap-contracts/contracts/openzeppelin-contracts-4.6.0/contracts/token/ERC1155/ERC1155.sol\":1149:1156  _setURI */\n  tag_9\n    /* \"azero-swap-contracts/contracts/openzeppelin-contracts-4.6.0/contracts/token/ERC1155/ERC1155.sol\":1149:1162  _setURI(uri_) */\n  jump\t// in\ntag_8:\n    /* \"azero-swap-contracts/contracts/openzeppelin-contracts-4.6.0/contracts/token/ERC1155/ERC1155.sol\":1107:1169  constructor(string memory uri_) {... */\n  pop\n    /* \"azero-swap-contracts/contracts/szERC1155.sol\":158:709  contract szERC1155 is ERC1155Supply {... */\n  jump(tag_25)\n    /* \"azero-swap-contracts/contracts/openzeppelin-contracts-4.6.0/contracts/token/ERC1155/ERC1155.sol\":8171:8257  function _setURI(string memory newuri) internal virtual {... */\ntag_9:\n    /* \"azero-swap-contracts/contracts/openzeppelin-contracts-4.6.0/contracts/token/ERC1155/ERC1155.sol\":8237:8250  _uri = newuri */\n  dup1\n  mload\n  tag_13\n  swap1\n    /* \"azero-swap-contracts/contracts/openzeppelin-contracts-4.6.0/contracts/token/ERC1155/ERC1155.sol\":8237:8241  _uri */\n  0x02\n  swap1\n    /* \"azero-swap-contracts/contracts/openzeppelin-contracts-4.6.0/contracts/token/ERC1155/ERC1155.sol\":8237:8250  _uri = newuri */\n  0x20\n  dup5\n  add\n  swap1\n  tag_2\n  jump\t// in\ntag_13:\n  pop\n    /* \"azero-swap-contracts/contracts/openzeppelin-contracts-4.6.0/contracts/token/ERC1155/ERC1155.sol\":8171:8257  function _setURI(string memory newuri) internal virtual {... */\n  pop\n  jump\t// out\n    /* \"azero-swap-contracts/contracts/szERC1155.sol\":158:709  contract szERC1155 is ERC1155Supply {... */\ntag_2:\n  dup3\n  dup1\n  sload\n  tag_14\n  swap1\n  tag_15\n  jump\t// in\ntag_14:\n  swap1\n  0x00\n  mstore\n  keccak256(0x00, 0x20)\n  swap1\n  0x1f\n  add\n  0x20\n  swap1\n  div\n  dup2\n  add\n  swap3\n  dup3\n  tag_17\n  jumpi\n  0x00\n  dup6\n  sstore\n  jump(tag_20)\ntag_17:\n  dup3\n  0x1f\n  lt\n  tag_18\n  jumpi\n  dup1\n  mload\n  not(0xff)\n  and\n  dup4\n  dup1\n  add\n  or\n  dup6\n  sstore\n  jump(tag_20)\ntag_18:\n  dup3\n  dup1\n  add\n  0x01\n  add\n  dup6\n  sstore\n  dup3\n  iszero\n  tag_20\n  jumpi\n  swap2\n  dup3\n  add\ntag_19:\n  dup3\n  dup2\n  gt\n  iszero\n  tag_20\n  jumpi\n  dup3\n  mload\n  dup3\n  sstore\n  swap2\n  0x20\n  add\n  swap2\n  swap1\n  0x01\n  add\n  swap1\n  jump(tag_19)\ntag_20:\n  pop\n  tag_21\n  swap3\n  swap2\n  pop\n  tag_22\n  jump\t// in\ntag_21:\n  pop\n  swap1\n  jump\t// out\ntag_22:\ntag_23:\n  dup1\n  dup3\n  gt\n  iszero\n  tag_21\n  jumpi\n  0x00\n  dup2\n  sstore\n  0x01\n  add\n  jump(tag_23)\n    /* \"#utility.yul\":14:394   */\ntag_15:\n    /* \"#utility.yul\":93:94   */\n  0x01\n    /* \"#utility.yul\":89:101   */\n  dup2\n  dup2\n  shr\n  swap1\n    /* \"#utility.yul\":136:148   */\n  dup3\n  and\n  dup1\n    /* \"#utility.yul\":157:218   */\n  tag_27\n  jumpi\n    /* \"#utility.yul\":211:215   */\n  0x7f\n    /* \"#utility.yul\":203:209   */\n  dup3\n    /* \"#utility.yul\":199:216   */\n  and\n    /* \"#utility.yul\":189:216   */\n  swap2\n  pop\n    /* \"#utility.yul\":157:218   */\ntag_27:\n    /* \"#utility.yul\":264:266   */\n  0x20\n    /* \"#utility.yul\":256:262   */\n  dup3\n    /* \"#utility.yul\":253:267   */\n  lt\n    /* \"#utility.yul\":233:251   */\n  dup2\n    /* \"#utility.yul\":230:268   */\n  sub\n    /* \"#utility.yul\":227:388   */\n  tag_28\n  jumpi\n    /* \"#utility.yul\":310:320   */\n  0x4e487b71\n    /* \"#utility.yul\":305:308   */\n  0xe0\n    /* \"#utility.yul\":301:321   */\n  shl\n    /* \"#utility.yul\":298:299   */\n  0x00\n    /* \"#utility.yul\":291:322   */\n  mstore\n    /* \"#utility.yul\":345:349   */\n  0x22\n    /* \"#utility.yul\":342:343   */\n  0x04\n    /* \"#utility.yul\":335:350   */\n  mstore\n    /* \"#utility.yul\":373:377   */\n  0x24\n    /* \"#utility.yul\":370:371   */\n  0x00\n    /* \"#utility.yul\":363:378   */\n  revert\n    /* \"#utility.yul\":227:388   */\ntag_28:\n  pop\n    /* \"#utility.yul\":14:394   */\n  swap2\n  swap1\n  pop\n  jump\t// out\ntag_25:\n    /* \"azero-swap-contracts/contracts/szERC1155.sol\":158:709  contract szERC1155 is ERC1155Supply {... */\n  dataSize(sub_0)\n  dup1\n  dataOffset(sub_0)\n  0x00\n  codecopy\n  0x00\n  return\nstop\n\nsub_0: assembly {\n        /* \"azero-swap-contracts/contracts/szERC1155.sol\":158:709  contract szERC1155 is ERC1155Supply {... */\n      mstore(0x40, 0x80)\n      callvalue\n      dup1\n      iszero\n      tag_1\n      jumpi\n      0x00\n      dup1\n      revert\n    tag_1:\n      pop\n      jumpi(tag_2, lt(calldatasize, 0x04))\n      shr(0xe0, calldataload(0x00))\n      dup1\n      0x4e1273f4\n      gt\n      tag_16\n      jumpi\n      dup1\n      0xa22cb465\n      gt\n      tag_17\n      jumpi\n      dup1\n      0xa22cb465\n      eq\n      tag_12\n      jumpi\n      dup1\n      0xbd85b039\n      eq\n      tag_13\n      jumpi\n      dup1\n      0xe985e9c5\n      eq\n      tag_14\n      jumpi\n      dup1\n      0xf242432a\n      eq\n      tag_15\n      jumpi\n      0x00\n      dup1\n      revert\n    tag_17:\n      dup1\n      0x4e1273f4\n      eq\n      tag_9\n      jumpi\n      dup1\n      0x4f558e79\n      eq\n      tag_10\n      jumpi\n      dup1\n      0x95d89b41\n      eq\n      tag_11\n      jumpi\n      0x00\n      dup1\n      revert\n    tag_16:\n      dup1\n      0xfdd58e\n      eq\n      tag_3\n      jumpi\n      dup1\n      0x01ffc9a7\n      eq\n      tag_4\n      jumpi\n      dup1\n      0x06fdde03\n      eq\n      tag_5\n      jumpi\n      dup1\n      0x0e89341c\n      eq\n      tag_6\n      jumpi\n      dup1\n      0x2eb2c2d6\n      eq\n      tag_7\n      jumpi\n      dup1\n      0x313ce567\n      eq\n      tag_8\n      jumpi\n    tag_2:\n      0x00\n      dup1\n      revert\n        /* \"azero-swap-contracts/contracts/openzeppelin-contracts-4.6.0/contracts/token/ERC1155/ERC1155.sol\":2185:2413  function balanceOf(address account, uint256 id) public view virtual override returns (uint256) {... */\n    tag_3:\n      tag_18\n      tag_19\n      calldatasize\n      0x04\n      tag_20\n      jump\t// in\n    tag_19:\n      tag_21\n      jump\t// in\n    tag_18:\n      mload(0x40)\n        /* \"#utility.yul\":597:622   */\n      swap1\n      dup2\n      mstore\n        /* \"#utility.yul\":585:587   */\n      0x20\n        /* \"#utility.yul\":570:588   */\n      add\n        /* \"azero-swap-contracts/contracts/openzeppelin-contracts-4.6.0/contracts/token/ERC1155/ERC1155.sol\":2185:2413  function balanceOf(address account, uint256 id) public view virtual override returns (uint256) {... */\n    tag_22:\n      mload(0x40)\n      dup1\n      swap2\n      sub\n      swap1\n      return\n        /* \"azero-swap-contracts/contracts/openzeppelin-contracts-4.6.0/contracts/token/ERC1155/ERC1155.sol\":1236:1541  function supportsInterface(bytes4 interfaceId) public view virtual override(ERC165, IERC165) returns (bool) {... */\n    tag_4:\n      tag_24\n      tag_25\n      calldatasize\n      0x04\n      tag_26\n      jump\t// in\n    tag_25:\n      tag_27\n      jump\t// in\n    tag_24:\n      mload(0x40)\n        /* \"#utility.yul\":1184:1198   */\n      swap1\n      iszero\n        /* \"#utility.yul\":1177:1199   */\n      iszero\n        /* \"#utility.yul\":1159:1200   */\n      dup2\n      mstore\n        /* \"#utility.yul\":1147:1149   */\n      0x20\n        /* \"#utility.yul\":1132:1150   */\n      add\n        /* \"azero-swap-contracts/contracts/openzeppelin-contracts-4.6.0/contracts/token/ERC1155/ERC1155.sol\":1236:1541  function supportsInterface(bytes4 interfaceId) public view virtual override(ERC165, IERC165) returns (bool) {... */\n      tag_22\n        /* \"#utility.yul\":1019:1206   */\n      jump\n        /* \"azero-swap-contracts/contracts/szERC1155.sol\":349:467  function name()... */\n    tag_5:\n      tag_30\n      tag_31\n      jump\t// in\n    tag_30:\n      mload(0x40)\n      tag_22\n      swap2\n      swap1\n      tag_33\n      jump\t// in\n        /* \"azero-swap-contracts/contracts/openzeppelin-contracts-4.6.0/contracts/token/ERC1155/ERC1155.sol\":1940:2043  function uri(uint256) public view virtual override returns (string memory) {... */\n    tag_6:\n      tag_30\n      tag_35\n      calldatasize\n      0x04\n      tag_36\n      jump\t// in\n    tag_35:\n      tag_37\n      jump\t// in\n        /* \"azero-swap-contracts/contracts/openzeppelin-contracts-4.6.0/contracts/token/ERC1155/ERC1155.sol\":4060:4490  function safeBatchTransferFrom(... */\n    tag_7:\n      tag_39\n      tag_40\n      calldatasize\n      0x04\n      tag_41\n      jump\t// in\n    tag_40:\n      tag_42\n      jump\t// in\n    tag_39:\n      stop\n        /* \"azero-swap-contracts/contracts/szERC1155.sol\":601:707  function decimals()... */\n    tag_8:\n        /* \"azero-swap-contracts/contracts/szERC1155.sol\":698:700  18 */\n      0x12\n        /* \"azero-swap-contracts/contracts/szERC1155.sol\":601:707  function decimals()... */\n      jump(tag_18)\n        /* \"azero-swap-contracts/contracts/openzeppelin-contracts-4.6.0/contracts/token/ERC1155/ERC1155.sol\":2570:3078  function balanceOfBatch(address[] memory accounts, uint256[] memory ids)... */\n    tag_9:\n      tag_46\n      tag_47\n      calldatasize\n      0x04\n      tag_48\n      jump\t// in\n    tag_47:\n      tag_49\n      jump\t// in\n    tag_46:\n      mload(0x40)\n      tag_22\n      swap2\n      swap1\n      tag_51\n      jump\t// in\n        /* \"azero-swap-contracts/contracts/openzeppelin-contracts-4.6.0/contracts/token/ERC1155/extensions/ERC1155Supply.sol\":901:1021  function exists(uint256 id) public view virtual returns (bool) {... */\n    tag_10:\n      tag_24\n      tag_53\n      calldatasize\n      0x04\n      tag_36\n      jump\t// in\n    tag_53:\n        /* \"azero-swap-contracts/contracts/openzeppelin-contracts-4.6.0/contracts/token/ERC1155/extensions/ERC1155Supply.sol\":958:962  bool */\n      0x00\n        /* \"azero-swap-contracts/contracts/openzeppelin-contracts-4.6.0/contracts/token/ERC1155/extensions/ERC1155Supply.sol\":785:801  _totalSupply[id] */\n      swap1\n      dup2\n      mstore\n        /* \"azero-swap-contracts/contracts/openzeppelin-contracts-4.6.0/contracts/token/ERC1155/extensions/ERC1155Supply.sol\":785:797  _totalSupply */\n      0x03\n        /* \"azero-swap-contracts/contracts/openzeppelin-contracts-4.6.0/contracts/token/ERC1155/extensions/ERC1155Supply.sol\":785:801  _totalSupply[id] */\n      0x20\n      mstore\n      0x40\n      swap1\n      keccak256\n      sload\n      iszero\n      iszero\n      swap1\n        /* \"azero-swap-contracts/contracts/openzeppelin-contracts-4.6.0/contracts/token/ERC1155/extensions/ERC1155Supply.sol\":901:1021  function exists(uint256 id) public view virtual returns (bool) {... */\n      jump\n        /* \"azero-swap-contracts/contracts/szERC1155.sol\":473:595  function symbol()... */\n    tag_11:\n      tag_30\n      tag_57\n      jump\t// in\n        /* \"azero-swap-contracts/contracts/openzeppelin-contracts-4.6.0/contracts/token/ERC1155/ERC1155.sol\":3146:3299  function setApprovalForAll(address operator, bool approved) public virtual override {... */\n    tag_12:\n      tag_39\n      tag_60\n      calldatasize\n      0x04\n      tag_61\n      jump\t// in\n    tag_60:\n      tag_62\n      jump\t// in\n        /* \"azero-swap-contracts/contracts/openzeppelin-contracts-4.6.0/contracts/token/ERC1155/extensions/ERC1155Supply.sol\":697:808  function totalSupply(uint256 id) public view virtual returns (uint256) {... */\n    tag_13:\n      tag_18\n      tag_64\n      calldatasize\n      0x04\n      tag_36\n      jump\t// in\n    tag_64:\n        /* \"azero-swap-contracts/contracts/openzeppelin-contracts-4.6.0/contracts/token/ERC1155/extensions/ERC1155Supply.sol\":759:766  uint256 */\n      0x00\n        /* \"azero-swap-contracts/contracts/openzeppelin-contracts-4.6.0/contracts/token/ERC1155/extensions/ERC1155Supply.sol\":785:801  _totalSupply[id] */\n      swap1\n      dup2\n      mstore\n        /* \"azero-swap-contracts/contracts/openzeppelin-contracts-4.6.0/contracts/token/ERC1155/extensions/ERC1155Supply.sol\":785:797  _totalSupply */\n      0x03\n        /* \"azero-swap-contracts/contracts/openzeppelin-contracts-4.6.0/contracts/token/ERC1155/extensions/ERC1155Supply.sol\":785:801  _totalSupply[id] */\n      0x20\n      mstore\n      0x40\n      swap1\n      keccak256\n      sload\n      swap1\n        /* \"azero-swap-contracts/contracts/openzeppelin-contracts-4.6.0/contracts/token/ERC1155/extensions/ERC1155Supply.sol\":697:808  function totalSupply(uint256 id) public view virtual returns (uint256) {... */\n      jump\n        /* \"azero-swap-contracts/contracts/openzeppelin-contracts-4.6.0/contracts/token/ERC1155/ERC1155.sol\":3366:3532  function isApprovedForAll(address account, address operator) public view virtual override returns (bool) {... */\n    tag_14:\n      tag_24\n      tag_68\n      calldatasize\n      0x04\n      tag_69\n      jump\t// in\n    tag_68:\n      sub(shl(0xa0, 0x01), 0x01)\n        /* \"azero-swap-contracts/contracts/openzeppelin-contracts-4.6.0/contracts/token/ERC1155/ERC1155.sol\":3488:3515  _operatorApprovals[account] */\n      swap2\n      dup3\n      and\n        /* \"azero-swap-contracts/contracts/openzeppelin-contracts-4.6.0/contracts/token/ERC1155/ERC1155.sol\":3465:3469  bool */\n      0x00\n        /* \"azero-swap-contracts/contracts/openzeppelin-contracts-4.6.0/contracts/token/ERC1155/ERC1155.sol\":3488:3515  _operatorApprovals[account] */\n      swap1\n      dup2\n      mstore\n        /* \"azero-swap-contracts/contracts/openzeppelin-contracts-4.6.0/contracts/token/ERC1155/ERC1155.sol\":3488:3506  _operatorApprovals */\n      0x01\n        /* \"azero-swap-contracts/contracts/openzeppelin-contracts-4.6.0/contracts/token/ERC1155/ERC1155.sol\":3488:3515  _operatorApprovals[account] */\n      0x20\n      swap1\n      dup2\n      mstore\n      0x40\n      dup1\n      dup4\n      keccak256\n        /* \"azero-swap-contracts/contracts/openzeppelin-contracts-4.6.0/contracts/token/ERC1155/ERC1155.sol\":3488:3525  _operatorApprovals[account][operator] */\n      swap4\n      swap1\n      swap5\n      and\n      dup3\n      mstore\n      swap2\n      swap1\n      swap2\n      mstore\n      keccak256\n      sload\n      0xff\n      and\n      swap1\n        /* \"azero-swap-contracts/contracts/openzeppelin-contracts-4.6.0/contracts/token/ERC1155/ERC1155.sol\":3366:3532  function isApprovedForAll(address account, address operator) public view virtual override returns (bool) {... */\n      jump\n        /* \"azero-swap-contracts/contracts/openzeppelin-contracts-4.6.0/contracts/token/ERC1155/ERC1155.sol\":3599:3988  function safeTransferFrom(... */\n    tag_15:\n      tag_39\n      tag_73\n      calldatasize\n      0x04\n      tag_74\n      jump\t// in\n    tag_73:\n      tag_75\n      jump\t// in\n        /* \"azero-swap-contracts/contracts/openzeppelin-contracts-4.6.0/contracts/token/ERC1155/ERC1155.sol\":2185:2413  function balanceOf(address account, uint256 id) public view virtual override returns (uint256) {... */\n    tag_21:\n        /* \"azero-swap-contracts/contracts/openzeppelin-contracts-4.6.0/contracts/token/ERC1155/ERC1155.sol\":2271:2278  uint256 */\n      0x00\n      sub(shl(0xa0, 0x01), 0x01)\n        /* \"azero-swap-contracts/contracts/openzeppelin-contracts-4.6.0/contracts/token/ERC1155/ERC1155.sol\":2298:2319  account != address(0) */\n      dup4\n      and\n        /* \"azero-swap-contracts/contracts/openzeppelin-contracts-4.6.0/contracts/token/ERC1155/ERC1155.sol\":2290:2367  require(account != address(0), \"ERC1155: balance query for the zero address\") */\n      tag_77\n      jumpi\n      mload(0x40)\n      shl(0xe5, 0x461bcd)\n      dup2\n      mstore\n        /* \"#utility.yul\":8258:8260   */\n      0x20\n        /* \"azero-swap-contracts/contracts/openzeppelin-contracts-4.6.0/contracts/token/ERC1155/ERC1155.sol\":2290:2367  require(account != address(0), \"ERC1155: balance query for the zero address\") */\n      0x04\n      dup3\n      add\n        /* \"#utility.yul\":8240:8261   */\n      mstore\n        /* \"#utility.yul\":8297:8299   */\n      0x2b\n        /* \"#utility.yul\":8277:8295   */\n      0x24\n      dup3\n      add\n        /* \"#utility.yul\":8270:8300   */\n      mstore\n        /* \"#utility.yul\":8336:8370   */\n      0x455243313135353a2062616c616e636520717565727920666f7220746865207a\n        /* \"#utility.yul\":8316:8334   */\n      0x44\n      dup3\n      add\n        /* \"#utility.yul\":8309:8371   */\n      mstore\n      shl(0xa8, 0x65726f2061646472657373)\n        /* \"#utility.yul\":8387:8405   */\n      0x64\n      dup3\n      add\n        /* \"#utility.yul\":8380:8421   */\n      mstore\n        /* \"#utility.yul\":8438:8457   */\n      0x84\n      add\n        /* \"azero-swap-contracts/contracts/openzeppelin-contracts-4.6.0/contracts/token/ERC1155/ERC1155.sol\":2290:2367  require(account != address(0), \"ERC1155: balance query for the zero address\") */\n    tag_78:\n      mload(0x40)\n      dup1\n      swap2\n      sub\n      swap1\n      revert\n    tag_77:\n      pop\n        /* \"azero-swap-contracts/contracts/openzeppelin-contracts-4.6.0/contracts/token/ERC1155/ERC1155.sol\":2384:2393  _balances */\n      0x00\n        /* \"azero-swap-contracts/contracts/openzeppelin-contracts-4.6.0/contracts/token/ERC1155/ERC1155.sol\":2384:2397  _balances[id] */\n      swap1\n      dup2\n      mstore\n      0x20\n      dup2\n      dup2\n      mstore\n      0x40\n      dup1\n      dup4\n      keccak256\n      sub(shl(0xa0, 0x01), 0x01)\n        /* \"azero-swap-contracts/contracts/openzeppelin-contracts-4.6.0/contracts/token/ERC1155/ERC1155.sol\":2384:2406  _balances[id][account] */\n      swap5\n      swap1\n      swap5\n      and\n      dup4\n      mstore\n      swap3\n      swap1\n      mstore\n      keccak256\n      sload\n      swap1\n        /* \"azero-swap-contracts/contracts/openzeppelin-contracts-4.6.0/contracts/token/ERC1155/ERC1155.sol\":2185:2413  function balanceOf(address account, uint256 id) public view virtual override returns (uint256) {... */\n      jump\t// out\n        /* \"azero-swap-contracts/contracts/openzeppelin-contracts-4.6.0/contracts/token/ERC1155/ERC1155.sol\":1236:1541  function supportsInterface(bytes4 interfaceId) public view virtual override(ERC165, IERC165) returns (bool) {... */\n    tag_27:\n        /* \"azero-swap-contracts/contracts/openzeppelin-contracts-4.6.0/contracts/token/ERC1155/ERC1155.sol\":1338:1342  bool */\n      0x00\n      not(sub(shl(0xe0, 0x01), 0x01))\n        /* \"azero-swap-contracts/contracts/openzeppelin-contracts-4.6.0/contracts/token/ERC1155/ERC1155.sol\":1373:1414  interfaceId == type(IERC1155).interfaceId */\n      dup3\n      and\n      shl(0xe1, 0x6cdb3d13)\n      eq\n      dup1\n        /* \"azero-swap-contracts/contracts/openzeppelin-contracts-4.6.0/contracts/token/ERC1155/ERC1155.sol\":1373:1482  interfaceId == type(IERC1155).interfaceId ||... */\n      tag_81\n      jumpi\n      pop\n      not(sub(shl(0xe0, 0x01), 0x01))\n        /* \"azero-swap-contracts/contracts/openzeppelin-contracts-4.6.0/contracts/token/ERC1155/ERC1155.sol\":1430:1482  interfaceId == type(IERC1155MetadataURI).interfaceId */\n      dup3\n      and\n      shl(0xe2, 0x03a24d07)\n      eq\n        /* \"azero-swap-contracts/contracts/openzeppelin-contracts-4.6.0/contracts/token/ERC1155/ERC1155.sol\":1373:1482  interfaceId == type(IERC1155).interfaceId ||... */\n    tag_81:\n        /* \"azero-swap-contracts/contracts/openzeppelin-contracts-4.6.0/contracts/token/ERC1155/ERC1155.sol\":1373:1534  interfaceId == type(IERC1155).interfaceId ||... */\n      dup1\n      tag_83\n      jumpi\n      pop\n      shl(0xe0, 0x01ffc9a7)\n      not(sub(shl(0xe0, 0x01), 0x01))\n        /* \"azero-swap-contracts/contracts/openzeppelin-contracts-4.6.0/contracts/utils/introspection/ERC165.sol\":937:977  interfaceId == type(IERC165).interfaceId */\n      dup4\n      and\n      eq\n        /* \"azero-swap-contracts/contracts/openzeppelin-contracts-4.6.0/contracts/token/ERC1155/ERC1155.sol\":1498:1534  super.supportsInterface(interfaceId) */\n    tag_83:\n        /* \"azero-swap-contracts/contracts/openzeppelin-contracts-4.6.0/contracts/token/ERC1155/ERC1155.sol\":1354:1534  return... */\n      swap3\n        /* \"azero-swap-contracts/contracts/openzeppelin-contracts-4.6.0/contracts/token/ERC1155/ERC1155.sol\":1236:1541  function supportsInterface(bytes4 interfaceId) public view virtual override(ERC165, IERC165) returns (bool) {... */\n      swap2\n      pop\n      pop\n      jump\t// out\n        /* \"azero-swap-contracts/contracts/szERC1155.sol\":349:467  function name()... */\n    tag_31:\n        /* \"azero-swap-contracts/contracts/szERC1155.sol\":412:425  string memory */\n      0x60\n        /* \"azero-swap-contracts/contracts/szERC1155.sol\":448:460  contractName */\n      0x04\n        /* \"azero-swap-contracts/contracts/szERC1155.sol\":441:460  return contractName */\n      dup1\n      sload\n      tag_86\n      swap1\n      tag_87\n      jump\t// in\n    tag_86:\n      dup1\n      0x1f\n      add\n      0x20\n      dup1\n      swap2\n      div\n      mul\n      0x20\n      add\n      mload(0x40)\n      swap1\n      dup2\n      add\n      0x40\n      mstore\n      dup1\n      swap3\n      swap2\n      swap1\n      dup2\n      dup2\n      mstore\n      0x20\n      add\n      dup3\n      dup1\n      sload\n      tag_88\n      swap1\n      tag_87\n      jump\t// in\n    tag_88:\n      dup1\n      iszero\n      tag_89\n      jumpi\n      dup1\n      0x1f\n      lt\n      tag_90\n      jumpi\n      0x0100\n      dup1\n      dup4\n      sload\n      div\n      mul\n      dup4\n      mstore\n      swap2\n      0x20\n      add\n      swap2\n      jump(tag_89)\n    tag_90:\n      dup3\n      add\n      swap2\n      swap1\n      0x00\n      mstore\n      keccak256(0x00, 0x20)\n      swap1\n    tag_91:\n      dup2\n      sload\n      dup2\n      mstore\n      swap1\n      0x01\n      add\n      swap1\n      0x20\n      add\n      dup1\n      dup4\n      gt\n      tag_91\n      jumpi\n      dup3\n      swap1\n      sub\n      0x1f\n      and\n      dup3\n      add\n      swap2\n    tag_89:\n      pop\n      pop\n      pop\n      pop\n      pop\n      swap1\n      pop\n        /* \"azero-swap-contracts/contracts/szERC1155.sol\":349:467  function name()... */\n      swap1\n      jump\t// out\n        /* \"azero-swap-contracts/contracts/openzeppelin-contracts-4.6.0/contracts/token/ERC1155/ERC1155.sol\":1940:2043  function uri(uint256) public view virtual override returns (string memory) {... */\n    tag_37:\n        /* \"azero-swap-contracts/contracts/openzeppelin-contracts-4.6.0/contracts/token/ERC1155/ERC1155.sol\":2000:2013  string memory */\n      0x60\n        /* \"azero-swap-contracts/contracts/openzeppelin-contracts-4.6.0/contracts/token/ERC1155/ERC1155.sol\":2032:2036  _uri */\n      0x02\n        /* \"azero-swap-contracts/contracts/openzeppelin-contracts-4.6.0/contracts/token/ERC1155/ERC1155.sol\":2025:2036  return _uri */\n      dup1\n      sload\n      tag_93\n      swap1\n      tag_87\n      jump\t// in\n    tag_93:\n      dup1\n      0x1f\n      add\n      0x20\n      dup1\n      swap2\n      div\n      mul\n      0x20\n      add\n      mload(0x40)\n      swap1\n      dup2\n      add\n      0x40\n      mstore\n      dup1\n      swap3\n      swap2\n      swap1\n      dup2\n      dup2\n      mstore\n      0x20\n      add\n      dup3\n      dup1\n      sload\n      tag_94\n      swap1\n      tag_87\n      jump\t// in\n    tag_94:\n      dup1\n      iszero\n      tag_95\n      jumpi\n      dup1\n      0x1f\n      lt\n      tag_96\n      jumpi\n      0x0100\n      dup1\n      dup4\n      sload\n      div\n      mul\n      dup4\n      mstore\n      swap2\n      0x20\n      add\n      swap2\n      jump(tag_95)\n    tag_96:\n      dup3\n      add\n      swap2\n      swap1\n      0x00\n      mstore\n      keccak256(0x00, 0x20)\n      swap1\n    tag_97:\n      dup2\n      sload\n      dup2\n      mstore\n      swap1\n      0x01\n      add\n      swap1\n      0x20\n      add\n      dup1\n      dup4\n      gt\n      tag_97\n      jumpi\n      dup3\n      swap1\n      sub\n      0x1f\n      and\n      dup3\n      add\n      swap2\n    tag_95:\n      pop\n      pop\n      pop\n      pop\n      pop\n      swap1\n      pop\n        /* \"azero-swap-contracts/contracts/openzeppelin-contracts-4.6.0/contracts/token/ERC1155/ERC1155.sol\":1940:2043  function uri(uint256) public view virtual override returns (string memory) {... */\n      swap2\n      swap1\n      pop\n      jump\t// out\n        /* \"azero-swap-contracts/contracts/openzeppelin-contracts-4.6.0/contracts/token/ERC1155/ERC1155.sol\":4060:4490  function safeBatchTransferFrom(... */\n    tag_42:\n      sub(shl(0xa0, 0x01), 0x01)\n        /* \"azero-swap-contracts/contracts/openzeppelin-contracts-4.6.0/contracts/token/ERC1155/ERC1155.sol\":4285:4305  from == _msgSender() */\n      dup6\n      and\n        /* \"azero-swap-contracts/contracts/openzeppelin-contracts-4.6.0/contracts/utils/Context.sol\":719:729  msg.sender */\n      caller\n        /* \"azero-swap-contracts/contracts/openzeppelin-contracts-4.6.0/contracts/token/ERC1155/ERC1155.sol\":4285:4305  from == _msgSender() */\n      eq\n      dup1\n        /* \"azero-swap-contracts/contracts/openzeppelin-contracts-4.6.0/contracts/token/ERC1155/ERC1155.sol\":4285:4345  from == _msgSender() || isApprovedForAll(from, _msgSender()) */\n      tag_102\n      jumpi\n      pop\n        /* \"azero-swap-contracts/contracts/openzeppelin-contracts-4.6.0/contracts/token/ERC1155/ERC1155.sol\":4309:4345  isApprovedForAll(from, _msgSender()) */\n      tag_102\n        /* \"azero-swap-contracts/contracts/openzeppelin-contracts-4.6.0/contracts/token/ERC1155/ERC1155.sol\":4326:4330  from */\n      dup6\n        /* \"azero-swap-contracts/contracts/openzeppelin-contracts-4.6.0/contracts/utils/Context.sol\":719:729  msg.sender */\n      caller\n        /* \"azero-swap-contracts/contracts/openzeppelin-contracts-4.6.0/contracts/token/ERC1155/ERC1155.sol\":3366:3532  function isApprovedForAll(address account, address operator) public view virtual override returns (bool) {... */\n      tag_68\n      jump\t// in\n        /* \"azero-swap-contracts/contracts/openzeppelin-contracts-4.6.0/contracts/token/ERC1155/ERC1155.sol\":4309:4345  isApprovedForAll(from, _msgSender()) */\n    tag_102:\n        /* \"azero-swap-contracts/contracts/openzeppelin-contracts-4.6.0/contracts/token/ERC1155/ERC1155.sol\":4264:4421  require(... */\n      tag_104\n      jumpi\n      mload(0x40)\n      shl(0xe5, 0x461bcd)\n      dup2\n      mstore\n        /* \"#utility.yul\":9055:9057   */\n      0x20\n        /* \"azero-swap-contracts/contracts/openzeppelin-contracts-4.6.0/contracts/token/ERC1155/ERC1155.sol\":4264:4421  require(... */\n      0x04\n      dup3\n      add\n        /* \"#utility.yul\":9037:9058   */\n      mstore\n        /* \"#utility.yul\":9094:9096   */\n      0x32\n        /* \"#utility.yul\":9074:9092   */\n      0x24\n      dup3\n      add\n        /* \"#utility.yul\":9067:9097   */\n      mstore\n        /* \"#utility.yul\":9133:9167   */\n      0x455243313135353a207472616e736665722063616c6c6572206973206e6f7420\n        /* \"#utility.yul\":9113:9131   */\n      0x44\n      dup3\n      add\n        /* \"#utility.yul\":9106:9168   */\n      mstore\n      shl(0x72, 0x1bdddb995c881b9bdc88185c1c1c9bdd9959)\n        /* \"#utility.yul\":9184:9202   */\n      0x64\n      dup3\n      add\n        /* \"#utility.yul\":9177:9225   */\n      mstore\n        /* \"#utility.yul\":9242:9261   */\n      0x84\n      add\n        /* \"azero-swap-contracts/contracts/openzeppelin-contracts-4.6.0/contracts/token/ERC1155/ERC1155.sol\":4264:4421  require(... */\n      tag_78\n        /* \"#utility.yul\":8853:9267   */\n      jump\n        /* \"azero-swap-contracts/contracts/openzeppelin-contracts-4.6.0/contracts/token/ERC1155/ERC1155.sol\":4264:4421  require(... */\n    tag_104:\n        /* \"azero-swap-contracts/contracts/openzeppelin-contracts-4.6.0/contracts/token/ERC1155/ERC1155.sol\":4431:4483  _safeBatchTransferFrom(from, to, ids, amounts, data) */\n      tag_107\n        /* \"azero-swap-contracts/contracts/openzeppelin-contracts-4.6.0/contracts/token/ERC1155/ERC1155.sol\":4454:4458  from */\n      dup6\n        /* \"azero-swap-contracts/contracts/openzeppelin-contracts-4.6.0/contracts/token/ERC1155/ERC1155.sol\":4460:4462  to */\n      dup6\n        /* \"azero-swap-contracts/contracts/openzeppelin-contracts-4.6.0/contracts/token/ERC1155/ERC1155.sol\":4464:4467  ids */\n      dup6\n        /* \"azero-swap-contracts/contracts/openzeppelin-contracts-4.6.0/contracts/token/ERC1155/ERC1155.sol\":4469:4476  amounts */\n      dup6\n        /* \"azero-swap-contracts/contracts/openzeppelin-contracts-4.6.0/contracts/token/ERC1155/ERC1155.sol\":4478:4482  data */\n      dup6\n        /* \"azero-swap-contracts/contracts/openzeppelin-contracts-4.6.0/contracts/token/ERC1155/ERC1155.sol\":4431:4453  _safeBatchTransferFrom */\n      tag_108\n        /* \"azero-swap-contracts/contracts/openzeppelin-contracts-4.6.0/contracts/token/ERC1155/ERC1155.sol\":4431:4483  _safeBatchTransferFrom(from, to, ids, amounts, data) */\n      jump\t// in\n    tag_107:\n        /* \"azero-swap-contracts/contracts/openzeppelin-contracts-4.6.0/contracts/token/ERC1155/ERC1155.sol\":4060:4490  function safeBatchTransferFrom(... */\n      pop\n      pop\n      pop\n      pop\n      pop\n      jump\t// out\n        /* \"azero-swap-contracts/contracts/openzeppelin-contracts-4.6.0/contracts/token/ERC1155/ERC1155.sol\":2570:3078  function balanceOfBatch(address[] memory accounts, uint256[] memory ids)... */\n    tag_49:\n        /* \"azero-swap-contracts/contracts/openzeppelin-contracts-4.6.0/contracts/token/ERC1155/ERC1155.sol\":2721:2737  uint256[] memory */\n      0x60\n        /* \"azero-swap-contracts/contracts/openzeppelin-contracts-4.6.0/contracts/token/ERC1155/ERC1155.sol\":2780:2783  ids */\n      dup2\n        /* \"azero-swap-contracts/contracts/openzeppelin-contracts-4.6.0/contracts/token/ERC1155/ERC1155.sol\":2780:2790  ids.length */\n      mload\n        /* \"azero-swap-contracts/contracts/openzeppelin-contracts-4.6.0/contracts/token/ERC1155/ERC1155.sol\":2761:2769  accounts */\n      dup4\n        /* \"azero-swap-contracts/contracts/openzeppelin-contracts-4.6.0/contracts/token/ERC1155/ERC1155.sol\":2761:2776  accounts.length */\n      mload\n        /* \"azero-swap-contracts/contracts/openzeppelin-contracts-4.6.0/contracts/token/ERC1155/ERC1155.sol\":2761:2790  accounts.length == ids.length */\n      eq\n        /* \"azero-swap-contracts/contracts/openzeppelin-contracts-4.6.0/contracts/token/ERC1155/ERC1155.sol\":2753:2836  require(accounts.length == ids.length, \"ERC1155: accounts and ids length mismatch\") */\n      tag_111\n      jumpi\n      mload(0x40)\n      shl(0xe5, 0x461bcd)\n      dup2\n      mstore\n        /* \"#utility.yul\":9474:9476   */\n      0x20\n        /* \"azero-swap-contracts/contracts/openzeppelin-contracts-4.6.0/contracts/token/ERC1155/ERC1155.sol\":2753:2836  require(accounts.length == ids.length, \"ERC1155: accounts and ids length mismatch\") */\n      0x04\n      dup3\n      add\n        /* \"#utility.yul\":9456:9477   */\n      mstore\n        /* \"#utility.yul\":9513:9515   */\n      0x29\n        /* \"#utility.yul\":9493:9511   */\n      0x24\n      dup3\n      add\n        /* \"#utility.yul\":9486:9516   */\n      mstore\n        /* \"#utility.yul\":9552:9586   */\n      0x455243313135353a206163636f756e747320616e6420696473206c656e677468\n        /* \"#utility.yul\":9532:9550   */\n      0x44\n      dup3\n      add\n        /* \"#utility.yul\":9525:9587   */\n      mstore\n      shl(0xbb, 0x040dad2e6dac2e8c6d)\n        /* \"#utility.yul\":9603:9621   */\n      0x64\n      dup3\n      add\n        /* \"#utility.yul\":9596:9635   */\n      mstore\n        /* \"#utility.yul\":9652:9671   */\n      0x84\n      add\n        /* \"azero-swap-contracts/contracts/openzeppelin-contracts-4.6.0/contracts/token/ERC1155/ERC1155.sol\":2753:2836  require(accounts.length == ids.length, \"ERC1155: accounts and ids length mismatch\") */\n      tag_78\n        /* \"#utility.yul\":9272:9677   */\n      jump\n        /* \"azero-swap-contracts/contracts/openzeppelin-contracts-4.6.0/contracts/token/ERC1155/ERC1155.sol\":2753:2836  require(accounts.length == ids.length, \"ERC1155: accounts and ids length mismatch\") */\n    tag_111:\n        /* \"azero-swap-contracts/contracts/openzeppelin-contracts-4.6.0/contracts/token/ERC1155/ERC1155.sol\":2847:2877  uint256[] memory batchBalances */\n      0x00\n        /* \"azero-swap-contracts/contracts/openzeppelin-contracts-4.6.0/contracts/token/ERC1155/ERC1155.sol\":2894:2902  accounts */\n      dup4\n        /* \"azero-swap-contracts/contracts/openzeppelin-contracts-4.6.0/contracts/token/ERC1155/ERC1155.sol\":2894:2909  accounts.length */\n      mload\n        /* \"azero-swap-contracts/contracts/openzeppelin-contracts-4.6.0/contracts/token/ERC1155/ERC1155.sol\":2880:2910  new uint256[](accounts.length) */\n      0xffffffffffffffff\n      dup2\n      gt\n      iszero\n      tag_115\n      jumpi\n      tag_115\n      tag_116\n      jump\t// in\n    tag_115:\n      mload(0x40)\n      swap1\n      dup1\n      dup3\n      mstore\n      dup1\n      0x20\n      mul\n      0x20\n      add\n      dup3\n      add\n      0x40\n      mstore\n      dup1\n      iszero\n      tag_117\n      jumpi\n      dup2\n      0x20\n      add\n      0x20\n      dup3\n      mul\n      dup1\n      calldatasize\n      dup4\n      calldatacopy\n      add\n      swap1\n      pop\n    tag_117:\n      pop\n        /* \"azero-swap-contracts/contracts/openzeppelin-contracts-4.6.0/contracts/token/ERC1155/ERC1155.sol\":2847:2910  uint256[] memory batchBalances = new uint256[](accounts.length) */\n      swap1\n      pop\n        /* \"azero-swap-contracts/contracts/openzeppelin-contracts-4.6.0/contracts/token/ERC1155/ERC1155.sol\":2926:2935  uint256 i */\n      0x00\n        /* \"azero-swap-contracts/contracts/openzeppelin-contracts-4.6.0/contracts/token/ERC1155/ERC1155.sol\":2921:3041  for (uint256 i = 0; i < accounts.length; ++i) {... */\n    tag_118:\n        /* \"azero-swap-contracts/contracts/openzeppelin-contracts-4.6.0/contracts/token/ERC1155/ERC1155.sol\":2945:2953  accounts */\n      dup5\n        /* \"azero-swap-contracts/contracts/openzeppelin-contracts-4.6.0/contracts/token/ERC1155/ERC1155.sol\":2945:2960  accounts.length */\n      mload\n        /* \"azero-swap-contracts/contracts/openzeppelin-contracts-4.6.0/contracts/token/ERC1155/ERC1155.sol\":2941:2942  i */\n      dup2\n        /* \"azero-swap-contracts/contracts/openzeppelin-contracts-4.6.0/contracts/token/ERC1155/ERC1155.sol\":2941:2960  i < accounts.length */\n      lt\n        /* \"azero-swap-contracts/contracts/openzeppelin-contracts-4.6.0/contracts/token/ERC1155/ERC1155.sol\":2921:3041  for (uint256 i = 0; i < accounts.length; ++i) {... */\n      iszero\n      tag_119\n      jumpi\n        /* \"azero-swap-contracts/contracts/openzeppelin-contracts-4.6.0/contracts/token/ERC1155/ERC1155.sol\":3000:3030  balanceOf(accounts[i], ids[i]) */\n      tag_121\n        /* \"azero-swap-contracts/contracts/openzeppelin-contracts-4.6.0/contracts/token/ERC1155/ERC1155.sol\":3010:3018  accounts */\n      dup6\n        /* \"azero-swap-contracts/contracts/openzeppelin-contracts-4.6.0/contracts/token/ERC1155/ERC1155.sol\":3019:3020  i */\n      dup3\n        /* \"azero-swap-contracts/contracts/openzeppelin-contracts-4.6.0/contracts/token/ERC1155/ERC1155.sol\":3010:3021  accounts[i] */\n      dup2\n      mload\n      dup2\n      lt\n      tag_123\n      jumpi\n      tag_123\n      tag_124\n      jump\t// in\n    tag_123:\n      0x20\n      mul\n      0x20\n      add\n      add\n      mload\n        /* \"azero-swap-contracts/contracts/openzeppelin-contracts-4.6.0/contracts/token/ERC1155/ERC1155.sol\":3023:3026  ids */\n      dup6\n        /* \"azero-swap-contracts/contracts/openzeppelin-contracts-4.6.0/contracts/token/ERC1155/ERC1155.sol\":3027:3028  i */\n      dup4\n        /* \"azero-swap-contracts/contracts/openzeppelin-contracts-4.6.0/contracts/token/ERC1155/ERC1155.sol\":3023:3029  ids[i] */\n      dup2\n      mload\n      dup2\n      lt\n      tag_126\n      jumpi\n      tag_126\n      tag_124\n      jump\t// in\n    tag_126:\n      0x20\n      mul\n      0x20\n      add\n      add\n      mload\n        /* \"azero-swap-contracts/contracts/openzeppelin-contracts-4.6.0/contracts/token/ERC1155/ERC1155.sol\":3000:3009  balanceOf */\n      tag_21\n        /* \"azero-swap-contracts/contracts/openzeppelin-contracts-4.6.0/contracts/token/ERC1155/ERC1155.sol\":3000:3030  balanceOf(accounts[i], ids[i]) */\n      jump\t// in\n    tag_121:\n        /* \"azero-swap-contracts/contracts/openzeppelin-contracts-4.6.0/contracts/token/ERC1155/ERC1155.sol\":2981:2994  batchBalances */\n      dup3\n        /* \"azero-swap-contracts/contracts/openzeppelin-contracts-4.6.0/contracts/token/ERC1155/ERC1155.sol\":2995:2996  i */\n      dup3\n        /* \"azero-swap-contracts/contracts/openzeppelin-contracts-4.6.0/contracts/token/ERC1155/ERC1155.sol\":2981:2997  batchBalances[i] */\n      dup2\n      mload\n      dup2\n      lt\n      tag_128\n      jumpi\n      tag_128\n      tag_124\n      jump\t// in\n    tag_128:\n      0x20\n      swap1\n      dup2\n      mul\n      swap2\n      swap1\n      swap2\n      add\n      add\n        /* \"azero-swap-contracts/contracts/openzeppelin-contracts-4.6.0/contracts/token/ERC1155/ERC1155.sol\":2981:3030  batchBalances[i] = balanceOf(accounts[i], ids[i]) */\n      mstore\n        /* \"azero-swap-contracts/contracts/openzeppelin-contracts-4.6.0/contracts/token/ERC1155/ERC1155.sol\":2962:2965  ++i */\n      tag_129\n      dup2\n      tag_130\n      jump\t// in\n    tag_129:\n      swap1\n      pop\n        /* \"azero-swap-contracts/contracts/openzeppelin-contracts-4.6.0/contracts/token/ERC1155/ERC1155.sol\":2921:3041  for (uint256 i = 0; i < accounts.length; ++i) {... */\n      jump(tag_118)\n    tag_119:\n      pop\n        /* \"azero-swap-contracts/contracts/openzeppelin-contracts-4.6.0/contracts/token/ERC1155/ERC1155.sol\":3058:3071  batchBalances */\n      swap4\n        /* \"azero-swap-contracts/contracts/openzeppelin-contracts-4.6.0/contracts/token/ERC1155/ERC1155.sol\":2570:3078  function balanceOfBatch(address[] memory accounts, uint256[] memory ids)... */\n      swap3\n      pop\n      pop\n      pop\n      jump\t// out\n        /* \"azero-swap-contracts/contracts/szERC1155.sol\":473:595  function symbol()... */\n    tag_57:\n        /* \"azero-swap-contracts/contracts/szERC1155.sol\":538:551  string memory */\n      0x60\n        /* \"azero-swap-contracts/contracts/szERC1155.sol\":574:588  contractSymbol */\n      0x05\n        /* \"azero-swap-contracts/contracts/szERC1155.sol\":567:588  return contractSymbol */\n      dup1\n      sload\n      tag_86\n      swap1\n      tag_87\n      jump\t// in\n        /* \"azero-swap-contracts/contracts/openzeppelin-contracts-4.6.0/contracts/token/ERC1155/ERC1155.sol\":3146:3299  function setApprovalForAll(address operator, bool approved) public virtual override {... */\n    tag_62:\n        /* \"azero-swap-contracts/contracts/openzeppelin-contracts-4.6.0/contracts/token/ERC1155/ERC1155.sol\":3240:3292  _setApprovalForAll(_msgSender(), operator, approved) */\n      tag_140\n        /* \"azero-swap-contracts/contracts/openzeppelin-contracts-4.6.0/contracts/utils/Context.sol\":719:729  msg.sender */\n      caller\n        /* \"azero-swap-contracts/contracts/openzeppelin-contracts-4.6.0/contracts/token/ERC1155/ERC1155.sol\":3273:3281  operator */\n      dup4\n        /* \"azero-swap-contracts/contracts/openzeppelin-contracts-4.6.0/contracts/token/ERC1155/ERC1155.sol\":3283:3291  approved */\n      dup4\n        /* \"azero-swap-contracts/contracts/openzeppelin-contracts-4.6.0/contracts/token/ERC1155/ERC1155.sol\":3240:3258  _setApprovalForAll */\n      tag_142\n        /* \"azero-swap-contracts/contracts/openzeppelin-contracts-4.6.0/contracts/token/ERC1155/ERC1155.sol\":3240:3292  _setApprovalForAll(_msgSender(), operator, approved) */\n      jump\t// in\n    tag_140:\n        /* \"azero-swap-contracts/contracts/openzeppelin-contracts-4.6.0/contracts/token/ERC1155/ERC1155.sol\":3146:3299  function setApprovalForAll(address operator, bool approved) public virtual override {... */\n      pop\n      pop\n      jump\t// out\n        /* \"azero-swap-contracts/contracts/openzeppelin-contracts-4.6.0/contracts/token/ERC1155/ERC1155.sol\":3599:3988  function safeTransferFrom(... */\n    tag_75:\n      sub(shl(0xa0, 0x01), 0x01)\n        /* \"azero-swap-contracts/contracts/openzeppelin-contracts-4.6.0/contracts/token/ERC1155/ERC1155.sol\":3799:3819  from == _msgSender() */\n      dup6\n      and\n        /* \"azero-swap-contracts/contracts/openzeppelin-contracts-4.6.0/contracts/utils/Context.sol\":719:729  msg.sender */\n      caller\n        /* \"azero-swap-contracts/contracts/openzeppelin-contracts-4.6.0/contracts/token/ERC1155/ERC1155.sol\":3799:3819  from == _msgSender() */\n      eq\n      dup1\n        /* \"azero-swap-contracts/contracts/openzeppelin-contracts-4.6.0/contracts/token/ERC1155/ERC1155.sol\":3799:3859  from == _msgSender() || isApprovedForAll(from, _msgSender()) */\n      tag_148\n      jumpi\n      pop\n        /* \"azero-swap-contracts/contracts/openzeppelin-contracts-4.6.0/contracts/token/ERC1155/ERC1155.sol\":3823:3859  isApprovedForAll(from, _msgSender()) */\n      tag_148\n        /* \"azero-swap-contracts/contracts/openzeppelin-contracts-4.6.0/contracts/token/ERC1155/ERC1155.sol\":3840:3844  from */\n      dup6\n        /* \"azero-swap-contracts/contracts/openzeppelin-contracts-4.6.0/contracts/utils/Context.sol\":719:729  msg.sender */\n      caller\n        /* \"azero-swap-contracts/contracts/openzeppelin-contracts-4.6.0/contracts/token/ERC1155/ERC1155.sol\":3366:3532  function isApprovedForAll(address account, address operator) public view virtual override returns (bool) {... */\n      tag_68\n      jump\t// in\n        /* \"azero-swap-contracts/contracts/openzeppelin-contracts-4.6.0/contracts/token/ERC1155/ERC1155.sol\":3823:3859  isApprovedForAll(from, _msgSender()) */\n    tag_148:\n        /* \"azero-swap-contracts/contracts/openzeppelin-contracts-4.6.0/contracts/token/ERC1155/ERC1155.sol\":3778:3926  require(... */\n      tag_150\n      jumpi\n      mload(0x40)\n      shl(0xe5, 0x461bcd)\n      dup2\n      mstore\n        /* \"#utility.yul\":10288:10290   */\n      0x20\n        /* \"azero-swap-contracts/contracts/openzeppelin-contracts-4.6.0/contracts/token/ERC1155/ERC1155.sol\":3778:3926  require(... */\n      0x04\n      dup3\n      add\n        /* \"#utility.yul\":10270:10291   */\n      mstore\n        /* \"#utility.yul\":10327:10329   */\n      0x29\n        /* \"#utility.yul\":10307:10325   */\n      0x24\n      dup3\n      add\n        /* \"#utility.yul\":10300:10330   */\n      mstore\n        /* \"#utility.yul\":10366:10400   */\n      0x455243313135353a2063616c6c6572206973206e6f74206f776e6572206e6f72\n        /* \"#utility.yul\":10346:10364   */\n      0x44\n      dup3\n      add\n        /* \"#utility.yul\":10339:10401   */\n      mstore\n      shl(0xba, 0x08185c1c1c9bdd9959)\n        /* \"#utility.yul\":10417:10435   */\n      0x64\n      dup3\n      add\n        /* \"#utility.yul\":10410:10449   */\n      mstore\n        /* \"#utility.yul\":10466:10485   */\n      0x84\n      add\n        /* \"azero-swap-contracts/contracts/openzeppelin-contracts-4.6.0/contracts/token/ERC1155/ERC1155.sol\":3778:3926  require(... */\n      tag_78\n        /* \"#utility.yul\":10086:10491   */\n      jump\n        /* \"azero-swap-contracts/contracts/openzeppelin-contracts-4.6.0/contracts/token/ERC1155/ERC1155.sol\":3778:3926  require(... */\n    tag_150:\n        /* \"azero-swap-contracts/contracts/openzeppelin-contracts-4.6.0/contracts/token/ERC1155/ERC1155.sol\":3936:3981  _safeTransferFrom(from, to, id, amount, data) */\n      tag_107\n        /* \"azero-swap-contracts/contracts/openzeppelin-contracts-4.6.0/contracts/token/ERC1155/ERC1155.sol\":3954:3958  from */\n      dup6\n        /* \"azero-swap-contracts/contracts/openzeppelin-contracts-4.6.0/contracts/token/ERC1155/ERC1155.sol\":3960:3962  to */\n      dup6\n        /* \"azero-swap-contracts/contracts/openzeppelin-contracts-4.6.0/contracts/token/ERC1155/ERC1155.sol\":3964:3966  id */\n      dup6\n        /* \"azero-swap-contracts/contracts/openzeppelin-contracts-4.6.0/contracts/token/ERC1155/ERC1155.sol\":3968:3974  amount */\n      dup6\n        /* \"azero-swap-contracts/contracts/openzeppelin-contracts-4.6.0/contracts/token/ERC1155/ERC1155.sol\":3976:3980  data */\n      dup6\n        /* \"azero-swap-contracts/contracts/openzeppelin-contracts-4.6.0/contracts/token/ERC1155/ERC1155.sol\":3936:3953  _safeTransferFrom */\n      tag_154\n        /* \"azero-swap-contracts/contracts/openzeppelin-contracts-4.6.0/contracts/token/ERC1155/ERC1155.sol\":3936:3981  _safeTransferFrom(from, to, id, amount, data) */\n      jump\t// in\n        /* \"azero-swap-contracts/contracts/openzeppelin-contracts-4.6.0/contracts/token/ERC1155/ERC1155.sol\":6233:7348  function _safeBatchTransferFrom(... */\n    tag_108:\n        /* \"azero-swap-contracts/contracts/openzeppelin-contracts-4.6.0/contracts/token/ERC1155/ERC1155.sol\":6453:6460  amounts */\n      dup2\n        /* \"azero-swap-contracts/contracts/openzeppelin-contracts-4.6.0/contracts/token/ERC1155/ERC1155.sol\":6453:6467  amounts.length */\n      mload\n        /* \"azero-swap-contracts/contracts/openzeppelin-contracts-4.6.0/contracts/token/ERC1155/ERC1155.sol\":6439:6442  ids */\n      dup4\n        /* \"azero-swap-contracts/contracts/openzeppelin-contracts-4.6.0/contracts/token/ERC1155/ERC1155.sol\":6439:6449  ids.length */\n      mload\n        /* \"azero-swap-contracts/contracts/openzeppelin-contracts-4.6.0/contracts/token/ERC1155/ERC1155.sol\":6439:6467  ids.length == amounts.length */\n      eq\n        /* \"azero-swap-contracts/contracts/openzeppelin-contracts-4.6.0/contracts/token/ERC1155/ERC1155.sol\":6431:6512  require(ids.length == amounts.length, \"ERC1155: ids and amounts length mismatch\") */\n      tag_158\n      jumpi\n      mload(0x40)\n      shl(0xe5, 0x461bcd)\n      dup2\n      mstore\n        /* \"#utility.yul\":10698:10700   */\n      0x20\n        /* \"azero-swap-contracts/contracts/openzeppelin-contracts-4.6.0/contracts/token/ERC1155/ERC1155.sol\":6431:6512  require(ids.length == amounts.length, \"ERC1155: ids and amounts length mismatch\") */\n      0x04\n      dup3\n      add\n        /* \"#utility.yul\":10680:10701   */\n      mstore\n        /* \"#utility.yul\":10737:10739   */\n      0x28\n        /* \"#utility.yul\":10717:10735   */\n      0x24\n      dup3\n      add\n        /* \"#utility.yul\":10710:10740   */\n      mstore\n        /* \"#utility.yul\":10776:10810   */\n      0x455243313135353a2069647320616e6420616d6f756e7473206c656e67746820\n        /* \"#utility.yul\":10756:10774   */\n      0x44\n      dup3\n      add\n        /* \"#utility.yul\":10749:10811   */\n      mstore\n      shl(0xc3, 0x0dad2e6dac2e8c6d)\n        /* \"#utility.yul\":10827:10845   */\n      0x64\n      dup3\n      add\n        /* \"#utility.yul\":10820:10858   */\n      mstore\n        /* \"#utility.yul\":10875:10894   */\n      0x84\n      add\n        /* \"azero-swap-contracts/contracts/openzeppelin-contracts-4.6.0/contracts/token/ERC1155/ERC1155.sol\":6431:6512  require(ids.length == amounts.length, \"ERC1155: ids and amounts length mismatch\") */\n      tag_78\n        /* \"#utility.yul\":10496:10900   */\n      jump\n        /* \"azero-swap-contracts/contracts/openzeppelin-contracts-4.6.0/contracts/token/ERC1155/ERC1155.sol\":6431:6512  require(ids.length == amounts.length, \"ERC1155: ids and amounts length mismatch\") */\n    tag_158:\n      sub(shl(0xa0, 0x01), 0x01)\n        /* \"azero-swap-contracts/contracts/openzeppelin-contracts-4.6.0/contracts/token/ERC1155/ERC1155.sol\":6530:6546  to != address(0) */\n      dup5\n      and\n        /* \"azero-swap-contracts/contracts/openzeppelin-contracts-4.6.0/contracts/token/ERC1155/ERC1155.sol\":6522:6588  require(to != address(0), \"ERC1155: transfer to the zero address\") */\n      tag_161\n      jumpi\n      mload(0x40)\n      shl(0xe5, 0x461bcd)\n      dup2\n      mstore\n      0x04\n      add\n      tag_78\n      swap1\n      tag_163\n      jump\t// in\n    tag_161:\n        /* \"azero-swap-contracts/contracts/openzeppelin-contracts-4.6.0/contracts/utils/Context.sol\":719:729  msg.sender */\n      caller\n        /* \"azero-swap-contracts/contracts/openzeppelin-contracts-4.6.0/contracts/token/ERC1155/ERC1155.sol\":6641:6701  _beforeTokenTransfer(operator, from, to, ids, amounts, data) */\n      tag_165\n        /* \"azero-swap-contracts/contracts/openzeppelin-contracts-4.6.0/contracts/utils/Context.sol\":719:729  msg.sender */\n      dup2\n        /* \"azero-swap-contracts/contracts/openzeppelin-contracts-4.6.0/contracts/token/ERC1155/ERC1155.sol\":6672:6676  from */\n      dup8\n        /* \"azero-swap-contracts/contracts/openzeppelin-contracts-4.6.0/contracts/token/ERC1155/ERC1155.sol\":6678:6680  to */\n      dup8\n        /* \"azero-swap-contracts/contracts/openzeppelin-contracts-4.6.0/contracts/token/ERC1155/ERC1155.sol\":6682:6685  ids */\n      dup8\n        /* \"azero-swap-contracts/contracts/openzeppelin-contracts-4.6.0/contracts/token/ERC1155/ERC1155.sol\":6687:6694  amounts */\n      dup8\n        /* \"azero-swap-contracts/contracts/openzeppelin-contracts-4.6.0/contracts/token/ERC1155/ERC1155.sol\":6696:6700  data */\n      dup8\n        /* \"azero-swap-contracts/contracts/openzeppelin-contracts-4.6.0/contracts/token/ERC1155/ERC1155.sol\":6641:6661  _beforeTokenTransfer */\n      tag_166\n        /* \"azero-swap-contracts/contracts/openzeppelin-contracts-4.6.0/contracts/token/ERC1155/ERC1155.sol\":6641:6701  _beforeTokenTransfer(operator, from, to, ids, amounts, data) */\n      jump\t// in\n    tag_165:\n        /* \"azero-swap-contracts/contracts/openzeppelin-contracts-4.6.0/contracts/token/ERC1155/ERC1155.sol\":6717:6726  uint256 i */\n      0x00\n        /* \"azero-swap-contracts/contracts/openzeppelin-contracts-4.6.0/contracts/token/ERC1155/ERC1155.sol\":6712:7123  for (uint256 i = 0; i < ids.length; ++i) {... */\n    tag_167:\n        /* \"azero-swap-contracts/contracts/openzeppelin-contracts-4.6.0/contracts/token/ERC1155/ERC1155.sol\":6736:6739  ids */\n      dup5\n        /* \"azero-swap-contracts/contracts/openzeppelin-contracts-4.6.0/contracts/token/ERC1155/ERC1155.sol\":6736:6746  ids.length */\n      mload\n        /* \"azero-swap-contracts/contracts/openzeppelin-contracts-4.6.0/contracts/token/ERC1155/ERC1155.sol\":6732:6733  i */\n      dup2\n        /* \"azero-swap-contracts/contracts/openzeppelin-contracts-4.6.0/contracts/token/ERC1155/ERC1155.sol\":6732:6746  i < ids.length */\n      lt\n        /* \"azero-swap-contracts/contracts/openzeppelin-contracts-4.6.0/contracts/token/ERC1155/ERC1155.sol\":6712:7123  for (uint256 i = 0; i < ids.length; ++i) {... */\n      iszero\n      tag_168\n      jumpi\n        /* \"azero-swap-contracts/contracts/openzeppelin-contracts-4.6.0/contracts/token/ERC1155/ERC1155.sol\":6767:6777  uint256 id */\n      0x00\n        /* \"azero-swap-contracts/contracts/openzeppelin-contracts-4.6.0/contracts/token/ERC1155/ERC1155.sol\":6780:6783  ids */\n      dup6\n        /* \"azero-swap-contracts/contracts/openzeppelin-contracts-4.6.0/contracts/token/ERC1155/ERC1155.sol\":6784:6785  i */\n      dup3\n        /* \"azero-swap-contracts/contracts/openzeppelin-contracts-4.6.0/contracts/token/ERC1155/ERC1155.sol\":6780:6786  ids[i] */\n      dup2\n      mload\n      dup2\n      lt\n      tag_171\n      jumpi\n      tag_171\n      tag_124\n      jump\t// in\n    tag_171:\n      0x20\n      mul\n      0x20\n      add\n      add\n      mload\n        /* \"azero-swap-contracts/contracts/openzeppelin-contracts-4.6.0/contracts/token/ERC1155/ERC1155.sol\":6767:6786  uint256 id = ids[i] */\n      swap1\n      pop\n        /* \"azero-swap-contracts/contracts/openzeppelin-contracts-4.6.0/contracts/token/ERC1155/ERC1155.sol\":6800:6814  uint256 amount */\n      0x00\n        /* \"azero-swap-contracts/contracts/openzeppelin-contracts-4.6.0/contracts/token/ERC1155/ERC1155.sol\":6817:6824  amounts */\n      dup6\n        /* \"azero-swap-contracts/contracts/openzeppelin-contracts-4.6.0/contracts/token/ERC1155/ERC1155.sol\":6825:6826  i */\n      dup4\n        /* \"azero-swap-contracts/contracts/openzeppelin-contracts-4.6.0/contracts/token/ERC1155/ERC1155.sol\":6817:6827  amounts[i] */\n      dup2\n      mload\n      dup2\n      lt\n      tag_173\n      jumpi\n      tag_173\n      tag_124\n      jump\t// in\n    tag_173:\n      0x20\n      swap1\n      dup2\n      mul\n      swap2\n      swap1\n      swap2\n      add\n      dup2\n      add\n      mload\n        /* \"azero-swap-contracts/contracts/openzeppelin-contracts-4.6.0/contracts/token/ERC1155/ERC1155.sol\":6842:6861  uint256 fromBalance */\n      0x00\n        /* \"azero-swap-contracts/contracts/openzeppelin-contracts-4.6.0/contracts/token/ERC1155/ERC1155.sol\":6864:6877  _balances[id] */\n      dup5\n      dup2\n      mstore\n      dup1\n      dup4\n      mstore\n      0x40\n      dup1\n      dup3\n      keccak256\n      sub(shl(0xa0, 0x01), 0x01)\n        /* \"azero-swap-contracts/contracts/openzeppelin-contracts-4.6.0/contracts/token/ERC1155/ERC1155.sol\":6864:6883  _balances[id][from] */\n      dup15\n      and\n      dup4\n      mstore\n      swap1\n      swap4\n      mstore\n      swap2\n      swap1\n      swap2\n      keccak256\n      sload\n        /* \"azero-swap-contracts/contracts/openzeppelin-contracts-4.6.0/contracts/token/ERC1155/ERC1155.sol\":6817:6827  amounts[i] */\n      swap1\n      swap2\n      pop\n        /* \"azero-swap-contracts/contracts/openzeppelin-contracts-4.6.0/contracts/token/ERC1155/ERC1155.sol\":6905:6926  fromBalance >= amount */\n      dup2\n      dup2\n      lt\n      iszero\n        /* \"azero-swap-contracts/contracts/openzeppelin-contracts-4.6.0/contracts/token/ERC1155/ERC1155.sol\":6897:6973  require(fromBalance >= amount, \"ERC1155: insufficient balance for transfer\") */\n      tag_174\n      jumpi\n      mload(0x40)\n      shl(0xe5, 0x461bcd)\n      dup2\n      mstore\n      0x04\n      add\n      tag_78\n      swap1\n      tag_176\n      jump\t// in\n    tag_174:\n        /* \"azero-swap-contracts/contracts/openzeppelin-contracts-4.6.0/contracts/token/ERC1155/ERC1155.sol\":7015:7024  _balances */\n      0x00\n        /* \"azero-swap-contracts/contracts/openzeppelin-contracts-4.6.0/contracts/token/ERC1155/ERC1155.sol\":7015:7028  _balances[id] */\n      dup4\n      dup2\n      mstore\n      0x20\n      dup2\n      dup2\n      mstore\n      0x40\n      dup1\n      dup4\n      keccak256\n      sub(shl(0xa0, 0x01), 0x01)\n        /* \"azero-swap-contracts/contracts/openzeppelin-contracts-4.6.0/contracts/token/ERC1155/ERC1155.sol\":7015:7034  _balances[id][from] */\n      dup15\n      dup2\n      and\n      dup6\n      mstore\n      swap3\n      mstore\n      dup1\n      dup4\n      keccak256\n        /* \"azero-swap-contracts/contracts/openzeppelin-contracts-4.6.0/contracts/token/ERC1155/ERC1155.sol\":7037:7057  fromBalance - amount */\n      dup6\n      dup6\n      sub\n        /* \"azero-swap-contracts/contracts/openzeppelin-contracts-4.6.0/contracts/token/ERC1155/ERC1155.sol\":7015:7057  _balances[id][from] = fromBalance - amount */\n      swap1\n      sstore\n        /* \"azero-swap-contracts/contracts/openzeppelin-contracts-4.6.0/contracts/token/ERC1155/ERC1155.sol\":7085:7102  _balances[id][to] */\n      swap1\n      dup12\n      and\n      dup3\n      mstore\n      dup2\n      keccak256\n        /* \"azero-swap-contracts/contracts/openzeppelin-contracts-4.6.0/contracts/token/ERC1155/ERC1155.sol\":7085:7112  _balances[id][to] += amount */\n      dup1\n      sload\n        /* \"azero-swap-contracts/contracts/openzeppelin-contracts-4.6.0/contracts/token/ERC1155/ERC1155.sol\":7037:7057  fromBalance - amount */\n      dup5\n      swap3\n        /* \"azero-swap-contracts/contracts/openzeppelin-contracts-4.6.0/contracts/token/ERC1155/ERC1155.sol\":7015:7024  _balances */\n      swap1\n        /* \"azero-swap-contracts/contracts/openzeppelin-contracts-4.6.0/contracts/token/ERC1155/ERC1155.sol\":7085:7112  _balances[id][to] += amount */\n      tag_177\n      swap1\n        /* \"azero-swap-contracts/contracts/openzeppelin-contracts-4.6.0/contracts/token/ERC1155/ERC1155.sol\":7037:7057  fromBalance - amount */\n      dup5\n      swap1\n        /* \"azero-swap-contracts/contracts/openzeppelin-contracts-4.6.0/contracts/token/ERC1155/ERC1155.sol\":7085:7112  _balances[id][to] += amount */\n      tag_178\n      jump\t// in\n    tag_177:\n      swap3\n      pop\n      pop\n      dup2\n      swap1\n      sstore\n      pop\n        /* \"azero-swap-contracts/contracts/openzeppelin-contracts-4.6.0/contracts/token/ERC1155/ERC1155.sol\":6753:7123  {... */\n      pop\n      pop\n      pop\n        /* \"azero-swap-contracts/contracts/openzeppelin-contracts-4.6.0/contracts/token/ERC1155/ERC1155.sol\":6748:6751  ++i */\n      dup1\n      tag_179\n      swap1\n      tag_130\n      jump\t// in\n    tag_179:\n      swap1\n      pop\n        /* \"azero-swap-contracts/contracts/openzeppelin-contracts-4.6.0/contracts/token/ERC1155/ERC1155.sol\":6712:7123  for (uint256 i = 0; i < ids.length; ++i) {... */\n      jump(tag_167)\n    tag_168:\n      pop\n        /* \"azero-swap-contracts/contracts/openzeppelin-contracts-4.6.0/contracts/token/ERC1155/ERC1155.sol\":7168:7170  to */\n      dup5\n      sub(shl(0xa0, 0x01), 0x01)\n        /* \"azero-swap-contracts/contracts/openzeppelin-contracts-4.6.0/contracts/token/ERC1155/ERC1155.sol\":7138:7185  TransferBatch(operator, from, to, ids, amounts) */\n      and\n        /* \"azero-swap-contracts/contracts/openzeppelin-contracts-4.6.0/contracts/token/ERC1155/ERC1155.sol\":7162:7166  from */\n      dup7\n      sub(shl(0xa0, 0x01), 0x01)\n        /* \"azero-swap-contracts/contracts/openzeppelin-contracts-4.6.0/contracts/token/ERC1155/ERC1155.sol\":7138:7185  TransferBatch(operator, from, to, ids, amounts) */\n      and\n        /* \"azero-swap-contracts/contracts/openzeppelin-contracts-4.6.0/contracts/token/ERC1155/ERC1155.sol\":7152:7160  operator */\n      dup3\n      sub(shl(0xa0, 0x01), 0x01)\n        /* \"azero-swap-contracts/contracts/openzeppelin-contracts-4.6.0/contracts/token/ERC1155/ERC1155.sol\":7138:7185  TransferBatch(operator, from, to, ids, amounts) */\n      and\n      0x4a39dc06d4c0dbc64b70af90fd698a233a518aa5d07e595d983b8c0526c8f7fb\n        /* \"azero-swap-contracts/contracts/openzeppelin-contracts-4.6.0/contracts/token/ERC1155/ERC1155.sol\":7172:7175  ids */\n      dup8\n        /* \"azero-swap-contracts/contracts/openzeppelin-contracts-4.6.0/contracts/token/ERC1155/ERC1155.sol\":7177:7184  amounts */\n      dup8\n        /* \"azero-swap-contracts/contracts/openzeppelin-contracts-4.6.0/contracts/token/ERC1155/ERC1155.sol\":7138:7185  TransferBatch(operator, from, to, ids, amounts) */\n      mload(0x40)\n      tag_180\n      swap3\n      swap2\n      swap1\n      tag_181\n      jump\t// in\n    tag_180:\n      mload(0x40)\n      dup1\n      swap2\n      sub\n      swap1\n      log4\n        /* \"azero-swap-contracts/contracts/openzeppelin-contracts-4.6.0/contracts/token/ERC1155/ERC1155.sol\":7266:7341  _doSafeBatchTransferAcceptanceCheck(operator, from, to, ids, amounts, data) */\n      tag_184\n        /* \"azero-swap-contracts/contracts/openzeppelin-contracts-4.6.0/contracts/token/ERC1155/ERC1155.sol\":7302:7310  operator */\n      dup2\n        /* \"azero-swap-contracts/contracts/openzeppelin-contracts-4.6.0/contracts/token/ERC1155/ERC1155.sol\":7312:7316  from */\n      dup8\n        /* \"azero-swap-contracts/contracts/openzeppelin-contracts-4.6.0/contracts/token/ERC1155/ERC1155.sol\":7318:7320  to */\n      dup8\n        /* \"azero-swap-contracts/contracts/openzeppelin-contracts-4.6.0/contracts/token/ERC1155/ERC1155.sol\":7322:7325  ids */\n      dup8\n        /* \"azero-swap-contracts/contracts/openzeppelin-contracts-4.6.0/contracts/token/ERC1155/ERC1155.sol\":7327:7334  amounts */\n      dup8\n        /* \"azero-swap-contracts/contracts/openzeppelin-contracts-4.6.0/contracts/token/ERC1155/ERC1155.sol\":7336:7340  data */\n      dup8\n        /* \"azero-swap-contracts/contracts/openzeppelin-contracts-4.6.0/contracts/token/ERC1155/ERC1155.sol\":7266:7301  _doSafeBatchTransferAcceptanceCheck */\n      tag_185\n        /* \"azero-swap-contracts/contracts/openzeppelin-contracts-4.6.0/contracts/token/ERC1155/ERC1155.sol\":7266:7341  _doSafeBatchTransferAcceptanceCheck(operator, from, to, ids, amounts, data) */\n      jump\t// in\n    tag_184:\n        /* \"azero-swap-contracts/contracts/openzeppelin-contracts-4.6.0/contracts/token/ERC1155/ERC1155.sol\":6421:7348  {... */\n      pop\n        /* \"azero-swap-contracts/contracts/openzeppelin-contracts-4.6.0/contracts/token/ERC1155/ERC1155.sol\":6233:7348  function _safeBatchTransferFrom(... */\n      pop\n      pop\n      pop\n      pop\n      pop\n      jump\t// out\n        /* \"azero-swap-contracts/contracts/openzeppelin-contracts-4.6.0/contracts/token/ERC1155/ERC1155.sol\":12773:13096  function _setApprovalForAll(... */\n    tag_142:\n        /* \"azero-swap-contracts/contracts/openzeppelin-contracts-4.6.0/contracts/token/ERC1155/ERC1155.sol\":12923:12931  operator */\n      dup2\n      sub(shl(0xa0, 0x01), 0x01)\n        /* \"azero-swap-contracts/contracts/openzeppelin-contracts-4.6.0/contracts/token/ERC1155/ERC1155.sol\":12914:12931  owner != operator */\n      and\n        /* \"azero-swap-contracts/contracts/openzeppelin-contracts-4.6.0/contracts/token/ERC1155/ERC1155.sol\":12914:12919  owner */\n      dup4\n      sub(shl(0xa0, 0x01), 0x01)\n        /* \"azero-swap-contracts/contracts/openzeppelin-contracts-4.6.0/contracts/token/ERC1155/ERC1155.sol\":12914:12931  owner != operator */\n      and\n      sub\n        /* \"azero-swap-contracts/contracts/openzeppelin-contracts-4.6.0/contracts/token/ERC1155/ERC1155.sol\":12906:12977  require(owner != operator, \"ERC1155: setting approval status for self\") */\n      tag_187\n      jumpi\n      mload(0x40)\n      shl(0xe5, 0x461bcd)\n      dup2\n      mstore\n        /* \"#utility.yul\":12527:12529   */\n      0x20\n        /* \"azero-swap-contracts/contracts/openzeppelin-contracts-4.6.0/contracts/token/ERC1155/ERC1155.sol\":12906:12977  require(owner != operator, \"ERC1155: setting approval status for self\") */\n      0x04\n      dup3\n      add\n        /* \"#utility.yul\":12509:12530   */\n      mstore\n        /* \"#utility.yul\":12566:12568   */\n      0x29\n        /* \"#utility.yul\":12546:12564   */\n      0x24\n      dup3\n      add\n        /* \"#utility.yul\":12539:12569   */\n      mstore\n        /* \"#utility.yul\":12605:12639   */\n      0x455243313135353a2073657474696e6720617070726f76616c20737461747573\n        /* \"#utility.yul\":12585:12603   */\n      0x44\n      dup3\n      add\n        /* \"#utility.yul\":12578:12640   */\n      mstore\n      shl(0xb9, 0x103337b91039b2b633)\n        /* \"#utility.yul\":12656:12674   */\n      0x64\n      dup3\n      add\n        /* \"#utility.yul\":12649:12688   */\n      mstore\n        /* \"#utility.yul\":12705:12724   */\n      0x84\n      add\n        /* \"azero-swap-contracts/contracts/openzeppelin-contracts-4.6.0/contracts/token/ERC1155/ERC1155.sol\":12906:12977  require(owner != operator, \"ERC1155: setting approval status for self\") */\n      tag_78\n        /* \"#utility.yul\":12325:12730   */\n      jump\n        /* \"azero-swap-contracts/contracts/openzeppelin-contracts-4.6.0/contracts/token/ERC1155/ERC1155.sol\":12906:12977  require(owner != operator, \"ERC1155: setting approval status for self\") */\n    tag_187:\n      sub(shl(0xa0, 0x01), 0x01)\n        /* \"azero-swap-contracts/contracts/openzeppelin-contracts-4.6.0/contracts/token/ERC1155/ERC1155.sol\":12987:13012  _operatorApprovals[owner] */\n      dup4\n      dup2\n      and\n      0x00\n      dup2\n      dup2\n      mstore\n        /* \"azero-swap-contracts/contracts/openzeppelin-contracts-4.6.0/contracts/token/ERC1155/ERC1155.sol\":12987:13005  _operatorApprovals */\n      0x01\n        /* \"azero-swap-contracts/contracts/openzeppelin-contracts-4.6.0/contracts/token/ERC1155/ERC1155.sol\":12987:13012  _operatorApprovals[owner] */\n      0x20\n      swap1\n      dup2\n      mstore\n      0x40\n      dup1\n      dup4\n      keccak256\n        /* \"azero-swap-contracts/contracts/openzeppelin-contracts-4.6.0/contracts/token/ERC1155/ERC1155.sol\":12987:13022  _operatorApprovals[owner][operator] */\n      swap5\n      dup8\n      and\n      dup1\n      dup5\n      mstore\n      swap5\n      dup3\n      mstore\n      swap2\n      dup3\n      swap1\n      keccak256\n        /* \"azero-swap-contracts/contracts/openzeppelin-contracts-4.6.0/contracts/token/ERC1155/ERC1155.sol\":12987:13033  _operatorApprovals[owner][operator] = approved */\n      dup1\n      sload\n      not(0xff)\n      and\n      dup7\n      iszero\n      iszero\n      swap1\n      dup2\n      or\n      swap1\n      swap2\n      sstore\n        /* \"azero-swap-contracts/contracts/openzeppelin-contracts-4.6.0/contracts/token/ERC1155/ERC1155.sol\":13048:13089  ApprovalForAll(owner, operator, approved) */\n      swap2\n      mload\n        /* \"#utility.yul\":1159:1200   */\n      swap2\n      dup3\n      mstore\n        /* \"azero-swap-contracts/contracts/openzeppelin-contracts-4.6.0/contracts/token/ERC1155/ERC1155.sol\":13048:13089  ApprovalForAll(owner, operator, approved) */\n      0x17307eab39ab6107e8899845ad3d59bd9653f200f220920489ca2b5937696c31\n      swap2\n        /* \"#utility.yul\":1132:1150   */\n      add\n        /* \"azero-swap-contracts/contracts/openzeppelin-contracts-4.6.0/contracts/token/ERC1155/ERC1155.sol\":13048:13089  ApprovalForAll(owner, operator, approved) */\n      mload(0x40)\n      dup1\n      swap2\n      sub\n      swap1\n      log3\n        /* \"azero-swap-contracts/contracts/openzeppelin-contracts-4.6.0/contracts/token/ERC1155/ERC1155.sol\":12773:13096  function _setApprovalForAll(... */\n      pop\n      pop\n      pop\n      jump\t// out\n        /* \"azero-swap-contracts/contracts/openzeppelin-contracts-4.6.0/contracts/token/ERC1155/ERC1155.sol\":4940:5887  function _safeTransferFrom(... */\n    tag_154:\n      sub(shl(0xa0, 0x01), 0x01)\n        /* \"azero-swap-contracts/contracts/openzeppelin-contracts-4.6.0/contracts/token/ERC1155/ERC1155.sol\":5121:5137  to != address(0) */\n      dup5\n      and\n        /* \"azero-swap-contracts/contracts/openzeppelin-contracts-4.6.0/contracts/token/ERC1155/ERC1155.sol\":5113:5179  require(to != address(0), \"ERC1155: transfer to the zero address\") */\n      tag_192\n      jumpi\n      mload(0x40)\n      shl(0xe5, 0x461bcd)\n      dup2\n      mstore\n      0x04\n      add\n      tag_78\n      swap1\n      tag_163\n      jump\t// in\n    tag_192:\n        /* \"azero-swap-contracts/contracts/openzeppelin-contracts-4.6.0/contracts/utils/Context.sol\":719:729  msg.sender */\n      caller\n        /* \"azero-swap-contracts/contracts/openzeppelin-contracts-4.6.0/contracts/token/ERC1155/ERC1155.sol\":5190:5206  address operator */\n      0x00\n        /* \"azero-swap-contracts/contracts/openzeppelin-contracts-4.6.0/contracts/token/ERC1155/ERC1155.sol\":5254:5275  _asSingletonArray(id) */\n      tag_195\n        /* \"azero-swap-contracts/contracts/openzeppelin-contracts-4.6.0/contracts/token/ERC1155/ERC1155.sol\":5272:5274  id */\n      dup6\n        /* \"azero-swap-contracts/contracts/openzeppelin-contracts-4.6.0/contracts/token/ERC1155/ERC1155.sol\":5254:5271  _asSingletonArray */\n      tag_196\n        /* \"azero-swap-contracts/contracts/openzeppelin-contracts-4.6.0/contracts/token/ERC1155/ERC1155.sol\":5254:5275  _asSingletonArray(id) */\n      jump\t// in\n    tag_195:\n        /* \"azero-swap-contracts/contracts/openzeppelin-contracts-4.6.0/contracts/token/ERC1155/ERC1155.sol\":5231:5275  uint256[] memory ids = _asSingletonArray(id) */\n      swap1\n      pop\n        /* \"azero-swap-contracts/contracts/openzeppelin-contracts-4.6.0/contracts/token/ERC1155/ERC1155.sol\":5285:5309  uint256[] memory amounts */\n      0x00\n        /* \"azero-swap-contracts/contracts/openzeppelin-contracts-4.6.0/contracts/token/ERC1155/ERC1155.sol\":5312:5337  _asSingletonArray(amount) */\n      tag_197\n        /* \"azero-swap-contracts/contracts/openzeppelin-contracts-4.6.0/contracts/token/ERC1155/ERC1155.sol\":5330:5336  amount */\n      dup6\n        /* \"azero-swap-contracts/contracts/openzeppelin-contracts-4.6.0/contracts/token/ERC1155/ERC1155.sol\":5312:5329  _asSingletonArray */\n      tag_196\n        /* \"azero-swap-contracts/contracts/openzeppelin-contracts-4.6.0/contracts/token/ERC1155/ERC1155.sol\":5312:5337  _asSingletonArray(amount) */\n      jump\t// in\n    tag_197:\n        /* \"azero-swap-contracts/contracts/openzeppelin-contracts-4.6.0/contracts/token/ERC1155/ERC1155.sol\":5285:5337  uint256[] memory amounts = _asSingletonArray(amount) */\n      swap1\n      pop\n        /* \"azero-swap-contracts/contracts/openzeppelin-contracts-4.6.0/contracts/token/ERC1155/ERC1155.sol\":5348:5408  _beforeTokenTransfer(operator, from, to, ids, amounts, data) */\n      tag_198\n        /* \"azero-swap-contracts/contracts/openzeppelin-contracts-4.6.0/contracts/token/ERC1155/ERC1155.sol\":5369:5377  operator */\n      dup4\n        /* \"azero-swap-contracts/contracts/openzeppelin-contracts-4.6.0/contracts/token/ERC1155/ERC1155.sol\":5379:5383  from */\n      dup10\n        /* \"azero-swap-contracts/contracts/openzeppelin-contracts-4.6.0/contracts/token/ERC1155/ERC1155.sol\":5385:5387  to */\n      dup10\n        /* \"azero-swap-contracts/contracts/openzeppelin-contracts-4.6.0/contracts/token/ERC1155/ERC1155.sol\":5389:5392  ids */\n      dup6\n        /* \"azero-swap-contracts/contracts/openzeppelin-contracts-4.6.0/contracts/token/ERC1155/ERC1155.sol\":5394:5401  amounts */\n      dup6\n        /* \"azero-swap-contracts/contracts/openzeppelin-contracts-4.6.0/contracts/token/ERC1155/ERC1155.sol\":5403:5407  data */\n      dup10\n        /* \"azero-swap-contracts/contracts/openzeppelin-contracts-4.6.0/contracts/token/ERC1155/ERC1155.sol\":5348:5368  _beforeTokenTransfer */\n      tag_166\n        /* \"azero-swap-contracts/contracts/openzeppelin-contracts-4.6.0/contracts/token/ERC1155/ERC1155.sol\":5348:5408  _beforeTokenTransfer(operator, from, to, ids, amounts, data) */\n      jump\t// in\n    tag_198:\n        /* \"azero-swap-contracts/contracts/openzeppelin-contracts-4.6.0/contracts/token/ERC1155/ERC1155.sol\":5419:5438  uint256 fromBalance */\n      0x00\n        /* \"azero-swap-contracts/contracts/openzeppelin-contracts-4.6.0/contracts/token/ERC1155/ERC1155.sol\":5441:5454  _balances[id] */\n      dup7\n      dup2\n      mstore\n      0x20\n      dup2\n      dup2\n      mstore\n      0x40\n      dup1\n      dup4\n      keccak256\n      sub(shl(0xa0, 0x01), 0x01)\n        /* \"azero-swap-contracts/contracts/openzeppelin-contracts-4.6.0/contracts/token/ERC1155/ERC1155.sol\":5441:5460  _balances[id][from] */\n      dup13\n      and\n      dup5\n      mstore\n      swap1\n      swap2\n      mstore\n      swap1\n      keccak256\n      sload\n        /* \"azero-swap-contracts/contracts/openzeppelin-contracts-4.6.0/contracts/token/ERC1155/ERC1155.sol\":5478:5499  fromBalance >= amount */\n      dup6\n      dup2\n      lt\n      iszero\n        /* \"azero-swap-contracts/contracts/openzeppelin-contracts-4.6.0/contracts/token/ERC1155/ERC1155.sol\":5470:5546  require(fromBalance >= amount, \"ERC1155: insufficient balance for transfer\") */\n      tag_199\n      jumpi\n      mload(0x40)\n      shl(0xe5, 0x461bcd)\n      dup2\n      mstore\n      0x04\n      add\n      tag_78\n      swap1\n      tag_176\n      jump\t// in\n    tag_199:\n        /* \"azero-swap-contracts/contracts/openzeppelin-contracts-4.6.0/contracts/token/ERC1155/ERC1155.sol\":5580:5589  _balances */\n      0x00\n        /* \"azero-swap-contracts/contracts/openzeppelin-contracts-4.6.0/contracts/token/ERC1155/ERC1155.sol\":5580:5593  _balances[id] */\n      dup8\n      dup2\n      mstore\n      0x20\n      dup2\n      dup2\n      mstore\n      0x40\n      dup1\n      dup4\n      keccak256\n      sub(shl(0xa0, 0x01), 0x01)\n        /* \"azero-swap-contracts/contracts/openzeppelin-contracts-4.6.0/contracts/token/ERC1155/ERC1155.sol\":5580:5599  _balances[id][from] */\n      dup14\n      dup2\n      and\n      dup6\n      mstore\n      swap3\n      mstore\n      dup1\n      dup4\n      keccak256\n        /* \"azero-swap-contracts/contracts/openzeppelin-contracts-4.6.0/contracts/token/ERC1155/ERC1155.sol\":5602:5622  fromBalance - amount */\n      dup10\n      dup6\n      sub\n        /* \"azero-swap-contracts/contracts/openzeppelin-contracts-4.6.0/contracts/token/ERC1155/ERC1155.sol\":5580:5622  _balances[id][from] = fromBalance - amount */\n      swap1\n      sstore\n        /* \"azero-swap-contracts/contracts/openzeppelin-contracts-4.6.0/contracts/token/ERC1155/ERC1155.sol\":5642:5659  _balances[id][to] */\n      swap1\n      dup11\n      and\n      dup3\n      mstore\n      dup2\n      keccak256\n        /* \"azero-swap-contracts/contracts/openzeppelin-contracts-4.6.0/contracts/token/ERC1155/ERC1155.sol\":5642:5669  _balances[id][to] += amount */\n      dup1\n      sload\n        /* \"azero-swap-contracts/contracts/openzeppelin-contracts-4.6.0/contracts/token/ERC1155/ERC1155.sol\":5602:5622  fromBalance - amount */\n      dup9\n      swap3\n        /* \"azero-swap-contracts/contracts/openzeppelin-contracts-4.6.0/contracts/token/ERC1155/ERC1155.sol\":5580:5589  _balances */\n      swap1\n        /* \"azero-swap-contracts/contracts/openzeppelin-contracts-4.6.0/contracts/token/ERC1155/ERC1155.sol\":5642:5669  _balances[id][to] += amount */\n      tag_201\n      swap1\n        /* \"azero-swap-contracts/contracts/openzeppelin-contracts-4.6.0/contracts/token/ERC1155/ERC1155.sol\":5602:5622  fromBalance - amount */\n      dup5\n      swap1\n        /* \"azero-swap-contracts/contracts/openzeppelin-contracts-4.6.0/contracts/token/ERC1155/ERC1155.sol\":5642:5669  _balances[id][to] += amount */\n      tag_178\n      jump\t// in\n    tag_201:\n      swap1\n      swap2\n      sstore\n      pop\n      pop\n        /* \"azero-swap-contracts/contracts/openzeppelin-contracts-4.6.0/contracts/token/ERC1155/ERC1155.sol\":5685:5731  TransferSingle(operator, from, to, id, amount) */\n      0x40\n      dup1\n      mload\n        /* \"#utility.yul\":12909:12934   */\n      dup9\n      dup2\n      mstore\n        /* \"#utility.yul\":12965:12967   */\n      0x20\n        /* \"#utility.yul\":12950:12968   */\n      dup2\n      add\n        /* \"#utility.yul\":12943:12977   */\n      dup9\n      swap1\n      mstore\n      sub(shl(0xa0, 0x01), 0x01)\n        /* \"azero-swap-contracts/contracts/openzeppelin-contracts-4.6.0/contracts/token/ERC1155/ERC1155.sol\":5685:5731  TransferSingle(operator, from, to, id, amount) */\n      dup1\n      dup12\n      and\n      swap3\n      dup13\n      dup3\n      and\n      swap3\n      swap2\n      dup9\n      and\n      swap2\n      0xc3d58168c5ae7397731d063d5bbf3d657854427343f4c083240f7aacaa2d0f62\n      swap2\n        /* \"#utility.yul\":12882:12900   */\n      add\n        /* \"azero-swap-contracts/contracts/openzeppelin-contracts-4.6.0/contracts/token/ERC1155/ERC1155.sol\":5685:5731  TransferSingle(operator, from, to, id, amount) */\n      mload(0x40)\n      dup1\n      swap2\n      sub\n      swap1\n      log4\n        /* \"azero-swap-contracts/contracts/openzeppelin-contracts-4.6.0/contracts/token/ERC1155/ERC1155.sol\":5812:5880  _doSafeTransferAcceptanceCheck(operator, from, to, id, amount, data) */\n      tag_205\n        /* \"azero-swap-contracts/contracts/openzeppelin-contracts-4.6.0/contracts/token/ERC1155/ERC1155.sol\":5843:5851  operator */\n      dup5\n        /* \"azero-swap-contracts/contracts/openzeppelin-contracts-4.6.0/contracts/token/ERC1155/ERC1155.sol\":5853:5857  from */\n      dup11\n        /* \"azero-swap-contracts/contracts/openzeppelin-contracts-4.6.0/contracts/token/ERC1155/ERC1155.sol\":5859:5861  to */\n      dup11\n        /* \"azero-swap-contracts/contracts/openzeppelin-contracts-4.6.0/contracts/token/ERC1155/ERC1155.sol\":5863:5865  id */\n      dup11\n        /* \"azero-swap-contracts/contracts/openzeppelin-contracts-4.6.0/contracts/token/ERC1155/ERC1155.sol\":5867:5873  amount */\n      dup11\n        /* \"azero-swap-contracts/contracts/openzeppelin-contracts-4.6.0/contracts/token/ERC1155/ERC1155.sol\":5875:5879  data */\n      dup11\n        /* \"azero-swap-contracts/contracts/openzeppelin-contracts-4.6.0/contracts/token/ERC1155/ERC1155.sol\":5812:5842  _doSafeTransferAcceptanceCheck */\n      tag_206\n        /* \"azero-swap-contracts/contracts/openzeppelin-contracts-4.6.0/contracts/token/ERC1155/ERC1155.sol\":5812:5880  _doSafeTransferAcceptanceCheck(operator, from, to, id, amount, data) */\n      jump\t// in\n    tag_205:\n        /* \"azero-swap-contracts/contracts/openzeppelin-contracts-4.6.0/contracts/token/ERC1155/ERC1155.sol\":5103:5887  {... */\n      pop\n      pop\n      pop\n      pop\n        /* \"azero-swap-contracts/contracts/openzeppelin-contracts-4.6.0/contracts/token/ERC1155/ERC1155.sol\":4940:5887  function _safeTransferFrom(... */\n      pop\n      pop\n      pop\n      pop\n      pop\n      jump\t// out\n        /* \"azero-swap-contracts/contracts/openzeppelin-contracts-4.6.0/contracts/token/ERC1155/extensions/ERC1155Supply.sol\":1091:1995  function _beforeTokenTransfer(... */\n    tag_166:\n      sub(shl(0xa0, 0x01), 0x01)\n        /* \"azero-swap-contracts/contracts/openzeppelin-contracts-4.6.0/contracts/token/ERC1155/extensions/ERC1155Supply.sol\":1403:1421  from == address(0) */\n      dup6\n      and\n        /* \"azero-swap-contracts/contracts/openzeppelin-contracts-4.6.0/contracts/token/ERC1155/extensions/ERC1155Supply.sol\":1399:1555  if (from == address(0)) {... */\n      tag_210\n      jumpi\n        /* \"azero-swap-contracts/contracts/openzeppelin-contracts-4.6.0/contracts/token/ERC1155/extensions/ERC1155Supply.sol\":1442:1451  uint256 i */\n      0x00\n        /* \"azero-swap-contracts/contracts/openzeppelin-contracts-4.6.0/contracts/token/ERC1155/extensions/ERC1155Supply.sol\":1437:1545  for (uint256 i = 0; i < ids.length; ++i) {... */\n    tag_211:\n        /* \"azero-swap-contracts/contracts/openzeppelin-contracts-4.6.0/contracts/token/ERC1155/extensions/ERC1155Supply.sol\":1461:1464  ids */\n      dup4\n        /* \"azero-swap-contracts/contracts/openzeppelin-contracts-4.6.0/contracts/token/ERC1155/extensions/ERC1155Supply.sol\":1461:1471  ids.length */\n      mload\n        /* \"azero-swap-contracts/contracts/openzeppelin-contracts-4.6.0/contracts/token/ERC1155/extensions/ERC1155Supply.sol\":1457:1458  i */\n      dup2\n        /* \"azero-swap-contracts/contracts/openzeppelin-contracts-4.6.0/contracts/token/ERC1155/extensions/ERC1155Supply.sol\":1457:1471  i < ids.length */\n      lt\n        /* \"azero-swap-contracts/contracts/openzeppelin-contracts-4.6.0/contracts/token/ERC1155/extensions/ERC1155Supply.sol\":1437:1545  for (uint256 i = 0; i < ids.length; ++i) {... */\n      iszero\n      tag_212\n      jumpi\n        /* \"azero-swap-contracts/contracts/openzeppelin-contracts-4.6.0/contracts/token/ERC1155/extensions/ERC1155Supply.sol\":1520:1527  amounts */\n      dup3\n        /* \"azero-swap-contracts/contracts/openzeppelin-contracts-4.6.0/contracts/token/ERC1155/extensions/ERC1155Supply.sol\":1528:1529  i */\n      dup2\n        /* \"azero-swap-contracts/contracts/openzeppelin-contracts-4.6.0/contracts/token/ERC1155/extensions/ERC1155Supply.sol\":1520:1530  amounts[i] */\n      dup2\n      mload\n      dup2\n      lt\n      tag_215\n      jumpi\n      tag_215\n      tag_124\n      jump\t// in\n    tag_215:\n      0x20\n      mul\n      0x20\n      add\n      add\n      mload\n        /* \"azero-swap-contracts/contracts/openzeppelin-contracts-4.6.0/contracts/token/ERC1155/extensions/ERC1155Supply.sol\":1496:1508  _totalSupply */\n      0x03\n        /* \"azero-swap-contracts/contracts/openzeppelin-contracts-4.6.0/contracts/token/ERC1155/extensions/ERC1155Supply.sol\":1496:1516  _totalSupply[ids[i]] */\n      0x00\n        /* \"azero-swap-contracts/contracts/openzeppelin-contracts-4.6.0/contracts/token/ERC1155/extensions/ERC1155Supply.sol\":1509:1512  ids */\n      dup7\n        /* \"azero-swap-contracts/contracts/openzeppelin-contracts-4.6.0/contracts/token/ERC1155/extensions/ERC1155Supply.sol\":1513:1514  i */\n      dup5\n        /* \"azero-swap-contracts/contracts/openzeppelin-contracts-4.6.0/contracts/token/ERC1155/extensions/ERC1155Supply.sol\":1509:1515  ids[i] */\n      dup2\n      mload\n      dup2\n      lt\n      tag_217\n      jumpi\n      tag_217\n      tag_124\n      jump\t// in\n    tag_217:\n      0x20\n      mul\n      0x20\n      add\n      add\n      mload\n        /* \"azero-swap-contracts/contracts/openzeppelin-contracts-4.6.0/contracts/token/ERC1155/extensions/ERC1155Supply.sol\":1496:1516  _totalSupply[ids[i]] */\n      dup2\n      mstore\n      0x20\n      add\n      swap1\n      dup2\n      mstore\n      0x20\n      add\n      0x00\n      keccak256\n      0x00\n        /* \"azero-swap-contracts/contracts/openzeppelin-contracts-4.6.0/contracts/token/ERC1155/extensions/ERC1155Supply.sol\":1496:1530  _totalSupply[ids[i]] += amounts[i] */\n      dup3\n      dup3\n      sload\n      tag_218\n      swap2\n      swap1\n      tag_178\n      jump\t// in\n    tag_218:\n      swap1\n      swap2\n      sstore\n      pop\n        /* \"azero-swap-contracts/contracts/openzeppelin-contracts-4.6.0/contracts/token/ERC1155/extensions/ERC1155Supply.sol\":1473:1476  ++i */\n      tag_219\n      swap1\n      pop\n      dup2\n      tag_130\n      jump\t// in\n    tag_219:\n      swap1\n      pop\n        /* \"azero-swap-contracts/contracts/openzeppelin-contracts-4.6.0/contracts/token/ERC1155/extensions/ERC1155Supply.sol\":1437:1545  for (uint256 i = 0; i < ids.length; ++i) {... */\n      jump(tag_211)\n    tag_212:\n      pop\n        /* \"azero-swap-contracts/contracts/openzeppelin-contracts-4.6.0/contracts/token/ERC1155/extensions/ERC1155Supply.sol\":1399:1555  if (from == address(0)) {... */\n    tag_210:\n      sub(shl(0xa0, 0x01), 0x01)\n        /* \"azero-swap-contracts/contracts/openzeppelin-contracts-4.6.0/contracts/token/ERC1155/extensions/ERC1155Supply.sol\":1569:1585  to == address(0) */\n      dup5\n      and\n        /* \"azero-swap-contracts/contracts/openzeppelin-contracts-4.6.0/contracts/token/ERC1155/extensions/ERC1155Supply.sol\":1565:1989  if (to == address(0)) {... */\n      tag_184\n      jumpi\n        /* \"azero-swap-contracts/contracts/openzeppelin-contracts-4.6.0/contracts/token/ERC1155/extensions/ERC1155Supply.sol\":1606:1615  uint256 i */\n      0x00\n        /* \"azero-swap-contracts/contracts/openzeppelin-contracts-4.6.0/contracts/token/ERC1155/extensions/ERC1155Supply.sol\":1601:1979  for (uint256 i = 0; i < ids.length; ++i) {... */\n    tag_221:\n        /* \"azero-swap-contracts/contracts/openzeppelin-contracts-4.6.0/contracts/token/ERC1155/extensions/ERC1155Supply.sol\":1625:1628  ids */\n      dup4\n        /* \"azero-swap-contracts/contracts/openzeppelin-contracts-4.6.0/contracts/token/ERC1155/extensions/ERC1155Supply.sol\":1625:1635  ids.length */\n      mload\n        /* \"azero-swap-contracts/contracts/openzeppelin-contracts-4.6.0/contracts/token/ERC1155/extensions/ERC1155Supply.sol\":1621:1622  i */\n      dup2\n        /* \"azero-swap-contracts/contracts/openzeppelin-contracts-4.6.0/contracts/token/ERC1155/extensions/ERC1155Supply.sol\":1621:1635  i < ids.length */\n      lt\n        /* \"azero-swap-contracts/contracts/openzeppelin-contracts-4.6.0/contracts/token/ERC1155/extensions/ERC1155Supply.sol\":1601:1979  for (uint256 i = 0; i < ids.length; ++i) {... */\n      iszero\n      tag_222\n      jumpi\n        /* \"azero-swap-contracts/contracts/openzeppelin-contracts-4.6.0/contracts/token/ERC1155/extensions/ERC1155Supply.sol\":1660:1670  uint256 id */\n      0x00\n        /* \"azero-swap-contracts/contracts/openzeppelin-contracts-4.6.0/contracts/token/ERC1155/extensions/ERC1155Supply.sol\":1673:1676  ids */\n      dup5\n        /* \"azero-swap-contracts/contracts/openzeppelin-contracts-4.6.0/contracts/token/ERC1155/extensions/ERC1155Supply.sol\":1677:1678  i */\n      dup3\n        /* \"azero-swap-contracts/contracts/openzeppelin-contracts-4.6.0/contracts/token/ERC1155/extensions/ERC1155Supply.sol\":1673:1679  ids[i] */\n      dup2\n      mload\n      dup2\n      lt\n      tag_225\n      jumpi\n      tag_225\n      tag_124\n      jump\t// in\n    tag_225:\n      0x20\n      mul\n      0x20\n      add\n      add\n      mload\n        /* \"azero-swap-contracts/contracts/openzeppelin-contracts-4.6.0/contracts/token/ERC1155/extensions/ERC1155Supply.sol\":1660:1679  uint256 id = ids[i] */\n      swap1\n      pop\n        /* \"azero-swap-contracts/contracts/openzeppelin-contracts-4.6.0/contracts/token/ERC1155/extensions/ERC1155Supply.sol\":1697:1711  uint256 amount */\n      0x00\n        /* \"azero-swap-contracts/contracts/openzeppelin-contracts-4.6.0/contracts/token/ERC1155/extensions/ERC1155Supply.sol\":1714:1721  amounts */\n      dup5\n        /* \"azero-swap-contracts/contracts/openzeppelin-contracts-4.6.0/contracts/token/ERC1155/extensions/ERC1155Supply.sol\":1722:1723  i */\n      dup4\n        /* \"azero-swap-contracts/contracts/openzeppelin-contracts-4.6.0/contracts/token/ERC1155/extensions/ERC1155Supply.sol\":1714:1724  amounts[i] */\n      dup2\n      mload\n      dup2\n      lt\n      tag_227\n      jumpi\n      tag_227\n      tag_124\n      jump\t// in\n    tag_227:\n      0x20\n      mul\n      0x20\n      add\n      add\n      mload\n        /* \"azero-swap-contracts/contracts/openzeppelin-contracts-4.6.0/contracts/token/ERC1155/extensions/ERC1155Supply.sol\":1697:1724  uint256 amount = amounts[i] */\n      swap1\n      pop\n        /* \"azero-swap-contracts/contracts/openzeppelin-contracts-4.6.0/contracts/token/ERC1155/extensions/ERC1155Supply.sol\":1742:1756  uint256 supply */\n      0x00\n        /* \"azero-swap-contracts/contracts/openzeppelin-contracts-4.6.0/contracts/token/ERC1155/extensions/ERC1155Supply.sol\":1759:1771  _totalSupply */\n      0x03\n        /* \"azero-swap-contracts/contracts/openzeppelin-contracts-4.6.0/contracts/token/ERC1155/extensions/ERC1155Supply.sol\":1759:1775  _totalSupply[id] */\n      0x00\n        /* \"azero-swap-contracts/contracts/openzeppelin-contracts-4.6.0/contracts/token/ERC1155/extensions/ERC1155Supply.sol\":1772:1774  id */\n      dup5\n        /* \"azero-swap-contracts/contracts/openzeppelin-contracts-4.6.0/contracts/token/ERC1155/extensions/ERC1155Supply.sol\":1759:1775  _totalSupply[id] */\n      dup2\n      mstore\n      0x20\n      add\n      swap1\n      dup2\n      mstore\n      0x20\n      add\n      0x00\n      keccak256\n      sload\n        /* \"azero-swap-contracts/contracts/openzeppelin-contracts-4.6.0/contracts/token/ERC1155/extensions/ERC1155Supply.sol\":1742:1775  uint256 supply = _totalSupply[id] */\n      swap1\n      pop\n        /* \"azero-swap-contracts/contracts/openzeppelin-contracts-4.6.0/contracts/token/ERC1155/extensions/ERC1155Supply.sol\":1811:1817  amount */\n      dup2\n        /* \"azero-swap-contracts/contracts/openzeppelin-contracts-4.6.0/contracts/token/ERC1155/extensions/ERC1155Supply.sol\":1801:1807  supply */\n      dup2\n        /* \"azero-swap-contracts/contracts/openzeppelin-contracts-4.6.0/contracts/token/ERC1155/extensions/ERC1155Supply.sol\":1801:1817  supply >= amount */\n      lt\n      iszero\n        /* \"azero-swap-contracts/contracts/openzeppelin-contracts-4.6.0/contracts/token/ERC1155/extensions/ERC1155Supply.sol\":1793:1862  require(supply >= amount, \"ERC1155: burn amount exceeds totalSupply\") */\n      tag_228\n      jumpi\n      mload(0x40)\n      shl(0xe5, 0x461bcd)\n      dup2\n      mstore\n        /* \"#utility.yul\":13190:13192   */\n      0x20\n        /* \"azero-swap-contracts/contracts/openzeppelin-contracts-4.6.0/contracts/token/ERC1155/extensions/ERC1155Supply.sol\":1793:1862  require(supply >= amount, \"ERC1155: burn amount exceeds totalSupply\") */\n      0x04\n      dup3\n      add\n        /* \"#utility.yul\":13172:13193   */\n      mstore\n        /* \"#utility.yul\":13229:13231   */\n      0x28\n        /* \"#utility.yul\":13209:13227   */\n      0x24\n      dup3\n      add\n        /* \"#utility.yul\":13202:13232   */\n      mstore\n        /* \"#utility.yul\":13268:13302   */\n      0x455243313135353a206275726e20616d6f756e74206578636565647320746f74\n        /* \"#utility.yul\":13248:13266   */\n      0x44\n      dup3\n      add\n        /* \"#utility.yul\":13241:13303   */\n      mstore\n      shl(0xc0, 0x616c537570706c79)\n        /* \"#utility.yul\":13319:13337   */\n      0x64\n      dup3\n      add\n        /* \"#utility.yul\":13312:13350   */\n      mstore\n        /* \"#utility.yul\":13367:13386   */\n      0x84\n      add\n        /* \"azero-swap-contracts/contracts/openzeppelin-contracts-4.6.0/contracts/token/ERC1155/extensions/ERC1155Supply.sol\":1793:1862  require(supply >= amount, \"ERC1155: burn amount exceeds totalSupply\") */\n      tag_78\n        /* \"#utility.yul\":12988:13392   */\n      jump\n        /* \"azero-swap-contracts/contracts/openzeppelin-contracts-4.6.0/contracts/token/ERC1155/extensions/ERC1155Supply.sol\":1793:1862  require(supply >= amount, \"ERC1155: burn amount exceeds totalSupply\") */\n    tag_228:\n        /* \"azero-swap-contracts/contracts/openzeppelin-contracts-4.6.0/contracts/token/ERC1155/extensions/ERC1155Supply.sol\":1912:1928  _totalSupply[id] */\n      0x00\n      swap3\n      dup4\n      mstore\n        /* \"azero-swap-contracts/contracts/openzeppelin-contracts-4.6.0/contracts/token/ERC1155/extensions/ERC1155Supply.sol\":1912:1924  _totalSupply */\n      0x03\n        /* \"azero-swap-contracts/contracts/openzeppelin-contracts-4.6.0/contracts/token/ERC1155/extensions/ERC1155Supply.sol\":1912:1928  _totalSupply[id] */\n      0x20\n      mstore\n      0x40\n      swap1\n      swap3\n      keccak256\n        /* \"azero-swap-contracts/contracts/openzeppelin-contracts-4.6.0/contracts/token/ERC1155/extensions/ERC1155Supply.sol\":1931:1946  supply - amount */\n      swap2\n      sub\n        /* \"azero-swap-contracts/contracts/openzeppelin-contracts-4.6.0/contracts/token/ERC1155/extensions/ERC1155Supply.sol\":1912:1946  _totalSupply[id] = supply - amount */\n      swap1\n      sstore\n        /* \"azero-swap-contracts/contracts/openzeppelin-contracts-4.6.0/contracts/token/ERC1155/extensions/ERC1155Supply.sol\":1637:1640  ++i */\n      tag_231\n      dup2\n      tag_130\n      jump\t// in\n    tag_231:\n      swap1\n      pop\n        /* \"azero-swap-contracts/contracts/openzeppelin-contracts-4.6.0/contracts/token/ERC1155/extensions/ERC1155Supply.sol\":1601:1979  for (uint256 i = 0; i < ids.length; ++i) {... */\n      jump(tag_221)\n    tag_222:\n      pop\n        /* \"azero-swap-contracts/contracts/openzeppelin-contracts-4.6.0/contracts/token/ERC1155/extensions/ERC1155Supply.sol\":1091:1995  function _beforeTokenTransfer(... */\n      pop\n      pop\n      pop\n      pop\n      pop\n      pop\n      jump\t// out\n        /* \"azero-swap-contracts/contracts/openzeppelin-contracts-4.6.0/contracts/token/ERC1155/ERC1155.sol\":16127:16919  function _doSafeBatchTransferAcceptanceCheck(... */\n    tag_185:\n      sub(shl(0xa0, 0x01), 0x01)\n        /* \"azero-swap-contracts/contracts/openzeppelin-contracts-4.6.0/contracts/token/ERC1155/ERC1155.sol\":16359:16372  to.isContract */\n      dup5\n      and\n        /* \"azero-swap-contracts/contracts/openzeppelin-contracts-4.6.0/contracts/utils/Address.sol\":1465:1484  account.code.length */\n      extcodesize\n        /* \"azero-swap-contracts/contracts/openzeppelin-contracts-4.6.0/contracts/utils/Address.sol\":1465:1488  account.code.length > 0 */\n      iszero\n        /* \"azero-swap-contracts/contracts/openzeppelin-contracts-4.6.0/contracts/token/ERC1155/ERC1155.sol\":16355:16913  if (to.isContract()) {... */\n      tag_184\n      jumpi\n        /* \"azero-swap-contracts/contracts/openzeppelin-contracts-4.6.0/contracts/token/ERC1155/ERC1155.sol\":16394:16473  IERC1155Receiver(to).onERC1155BatchReceived(operator, from, ids, amounts, data) */\n      mload(0x40)\n      shl(0xe0, 0xbc197c81)\n      dup2\n      mstore\n      sub(shl(0xa0, 0x01), 0x01)\n        /* \"azero-swap-contracts/contracts/openzeppelin-contracts-4.6.0/contracts/token/ERC1155/ERC1155.sol\":16394:16437  IERC1155Receiver(to).onERC1155BatchReceived */\n      dup6\n      and\n      swap1\n      0xbc197c81\n      swap1\n        /* \"azero-swap-contracts/contracts/openzeppelin-contracts-4.6.0/contracts/token/ERC1155/ERC1155.sol\":16394:16473  IERC1155Receiver(to).onERC1155BatchReceived(operator, from, ids, amounts, data) */\n      tag_237\n      swap1\n        /* \"azero-swap-contracts/contracts/openzeppelin-contracts-4.6.0/contracts/token/ERC1155/ERC1155.sol\":16438:16446  operator */\n      dup10\n      swap1\n        /* \"azero-swap-contracts/contracts/openzeppelin-contracts-4.6.0/contracts/token/ERC1155/ERC1155.sol\":16448:16452  from */\n      dup10\n      swap1\n        /* \"azero-swap-contracts/contracts/openzeppelin-contracts-4.6.0/contracts/token/ERC1155/ERC1155.sol\":16454:16457  ids */\n      dup9\n      swap1\n        /* \"azero-swap-contracts/contracts/openzeppelin-contracts-4.6.0/contracts/token/ERC1155/ERC1155.sol\":16459:16466  amounts */\n      dup9\n      swap1\n        /* \"azero-swap-contracts/contracts/openzeppelin-contracts-4.6.0/contracts/token/ERC1155/ERC1155.sol\":16468:16472  data */\n      dup9\n      swap1\n        /* \"azero-swap-contracts/contracts/openzeppelin-contracts-4.6.0/contracts/token/ERC1155/ERC1155.sol\":16394:16473  IERC1155Receiver(to).onERC1155BatchReceived(operator, from, ids, amounts, data) */\n      0x04\n      add\n      tag_238\n      jump\t// in\n    tag_237:\n      0x20\n      mload(0x40)\n      dup1\n      dup4\n      sub\n      dup2\n      0x00\n      dup8\n      gas\n      call\n      swap3\n      pop\n      pop\n      pop\n      dup1\n      iszero\n      tag_239\n      jumpi\n      pop\n      0x40\n      dup1\n      mload\n      0x1f\n      returndatasize\n      swap1\n      dup2\n      add\n      not(0x1f)\n      and\n      dup3\n      add\n      swap1\n      swap3\n      mstore\n      tag_240\n      swap2\n      dup2\n      add\n      swap1\n      tag_241\n      jump\t// in\n    tag_240:\n      0x01\n    tag_239:\n        /* \"azero-swap-contracts/contracts/openzeppelin-contracts-4.6.0/contracts/token/ERC1155/ERC1155.sol\":16390:16903  try IERC1155Receiver(to).onERC1155BatchReceived(operator, from, ids, amounts, data) returns (... */\n      tag_242\n      jumpi\n      tag_246\n      tag_247\n      jump\t// in\n    tag_246:\n      dup1\n      0x08c379a0\n      sub\n      tag_245\n      jumpi\n      pop\n      tag_248\n      tag_249\n      jump\t// in\n    tag_248:\n      dup1\n      tag_250\n      jumpi\n      pop\n      jump(tag_244)\n    tag_250:\n        /* \"azero-swap-contracts/contracts/openzeppelin-contracts-4.6.0/contracts/token/ERC1155/ERC1155.sol\":16779:16785  reason */\n      dup1\n        /* \"azero-swap-contracts/contracts/openzeppelin-contracts-4.6.0/contracts/token/ERC1155/ERC1155.sol\":16772:16786  revert(reason) */\n      mload(0x40)\n      shl(0xe5, 0x461bcd)\n      dup2\n      mstore\n      0x04\n      add\n      tag_78\n      swap2\n      swap1\n      tag_33\n      jump\t// in\n        /* \"azero-swap-contracts/contracts/openzeppelin-contracts-4.6.0/contracts/token/ERC1155/ERC1155.sol\":16390:16903  try IERC1155Receiver(to).onERC1155BatchReceived(operator, from, ids, amounts, data) returns (... */\n    tag_245:\n      pop\n    tag_244:\n        /* \"azero-swap-contracts/contracts/openzeppelin-contracts-4.6.0/contracts/token/ERC1155/ERC1155.sol\":16826:16888  revert(\"ERC1155: transfer to non ERC1155Receiver implementer\") */\n      mload(0x40)\n      shl(0xe5, 0x461bcd)\n      dup2\n      mstore\n        /* \"#utility.yul\":15545:15547   */\n      0x20\n        /* \"azero-swap-contracts/contracts/openzeppelin-contracts-4.6.0/contracts/token/ERC1155/ERC1155.sol\":16826:16888  revert(\"ERC1155: transfer to non ERC1155Receiver implementer\") */\n      0x04\n      dup3\n      add\n        /* \"#utility.yul\":15527:15548   */\n      mstore\n        /* \"#utility.yul\":15584:15586   */\n      0x34\n        /* \"#utility.yul\":15564:15582   */\n      0x24\n      dup3\n      add\n        /* \"#utility.yul\":15557:15587   */\n      mstore\n        /* \"#utility.yul\":15623:15657   */\n      0x455243313135353a207472616e7366657220746f206e6f6e2045524331313535\n        /* \"#utility.yul\":15603:15621   */\n      0x44\n      dup3\n      add\n        /* \"#utility.yul\":15596:15658   */\n      mstore\n      shl(0x61, 0x2932b1b2b4bb32b91034b6b83632b6b2b73a32b9)\n        /* \"#utility.yul\":15674:15692   */\n      0x64\n      dup3\n      add\n        /* \"#utility.yul\":15667:15717   */\n      mstore\n        /* \"#utility.yul\":15734:15753   */\n      0x84\n      add\n        /* \"azero-swap-contracts/contracts/openzeppelin-contracts-4.6.0/contracts/token/ERC1155/ERC1155.sol\":16826:16888  revert(\"ERC1155: transfer to non ERC1155Receiver implementer\") */\n      tag_78\n        /* \"#utility.yul\":15343:15759   */\n      jump\n        /* \"azero-swap-contracts/contracts/openzeppelin-contracts-4.6.0/contracts/token/ERC1155/ERC1155.sol\":16390:16903  try IERC1155Receiver(to).onERC1155BatchReceived(operator, from, ids, amounts, data) returns (... */\n    tag_242:\n      not(sub(shl(0xe0, 0x01), 0x01))\n        /* \"azero-swap-contracts/contracts/openzeppelin-contracts-4.6.0/contracts/token/ERC1155/ERC1155.sol\":16552:16612  response != IERC1155Receiver.onERC1155BatchReceived.selector */\n      dup2\n      and\n      shl(0xe0, 0xbc197c81)\n      eq\n        /* \"azero-swap-contracts/contracts/openzeppelin-contracts-4.6.0/contracts/token/ERC1155/ERC1155.sol\":16548:16705  if (response != IERC1155Receiver.onERC1155BatchReceived.selector) {... */\n      tag_222\n      jumpi\n        /* \"azero-swap-contracts/contracts/openzeppelin-contracts-4.6.0/contracts/token/ERC1155/ERC1155.sol\":16636:16686  revert(\"ERC1155: ERC1155Receiver rejected tokens\") */\n      mload(0x40)\n      shl(0xe5, 0x461bcd)\n      dup2\n      mstore\n      0x04\n      add\n      tag_78\n      swap1\n      tag_257\n      jump\t// in\n        /* \"azero-swap-contracts/contracts/openzeppelin-contracts-4.6.0/contracts/token/ERC1155/ERC1155.sol\":16925:17118  function _asSingletonArray(uint256 element) private pure returns (uint256[] memory) {... */\n    tag_196:\n        /* \"azero-swap-contracts/contracts/openzeppelin-contracts-4.6.0/contracts/token/ERC1155/ERC1155.sol\":17044:17060  new uint256[](1) */\n      0x40\n      dup1\n      mload\n        /* \"azero-swap-contracts/contracts/openzeppelin-contracts-4.6.0/contracts/token/ERC1155/ERC1155.sol\":17058:17059  1 */\n      0x01\n        /* \"azero-swap-contracts/contracts/openzeppelin-contracts-4.6.0/contracts/token/ERC1155/ERC1155.sol\":17044:17060  new uint256[](1) */\n      dup1\n      dup3\n      mstore\n      dup2\n      dup4\n      add\n      swap1\n      swap3\n      mstore\n        /* \"azero-swap-contracts/contracts/openzeppelin-contracts-4.6.0/contracts/token/ERC1155/ERC1155.sol\":16991:17007  uint256[] memory */\n      0x60\n      swap2\n        /* \"azero-swap-contracts/contracts/openzeppelin-contracts-4.6.0/contracts/token/ERC1155/ERC1155.sol\":17019:17041  uint256[] memory array */\n      0x00\n      swap2\n        /* \"azero-swap-contracts/contracts/openzeppelin-contracts-4.6.0/contracts/token/ERC1155/ERC1155.sol\":17044:17060  new uint256[](1) */\n      swap1\n      0x20\n      dup1\n      dup4\n      add\n      swap1\n      dup1\n      calldatasize\n      dup4\n      calldatacopy\n      add\n      swap1\n      pop\n      pop\n        /* \"azero-swap-contracts/contracts/openzeppelin-contracts-4.6.0/contracts/token/ERC1155/ERC1155.sol\":17019:17060  uint256[] memory array = new uint256[](1) */\n      swap1\n      pop\n        /* \"azero-swap-contracts/contracts/openzeppelin-contracts-4.6.0/contracts/token/ERC1155/ERC1155.sol\":17081:17088  element */\n      dup3\n        /* \"azero-swap-contracts/contracts/openzeppelin-contracts-4.6.0/contracts/token/ERC1155/ERC1155.sol\":17070:17075  array */\n      dup2\n        /* \"azero-swap-contracts/contracts/openzeppelin-contracts-4.6.0/contracts/token/ERC1155/ERC1155.sol\":17076:17077  0 */\n      0x00\n        /* \"azero-swap-contracts/contracts/openzeppelin-contracts-4.6.0/contracts/token/ERC1155/ERC1155.sol\":17070:17078  array[0] */\n      dup2\n      mload\n      dup2\n      lt\n      tag_263\n      jumpi\n      tag_263\n      tag_124\n      jump\t// in\n    tag_263:\n      0x20\n      swap1\n      dup2\n      mul\n      swap2\n      swap1\n      swap2\n      add\n      add\n        /* \"azero-swap-contracts/contracts/openzeppelin-contracts-4.6.0/contracts/token/ERC1155/ERC1155.sol\":17070:17088  array[0] = element */\n      mstore\n        /* \"azero-swap-contracts/contracts/openzeppelin-contracts-4.6.0/contracts/token/ERC1155/ERC1155.sol\":17106:17111  array */\n      swap3\n        /* \"azero-swap-contracts/contracts/openzeppelin-contracts-4.6.0/contracts/token/ERC1155/ERC1155.sol\":16925:17118  function _asSingletonArray(uint256 element) private pure returns (uint256[] memory) {... */\n      swap2\n      pop\n      pop\n      jump\t// out\n        /* \"azero-swap-contracts/contracts/openzeppelin-contracts-4.6.0/contracts/token/ERC1155/ERC1155.sol\":15396:16121  function _doSafeTransferAcceptanceCheck(... */\n    tag_206:\n      sub(shl(0xa0, 0x01), 0x01)\n        /* \"azero-swap-contracts/contracts/openzeppelin-contracts-4.6.0/contracts/token/ERC1155/ERC1155.sol\":15603:15616  to.isContract */\n      dup5\n      and\n        /* \"azero-swap-contracts/contracts/openzeppelin-contracts-4.6.0/contracts/utils/Address.sol\":1465:1484  account.code.length */\n      extcodesize\n        /* \"azero-swap-contracts/contracts/openzeppelin-contracts-4.6.0/contracts/utils/Address.sol\":1465:1488  account.code.length > 0 */\n      iszero\n        /* \"azero-swap-contracts/contracts/openzeppelin-contracts-4.6.0/contracts/token/ERC1155/ERC1155.sol\":15599:16115  if (to.isContract()) {... */\n      tag_184\n      jumpi\n        /* \"azero-swap-contracts/contracts/openzeppelin-contracts-4.6.0/contracts/token/ERC1155/ERC1155.sol\":15638:15710  IERC1155Receiver(to).onERC1155Received(operator, from, id, amount, data) */\n      mload(0x40)\n      shl(0xe0, 0xf23a6e61)\n      dup2\n      mstore\n      sub(shl(0xa0, 0x01), 0x01)\n        /* \"azero-swap-contracts/contracts/openzeppelin-contracts-4.6.0/contracts/token/ERC1155/ERC1155.sol\":15638:15676  IERC1155Receiver(to).onERC1155Received */\n      dup6\n      and\n      swap1\n      0xf23a6e61\n      swap1\n        /* \"azero-swap-contracts/contracts/openzeppelin-contracts-4.6.0/contracts/token/ERC1155/ERC1155.sol\":15638:15710  IERC1155Receiver(to).onERC1155Received(operator, from, id, amount, data) */\n      tag_267\n      swap1\n        /* \"azero-swap-contracts/contracts/openzeppelin-contracts-4.6.0/contracts/token/ERC1155/ERC1155.sol\":15677:15685  operator */\n      dup10\n      swap1\n        /* \"azero-swap-contracts/contracts/openzeppelin-contracts-4.6.0/contracts/token/ERC1155/ERC1155.sol\":15687:15691  from */\n      dup10\n      swap1\n        /* \"azero-swap-contracts/contracts/openzeppelin-contracts-4.6.0/contracts/token/ERC1155/ERC1155.sol\":15693:15695  id */\n      dup9\n      swap1\n        /* \"azero-swap-contracts/contracts/openzeppelin-contracts-4.6.0/contracts/token/ERC1155/ERC1155.sol\":15697:15703  amount */\n      dup9\n      swap1\n        /* \"azero-swap-contracts/contracts/openzeppelin-contracts-4.6.0/contracts/token/ERC1155/ERC1155.sol\":15705:15709  data */\n      dup9\n      swap1\n        /* \"azero-swap-contracts/contracts/openzeppelin-contracts-4.6.0/contracts/token/ERC1155/ERC1155.sol\":15638:15710  IERC1155Receiver(to).onERC1155Received(operator, from, id, amount, data) */\n      0x04\n      add\n      tag_268\n      jump\t// in\n    tag_267:\n      0x20\n      mload(0x40)\n      dup1\n      dup4\n      sub\n      dup2\n      0x00\n      dup8\n      gas\n      call\n      swap3\n      pop\n      pop\n      pop\n      dup1\n      iszero\n      tag_269\n      jumpi\n      pop\n      0x40\n      dup1\n      mload\n      0x1f\n      returndatasize\n      swap1\n      dup2\n      add\n      not(0x1f)\n      and\n      dup3\n      add\n      swap1\n      swap3\n      mstore\n      tag_270\n      swap2\n      dup2\n      add\n      swap1\n      tag_241\n      jump\t// in\n    tag_270:\n      0x01\n    tag_269:\n        /* \"azero-swap-contracts/contracts/openzeppelin-contracts-4.6.0/contracts/token/ERC1155/ERC1155.sol\":15634:16105  try IERC1155Receiver(to).onERC1155Received(operator, from, id, amount, data) returns (bytes4 response) {... */\n      tag_271\n      jumpi\n      tag_246\n      tag_247\n      jump\t// in\n    tag_271:\n      not(sub(shl(0xe0, 0x01), 0x01))\n        /* \"azero-swap-contracts/contracts/openzeppelin-contracts-4.6.0/contracts/token/ERC1155/ERC1155.sol\":15759:15814  response != IERC1155Receiver.onERC1155Received.selector */\n      dup2\n      and\n      shl(0xe0, 0xf23a6e61)\n      eq\n        /* \"azero-swap-contracts/contracts/openzeppelin-contracts-4.6.0/contracts/token/ERC1155/ERC1155.sol\":15755:15907  if (response != IERC1155Receiver.onERC1155Received.selector) {... */\n      tag_222\n      jumpi\n        /* \"azero-swap-contracts/contracts/openzeppelin-contracts-4.6.0/contracts/token/ERC1155/ERC1155.sol\":15838:15888  revert(\"ERC1155: ERC1155Receiver rejected tokens\") */\n      mload(0x40)\n      shl(0xe5, 0x461bcd)\n      dup2\n      mstore\n      0x04\n      add\n      tag_78\n      swap1\n      tag_257\n      jump\t// in\n        /* \"#utility.yul\":14:187   */\n    tag_285:\n        /* \"#utility.yul\":82:102   */\n      dup1\n      calldataload\n      sub(shl(0xa0, 0x01), 0x01)\n        /* \"#utility.yul\":131:162   */\n      dup2\n      and\n        /* \"#utility.yul\":121:163   */\n      dup2\n      eq\n        /* \"#utility.yul\":111:181   */\n      tag_296\n      jumpi\n        /* \"#utility.yul\":177:178   */\n      0x00\n        /* \"#utility.yul\":174:175   */\n      dup1\n        /* \"#utility.yul\":167:179   */\n      revert\n        /* \"#utility.yul\":111:181   */\n    tag_296:\n        /* \"#utility.yul\":14:187   */\n      swap2\n      swap1\n      pop\n      jump\t// out\n        /* \"#utility.yul\":192:446   */\n    tag_20:\n        /* \"#utility.yul\":260:266   */\n      0x00\n        /* \"#utility.yul\":268:274   */\n      dup1\n        /* \"#utility.yul\":321:323   */\n      0x40\n        /* \"#utility.yul\":309:318   */\n      dup4\n        /* \"#utility.yul\":300:307   */\n      dup6\n        /* \"#utility.yul\":296:319   */\n      sub\n        /* \"#utility.yul\":292:324   */\n      slt\n        /* \"#utility.yul\":289:341   */\n      iszero\n      tag_298\n      jumpi\n        /* \"#utility.yul\":337:338   */\n      0x00\n        /* \"#utility.yul\":334:335   */\n      dup1\n        /* \"#utility.yul\":327:339   */\n      revert\n        /* \"#utility.yul\":289:341   */\n    tag_298:\n        /* \"#utility.yul\":360:389   */\n      tag_299\n        /* \"#utility.yul\":379:388   */\n      dup4\n        /* \"#utility.yul\":360:389   */\n      tag_285\n      jump\t// in\n    tag_299:\n        /* \"#utility.yul\":350:389   */\n      swap5\n        /* \"#utility.yul\":436:438   */\n      0x20\n        /* \"#utility.yul\":421:439   */\n      swap4\n      swap1\n      swap4\n      add\n        /* \"#utility.yul\":408:440   */\n      calldataload\n      swap4\n      pop\n      pop\n      pop\n        /* \"#utility.yul\":192:446   */\n      jump\t// out\n        /* \"#utility.yul\":633:764   */\n    tag_286:\n      not(sub(shl(0xe0, 0x01), 0x01))\n        /* \"#utility.yul\":707:739   */\n      dup2\n      and\n        /* \"#utility.yul\":697:740   */\n      dup2\n      eq\n        /* \"#utility.yul\":687:758   */\n      tag_302\n      jumpi\n        /* \"#utility.yul\":754:755   */\n      0x00\n        /* \"#utility.yul\":751:752   */\n      dup1\n        /* \"#utility.yul\":744:756   */\n      revert\n        /* \"#utility.yul\":687:758   */\n    tag_302:\n        /* \"#utility.yul\":633:764   */\n      pop\n      jump\t// out\n        /* \"#utility.yul\":769:1014   */\n    tag_26:\n        /* \"#utility.yul\":827:833   */\n      0x00\n        /* \"#utility.yul\":880:882   */\n      0x20\n        /* \"#utility.yul\":868:877   */\n      dup3\n        /* \"#utility.yul\":859:866   */\n      dup5\n        /* \"#utility.yul\":855:878   */\n      sub\n        /* \"#utility.yul\":851:883   */\n      slt\n        /* \"#utility.yul\":848:900   */\n      iszero\n      tag_304\n      jumpi\n        /* \"#utility.yul\":896:897   */\n      0x00\n        /* \"#utility.yul\":893:894   */\n      dup1\n        /* \"#utility.yul\":886:898   */\n      revert\n        /* \"#utility.yul\":848:900   */\n    tag_304:\n        /* \"#utility.yul\":935:944   */\n      dup2\n        /* \"#utility.yul\":922:945   */\n      calldataload\n        /* \"#utility.yul\":954:984   */\n      tag_305\n        /* \"#utility.yul\":978:983   */\n      dup2\n        /* \"#utility.yul\":954:984   */\n      tag_286\n      jump\t// in\n    tag_305:\n        /* \"#utility.yul\":1003:1008   */\n      swap4\n        /* \"#utility.yul\":769:1014   */\n      swap3\n      pop\n      pop\n      pop\n      jump\t// out\n        /* \"#utility.yul\":1211:1683   */\n    tag_287:\n        /* \"#utility.yul\":1253:1256   */\n      0x00\n        /* \"#utility.yul\":1291:1296   */\n      dup2\n        /* \"#utility.yul\":1285:1297   */\n      mload\n        /* \"#utility.yul\":1318:1324   */\n      dup1\n        /* \"#utility.yul\":1313:1316   */\n      dup5\n        /* \"#utility.yul\":1306:1325   */\n      mstore\n        /* \"#utility.yul\":1343:1344   */\n      0x00\n        /* \"#utility.yul\":1353:1515   */\n    tag_308:\n        /* \"#utility.yul\":1367:1373   */\n      dup2\n        /* \"#utility.yul\":1364:1365   */\n      dup2\n        /* \"#utility.yul\":1361:1374   */\n      lt\n        /* \"#utility.yul\":1353:1515   */\n      iszero\n      tag_310\n      jumpi\n        /* \"#utility.yul\":1429:1433   */\n      0x20\n        /* \"#utility.yul\":1485:1498   */\n      dup2\n      dup6\n      add\n        /* \"#utility.yul\":1481:1503   */\n      dup2\n      add\n        /* \"#utility.yul\":1475:1504   */\n      mload\n        /* \"#utility.yul\":1457:1468   */\n      dup7\n      dup4\n      add\n        /* \"#utility.yul\":1453:1473   */\n      dup3\n      add\n        /* \"#utility.yul\":1446:1505   */\n      mstore\n        /* \"#utility.yul\":1382:1394   */\n      add\n        /* \"#utility.yul\":1353:1515   */\n      jump(tag_308)\n    tag_310:\n        /* \"#utility.yul\":1533:1539   */\n      dup2\n        /* \"#utility.yul\":1530:1531   */\n      dup2\n        /* \"#utility.yul\":1527:1540   */\n      gt\n        /* \"#utility.yul\":1524:1611   */\n      iszero\n      tag_311\n      jumpi\n        /* \"#utility.yul\":1599:1600   */\n      0x00\n        /* \"#utility.yul\":1592:1596   */\n      0x20\n        /* \"#utility.yul\":1583:1589   */\n      dup4\n        /* \"#utility.yul\":1578:1581   */\n      dup8\n        /* \"#utility.yul\":1574:1590   */\n      add\n        /* \"#utility.yul\":1570:1597   */\n      add\n        /* \"#utility.yul\":1563:1601   */\n      mstore\n        /* \"#utility.yul\":1524:1611   */\n    tag_311:\n      pop\n        /* \"#utility.yul\":1665:1667   */\n      0x1f\n        /* \"#utility.yul\":1644:1659   */\n      add\n      not(0x1f)\n        /* \"#utility.yul\":1640:1669   */\n      and\n        /* \"#utility.yul\":1631:1670   */\n      swap3\n      swap1\n      swap3\n      add\n        /* \"#utility.yul\":1672:1676   */\n      0x20\n        /* \"#utility.yul\":1627:1677   */\n      add\n      swap3\n        /* \"#utility.yul\":1211:1683   */\n      swap2\n      pop\n      pop\n      jump\t// out\n        /* \"#utility.yul\":1688:1908   */\n    tag_33:\n        /* \"#utility.yul\":1837:1839   */\n      0x20\n        /* \"#utility.yul\":1826:1835   */\n      dup2\n        /* \"#utility.yul\":1819:1840   */\n      mstore\n        /* \"#utility.yul\":1800:1804   */\n      0x00\n        /* \"#utility.yul\":1857:1902   */\n      tag_305\n        /* \"#utility.yul\":1898:1900   */\n      0x20\n        /* \"#utility.yul\":1887:1896   */\n      dup4\n        /* \"#utility.yul\":1883:1901   */\n      add\n        /* \"#utility.yul\":1875:1881   */\n      dup5\n        /* \"#utility.yul\":1857:1902   */\n      tag_287\n      jump\t// in\n        /* \"#utility.yul\":1913:2093   */\n    tag_36:\n        /* \"#utility.yul\":1972:1978   */\n      0x00\n        /* \"#utility.yul\":2025:2027   */\n      0x20\n        /* \"#utility.yul\":2013:2022   */\n      dup3\n        /* \"#utility.yul\":2004:2011   */\n      dup5\n        /* \"#utility.yul\":2000:2023   */\n      sub\n        /* \"#utility.yul\":1996:2028   */\n      slt\n        /* \"#utility.yul\":1993:2045   */\n      iszero\n      tag_315\n      jumpi\n        /* \"#utility.yul\":2041:2042   */\n      0x00\n        /* \"#utility.yul\":2038:2039   */\n      dup1\n        /* \"#utility.yul\":2031:2043   */\n      revert\n        /* \"#utility.yul\":1993:2045   */\n    tag_315:\n      pop\n        /* \"#utility.yul\":2064:2087   */\n      calldataload\n      swap2\n        /* \"#utility.yul\":1913:2093   */\n      swap1\n      pop\n      jump\t// out\n        /* \"#utility.yul\":2098:2225   */\n    tag_116:\n        /* \"#utility.yul\":2159:2169   */\n      0x4e487b71\n        /* \"#utility.yul\":2154:2157   */\n      0xe0\n        /* \"#utility.yul\":2150:2170   */\n      shl\n        /* \"#utility.yul\":2147:2148   */\n      0x00\n        /* \"#utility.yul\":2140:2171   */\n      mstore\n        /* \"#utility.yul\":2190:2194   */\n      0x41\n        /* \"#utility.yul\":2187:2188   */\n      0x04\n        /* \"#utility.yul\":2180:2195   */\n      mstore\n        /* \"#utility.yul\":2214:2218   */\n      0x24\n        /* \"#utility.yul\":2211:2212   */\n      0x00\n        /* \"#utility.yul\":2204:2219   */\n      revert\n        /* \"#utility.yul\":2230:2479   */\n    tag_288:\n        /* \"#utility.yul\":2340:2342   */\n      0x1f\n        /* \"#utility.yul\":2321:2334   */\n      dup3\n      add\n      not(0x1f)\n        /* \"#utility.yul\":2317:2344   */\n      and\n        /* \"#utility.yul\":2305:2345   */\n      dup2\n      add\n        /* \"#utility.yul\":2375:2393   */\n      0xffffffffffffffff\n        /* \"#utility.yul\":2360:2394   */\n      dup2\n      gt\n        /* \"#utility.yul\":2396:2418   */\n      dup3\n      dup3\n      lt\n        /* \"#utility.yul\":2357:2419   */\n      or\n        /* \"#utility.yul\":2354:2442   */\n      iszero\n      tag_319\n      jumpi\n        /* \"#utility.yul\":2422:2440   */\n      tag_319\n      tag_116\n      jump\t// in\n    tag_319:\n        /* \"#utility.yul\":2458:2460   */\n      0x40\n        /* \"#utility.yul\":2451:2473   */\n      mstore\n      pop\n      pop\n        /* \"#utility.yul\":2230:2479   */\n      jump\t// out\n        /* \"#utility.yul\":2484:2667   */\n    tag_289:\n        /* \"#utility.yul\":2544:2548   */\n      0x00\n        /* \"#utility.yul\":2577:2595   */\n      0xffffffffffffffff\n        /* \"#utility.yul\":2569:2575   */\n      dup3\n        /* \"#utility.yul\":2566:2596   */\n      gt\n        /* \"#utility.yul\":2563:2619   */\n      iszero\n      tag_322\n      jumpi\n        /* \"#utility.yul\":2599:2617   */\n      tag_322\n      tag_116\n      jump\t// in\n    tag_322:\n      pop\n        /* \"#utility.yul\":2644:2645   */\n      0x05\n        /* \"#utility.yul\":2640:2654   */\n      shl\n        /* \"#utility.yul\":2656:2660   */\n      0x20\n        /* \"#utility.yul\":2636:2661   */\n      add\n      swap1\n        /* \"#utility.yul\":2484:2667   */\n      jump\t// out\n        /* \"#utility.yul\":2672:3396   */\n    tag_290:\n        /* \"#utility.yul\":2726:2731   */\n      0x00\n        /* \"#utility.yul\":2779:2782   */\n      dup3\n        /* \"#utility.yul\":2772:2776   */\n      0x1f\n        /* \"#utility.yul\":2764:2770   */\n      dup4\n        /* \"#utility.yul\":2760:2777   */\n      add\n        /* \"#utility.yul\":2756:2783   */\n      slt\n        /* \"#utility.yul\":2746:2801   */\n      tag_324\n      jumpi\n        /* \"#utility.yul\":2797:2798   */\n      0x00\n        /* \"#utility.yul\":2794:2795   */\n      dup1\n        /* \"#utility.yul\":2787:2799   */\n      revert\n        /* \"#utility.yul\":2746:2801   */\n    tag_324:\n        /* \"#utility.yul\":2833:2839   */\n      dup2\n        /* \"#utility.yul\":2820:2840   */\n      calldataload\n        /* \"#utility.yul\":2859:2863   */\n      0x20\n        /* \"#utility.yul\":2882:2925   */\n      tag_325\n        /* \"#utility.yul\":2922:2924   */\n      dup3\n        /* \"#utility.yul\":2882:2925   */\n      tag_289\n      jump\t// in\n    tag_325:\n        /* \"#utility.yul\":2954:2956   */\n      0x40\n        /* \"#utility.yul\":2948:2957   */\n      mload\n        /* \"#utility.yul\":2966:2997   */\n      tag_326\n        /* \"#utility.yul\":2994:2996   */\n      dup3\n        /* \"#utility.yul\":2986:2992   */\n      dup3\n        /* \"#utility.yul\":2966:2997   */\n      tag_288\n      jump\t// in\n    tag_326:\n        /* \"#utility.yul\":3032:3050   */\n      dup4\n      dup2\n      mstore\n        /* \"#utility.yul\":3124:3125   */\n      0x05\n        /* \"#utility.yul\":3120:3130   */\n      swap4\n      swap1\n      swap4\n      shl\n        /* \"#utility.yul\":3108:3131   */\n      dup6\n      add\n        /* \"#utility.yul\":3104:3136   */\n      dup3\n      add\n      swap3\n        /* \"#utility.yul\":3066:3081   */\n      dup3\n      dup2\n      add\n      swap2\n      pop\n        /* \"#utility.yul\":3148:3163   */\n      dup7\n      dup5\n      gt\n        /* \"#utility.yul\":3145:3180   */\n      iszero\n      tag_327\n      jumpi\n        /* \"#utility.yul\":3176:3177   */\n      0x00\n        /* \"#utility.yul\":3173:3174   */\n      dup1\n        /* \"#utility.yul\":3166:3178   */\n      revert\n        /* \"#utility.yul\":3145:3180   */\n    tag_327:\n        /* \"#utility.yul\":3212:3214   */\n      dup3\n        /* \"#utility.yul\":3204:3210   */\n      dup7\n        /* \"#utility.yul\":3200:3215   */\n      add\n        /* \"#utility.yul\":3224:3366   */\n    tag_328:\n        /* \"#utility.yul\":3240:3246   */\n      dup5\n        /* \"#utility.yul\":3235:3238   */\n      dup2\n        /* \"#utility.yul\":3232:3247   */\n      lt\n        /* \"#utility.yul\":3224:3366   */\n      iszero\n      tag_330\n      jumpi\n        /* \"#utility.yul\":3306:3323   */\n      dup1\n      calldataload\n        /* \"#utility.yul\":3294:3324   */\n      dup4\n      mstore\n        /* \"#utility.yul\":3344:3356   */\n      swap2\n      dup4\n      add\n      swap2\n        /* \"#utility.yul\":3257:3269   */\n      dup4\n      add\n        /* \"#utility.yul\":3224:3366   */\n      jump(tag_328)\n    tag_330:\n      pop\n        /* \"#utility.yul\":3384:3390   */\n      swap7\n        /* \"#utility.yul\":2672:3396   */\n      swap6\n      pop\n      pop\n      pop\n      pop\n      pop\n      pop\n      jump\t// out\n        /* \"#utility.yul\":3401:3956   */\n    tag_291:\n        /* \"#utility.yul\":3443:3448   */\n      0x00\n        /* \"#utility.yul\":3496:3499   */\n      dup3\n        /* \"#utility.yul\":3489:3493   */\n      0x1f\n        /* \"#utility.yul\":3481:3487   */\n      dup4\n        /* \"#utility.yul\":3477:3494   */\n      add\n        /* \"#utility.yul\":3473:3500   */\n      slt\n        /* \"#utility.yul\":3463:3518   */\n      tag_332\n      jumpi\n        /* \"#utility.yul\":3514:3515   */\n      0x00\n        /* \"#utility.yul\":3511:3512   */\n      dup1\n        /* \"#utility.yul\":3504:3516   */\n      revert\n        /* \"#utility.yul\":3463:3518   */\n    tag_332:\n        /* \"#utility.yul\":3550:3556   */\n      dup2\n        /* \"#utility.yul\":3537:3557   */\n      calldataload\n        /* \"#utility.yul\":3576:3594   */\n      0xffffffffffffffff\n        /* \"#utility.yul\":3572:3574   */\n      dup2\n        /* \"#utility.yul\":3569:3595   */\n      gt\n        /* \"#utility.yul\":3566:3618   */\n      iszero\n      tag_334\n      jumpi\n        /* \"#utility.yul\":3598:3616   */\n      tag_334\n      tag_116\n      jump\t// in\n    tag_334:\n        /* \"#utility.yul\":3647:3649   */\n      0x40\n        /* \"#utility.yul\":3641:3650   */\n      mload\n        /* \"#utility.yul\":3659:3726   */\n      tag_335\n        /* \"#utility.yul\":3714:3716   */\n      0x1f\n        /* \"#utility.yul\":3695:3708   */\n      dup4\n      add\n      not(0x1f)\n        /* \"#utility.yul\":3691:3718   */\n      and\n        /* \"#utility.yul\":3720:3724   */\n      0x20\n        /* \"#utility.yul\":3687:3725   */\n      add\n        /* \"#utility.yul\":3641:3650   */\n      dup3\n        /* \"#utility.yul\":3659:3726   */\n      tag_288\n      jump\t// in\n    tag_335:\n        /* \"#utility.yul\":3750:3752   */\n      dup2\n        /* \"#utility.yul\":3742:3748   */\n      dup2\n        /* \"#utility.yul\":3735:3753   */\n      mstore\n        /* \"#utility.yul\":3796:3799   */\n      dup5\n        /* \"#utility.yul\":3789:3793   */\n      0x20\n        /* \"#utility.yul\":3784:3786   */\n      dup4\n        /* \"#utility.yul\":3776:3782   */\n      dup7\n        /* \"#utility.yul\":3772:3787   */\n      add\n        /* \"#utility.yul\":3768:3794   */\n      add\n        /* \"#utility.yul\":3765:3800   */\n      gt\n        /* \"#utility.yul\":3762:3817   */\n      iszero\n      tag_336\n      jumpi\n        /* \"#utility.yul\":3813:3814   */\n      0x00\n        /* \"#utility.yul\":3810:3811   */\n      dup1\n        /* \"#utility.yul\":3803:3815   */\n      revert\n        /* \"#utility.yul\":3762:3817   */\n    tag_336:\n        /* \"#utility.yul\":3877:3879   */\n      dup2\n        /* \"#utility.yul\":3870:3874   */\n      0x20\n        /* \"#utility.yul\":3862:3868   */\n      dup6\n        /* \"#utility.yul\":3858:3875   */\n      add\n        /* \"#utility.yul\":3851:3855   */\n      0x20\n        /* \"#utility.yul\":3843:3849   */\n      dup4\n        /* \"#utility.yul\":3839:3856   */\n      add\n        /* \"#utility.yul\":3826:3880   */\n      calldatacopy\n        /* \"#utility.yul\":3924:3925   */\n      0x00\n        /* \"#utility.yul\":3900:3915   */\n      swap2\n      dup2\n      add\n        /* \"#utility.yul\":3917:3921   */\n      0x20\n        /* \"#utility.yul\":3896:3922   */\n      add\n        /* \"#utility.yul\":3889:3926   */\n      swap2\n      swap1\n      swap2\n      mstore\n        /* \"#utility.yul\":3904:3910   */\n      swap4\n        /* \"#utility.yul\":3401:3956   */\n      swap3\n      pop\n      pop\n      pop\n      jump\t// out\n        /* \"#utility.yul\":3961:4904   */\n    tag_41:\n        /* \"#utility.yul\":4115:4121   */\n      0x00\n        /* \"#utility.yul\":4123:4129   */\n      dup1\n        /* \"#utility.yul\":4131:4137   */\n      0x00\n        /* \"#utility.yul\":4139:4145   */\n      dup1\n        /* \"#utility.yul\":4147:4153   */\n      0x00\n        /* \"#utility.yul\":4200:4203   */\n      0xa0\n        /* \"#utility.yul\":4188:4197   */\n      dup7\n        /* \"#utility.yul\":4179:4186   */\n      dup9\n        /* \"#utility.yul\":4175:4198   */\n      sub\n        /* \"#utility.yul\":4171:4204   */\n      slt\n        /* \"#utility.yul\":4168:4221   */\n      iszero\n      tag_338\n      jumpi\n        /* \"#utility.yul\":4217:4218   */\n      0x00\n        /* \"#utility.yul\":4214:4215   */\n      dup1\n        /* \"#utility.yul\":4207:4219   */\n      revert\n        /* \"#utility.yul\":4168:4221   */\n    tag_338:\n        /* \"#utility.yul\":4240:4269   */\n      tag_339\n        /* \"#utility.yul\":4259:4268   */\n      dup7\n        /* \"#utility.yul\":4240:4269   */\n      tag_285\n      jump\t// in\n    tag_339:\n        /* \"#utility.yul\":4230:4269   */\n      swap5\n      pop\n        /* \"#utility.yul\":4288:4326   */\n      tag_340\n        /* \"#utility.yul\":4322:4324   */\n      0x20\n        /* \"#utility.yul\":4311:4320   */\n      dup8\n        /* \"#utility.yul\":4307:4325   */\n      add\n        /* \"#utility.yul\":4288:4326   */\n      tag_285\n      jump\t// in\n    tag_340:\n        /* \"#utility.yul\":4278:4326   */\n      swap4\n      pop\n        /* \"#utility.yul\":4377:4379   */\n      0x40\n        /* \"#utility.yul\":4366:4375   */\n      dup7\n        /* \"#utility.yul\":4362:4380   */\n      add\n        /* \"#utility.yul\":4349:4381   */\n      calldataload\n        /* \"#utility.yul\":4400:4418   */\n      0xffffffffffffffff\n        /* \"#utility.yul\":4441:4443   */\n      dup1\n        /* \"#utility.yul\":4433:4439   */\n      dup3\n        /* \"#utility.yul\":4430:4444   */\n      gt\n        /* \"#utility.yul\":4427:4461   */\n      iszero\n      tag_341\n      jumpi\n        /* \"#utility.yul\":4457:4458   */\n      0x00\n        /* \"#utility.yul\":4454:4455   */\n      dup1\n        /* \"#utility.yul\":4447:4459   */\n      revert\n        /* \"#utility.yul\":4427:4461   */\n    tag_341:\n        /* \"#utility.yul\":4480:4541   */\n      tag_342\n        /* \"#utility.yul\":4533:4540   */\n      dup10\n        /* \"#utility.yul\":4524:4530   */\n      dup4\n        /* \"#utility.yul\":4513:4522   */\n      dup11\n        /* \"#utility.yul\":4509:4531   */\n      add\n        /* \"#utility.yul\":4480:4541   */\n      tag_290\n      jump\t// in\n    tag_342:\n        /* \"#utility.yul\":4470:4541   */\n      swap5\n      pop\n        /* \"#utility.yul\":4594:4596   */\n      0x60\n        /* \"#utility.yul\":4583:4592   */\n      dup9\n        /* \"#utility.yul\":4579:4597   */\n      add\n        /* \"#utility.yul\":4566:4598   */\n      calldataload\n        /* \"#utility.yul\":4550:4598   */\n      swap2\n      pop\n        /* \"#utility.yul\":4623:4625   */\n      dup1\n        /* \"#utility.yul\":4613:4621   */\n      dup3\n        /* \"#utility.yul\":4610:4626   */\n      gt\n        /* \"#utility.yul\":4607:4643   */\n      iszero\n      tag_343\n      jumpi\n        /* \"#utility.yul\":4639:4640   */\n      0x00\n        /* \"#utility.yul\":4636:4637   */\n      dup1\n        /* \"#utility.yul\":4629:4641   */\n      revert\n        /* \"#utility.yul\":4607:4643   */\n    tag_343:\n        /* \"#utility.yul\":4662:4725   */\n      tag_344\n        /* \"#utility.yul\":4717:4724   */\n      dup10\n        /* \"#utility.yul\":4706:4714   */\n      dup4\n        /* \"#utility.yul\":4695:4704   */\n      dup11\n        /* \"#utility.yul\":4691:4715   */\n      add\n        /* \"#utility.yul\":4662:4725   */\n      tag_290\n      jump\t// in\n    tag_344:\n        /* \"#utility.yul\":4652:4725   */\n      swap4\n      pop\n        /* \"#utility.yul\":4778:4781   */\n      0x80\n        /* \"#utility.yul\":4767:4776   */\n      dup9\n        /* \"#utility.yul\":4763:4782   */\n      add\n        /* \"#utility.yul\":4750:4783   */\n      calldataload\n        /* \"#utility.yul\":4734:4783   */\n      swap2\n      pop\n        /* \"#utility.yul\":4808:4810   */\n      dup1\n        /* \"#utility.yul\":4798:4806   */\n      dup3\n        /* \"#utility.yul\":4795:4811   */\n      gt\n        /* \"#utility.yul\":4792:4828   */\n      iszero\n      tag_345\n      jumpi\n        /* \"#utility.yul\":4824:4825   */\n      0x00\n        /* \"#utility.yul\":4821:4822   */\n      dup1\n        /* \"#utility.yul\":4814:4826   */\n      revert\n        /* \"#utility.yul\":4792:4828   */\n    tag_345:\n      pop\n        /* \"#utility.yul\":4847:4898   */\n      tag_346\n        /* \"#utility.yul\":4890:4897   */\n      dup9\n        /* \"#utility.yul\":4879:4887   */\n      dup3\n        /* \"#utility.yul\":4868:4877   */\n      dup10\n        /* \"#utility.yul\":4864:4888   */\n      add\n        /* \"#utility.yul\":4847:4898   */\n      tag_291\n      jump\t// in\n    tag_346:\n        /* \"#utility.yul\":4837:4898   */\n      swap2\n      pop\n      pop\n        /* \"#utility.yul\":3961:4904   */\n      swap3\n      swap6\n      pop\n      swap3\n      swap6\n      swap1\n      swap4\n      pop\n      jump\t// out\n        /* \"#utility.yul\":4909:6117   */\n    tag_48:\n        /* \"#utility.yul\":5027:5033   */\n      0x00\n        /* \"#utility.yul\":5035:5041   */\n      dup1\n        /* \"#utility.yul\":5088:5090   */\n      0x40\n        /* \"#utility.yul\":5076:5085   */\n      dup4\n        /* \"#utility.yul\":5067:5074   */\n      dup6\n        /* \"#utility.yul\":5063:5086   */\n      sub\n        /* \"#utility.yul\":5059:5091   */\n      slt\n        /* \"#utility.yul\":5056:5108   */\n      iszero\n      tag_348\n      jumpi\n        /* \"#utility.yul\":5104:5105   */\n      0x00\n        /* \"#utility.yul\":5101:5102   */\n      dup1\n        /* \"#utility.yul\":5094:5106   */\n      revert\n        /* \"#utility.yul\":5056:5108   */\n    tag_348:\n        /* \"#utility.yul\":5144:5153   */\n      dup3\n        /* \"#utility.yul\":5131:5154   */\n      calldataload\n        /* \"#utility.yul\":5173:5191   */\n      0xffffffffffffffff\n        /* \"#utility.yul\":5214:5216   */\n      dup1\n        /* \"#utility.yul\":5206:5212   */\n      dup3\n        /* \"#utility.yul\":5203:5217   */\n      gt\n        /* \"#utility.yul\":5200:5234   */\n      iszero\n      tag_349\n      jumpi\n        /* \"#utility.yul\":5230:5231   */\n      0x00\n        /* \"#utility.yul\":5227:5228   */\n      dup1\n        /* \"#utility.yul\":5220:5232   */\n      revert\n        /* \"#utility.yul\":5200:5234   */\n    tag_349:\n        /* \"#utility.yul\":5268:5274   */\n      dup2\n        /* \"#utility.yul\":5257:5266   */\n      dup6\n        /* \"#utility.yul\":5253:5275   */\n      add\n        /* \"#utility.yul\":5243:5275   */\n      swap2\n      pop\n        /* \"#utility.yul\":5313:5320   */\n      dup6\n        /* \"#utility.yul\":5306:5310   */\n      0x1f\n        /* \"#utility.yul\":5302:5304   */\n      dup4\n        /* \"#utility.yul\":5298:5311   */\n      add\n        /* \"#utility.yul\":5294:5321   */\n      slt\n        /* \"#utility.yul\":5284:5339   */\n      tag_350\n      jumpi\n        /* \"#utility.yul\":5335:5336   */\n      0x00\n        /* \"#utility.yul\":5332:5333   */\n      dup1\n        /* \"#utility.yul\":5325:5337   */\n      revert\n        /* \"#utility.yul\":5284:5339   */\n    tag_350:\n        /* \"#utility.yul\":5371:5373   */\n      dup2\n        /* \"#utility.yul\":5358:5374   */\n      calldataload\n        /* \"#utility.yul\":5393:5397   */\n      0x20\n        /* \"#utility.yul\":5416:5459   */\n      tag_351\n        /* \"#utility.yul\":5456:5458   */\n      dup3\n        /* \"#utility.yul\":5416:5459   */\n      tag_289\n      jump\t// in\n    tag_351:\n        /* \"#utility.yul\":5488:5490   */\n      0x40\n        /* \"#utility.yul\":5482:5491   */\n      mload\n        /* \"#utility.yul\":5500:5531   */\n      tag_352\n        /* \"#utility.yul\":5528:5530   */\n      dup3\n        /* \"#utility.yul\":5520:5526   */\n      dup3\n        /* \"#utility.yul\":5500:5531   */\n      tag_288\n      jump\t// in\n    tag_352:\n        /* \"#utility.yul\":5566:5584   */\n      dup4\n      dup2\n      mstore\n        /* \"#utility.yul\":5654:5655   */\n      0x05\n        /* \"#utility.yul\":5650:5660   */\n      swap4\n      swap1\n      swap4\n      shl\n        /* \"#utility.yul\":5642:5661   */\n      dup6\n      add\n        /* \"#utility.yul\":5638:5666   */\n      dup3\n      add\n      swap3\n        /* \"#utility.yul\":5600:5615   */\n      dup3\n      dup2\n      add\n      swap2\n      pop\n        /* \"#utility.yul\":5678:5697   */\n      dup10\n      dup5\n      gt\n        /* \"#utility.yul\":5675:5714   */\n      iszero\n      tag_353\n      jumpi\n        /* \"#utility.yul\":5710:5711   */\n      0x00\n        /* \"#utility.yul\":5707:5708   */\n      dup1\n        /* \"#utility.yul\":5700:5712   */\n      revert\n        /* \"#utility.yul\":5675:5714   */\n    tag_353:\n        /* \"#utility.yul\":5734:5745   */\n      swap5\n      dup3\n      add\n      swap5\n        /* \"#utility.yul\":5754:5902   */\n    tag_354:\n        /* \"#utility.yul\":5770:5776   */\n      dup4\n        /* \"#utility.yul\":5765:5768   */\n      dup7\n        /* \"#utility.yul\":5762:5777   */\n      lt\n        /* \"#utility.yul\":5754:5902   */\n      iszero\n      tag_356\n      jumpi\n        /* \"#utility.yul\":5836:5859   */\n      tag_357\n        /* \"#utility.yul\":5855:5858   */\n      dup7\n        /* \"#utility.yul\":5836:5859   */\n      tag_285\n      jump\t// in\n    tag_357:\n        /* \"#utility.yul\":5824:5860   */\n      dup3\n      mstore\n        /* \"#utility.yul\":5787:5799   */\n      swap5\n      dup3\n      add\n      swap5\n        /* \"#utility.yul\":5880:5892   */\n      swap1\n      dup3\n      add\n      swap1\n        /* \"#utility.yul\":5754:5902   */\n      jump(tag_354)\n    tag_356:\n        /* \"#utility.yul\":5921:5927   */\n      swap7\n      pop\n      pop\n        /* \"#utility.yul\":5965:5983   */\n      dup7\n      add\n        /* \"#utility.yul\":5952:5984   */\n      calldataload\n      swap3\n      pop\n      pop\n        /* \"#utility.yul\":5996:6012   */\n      dup1\n      dup3\n      gt\n        /* \"#utility.yul\":5993:6029   */\n      iszero\n      tag_358\n      jumpi\n        /* \"#utility.yul\":6025:6026   */\n      0x00\n        /* \"#utility.yul\":6022:6023   */\n      dup1\n        /* \"#utility.yul\":6015:6027   */\n      revert\n        /* \"#utility.yul\":5993:6029   */\n    tag_358:\n      pop\n        /* \"#utility.yul\":6048:6111   */\n      tag_359\n        /* \"#utility.yul\":6103:6110   */\n      dup6\n        /* \"#utility.yul\":6092:6100   */\n      dup3\n        /* \"#utility.yul\":6081:6090   */\n      dup7\n        /* \"#utility.yul\":6077:6101   */\n      add\n        /* \"#utility.yul\":6048:6111   */\n      tag_290\n      jump\t// in\n    tag_359:\n        /* \"#utility.yul\":6038:6111   */\n      swap2\n      pop\n      pop\n        /* \"#utility.yul\":4909:6117   */\n      swap3\n      pop\n      swap3\n      swap1\n      pop\n      jump\t// out\n        /* \"#utility.yul\":6122:6557   */\n    tag_292:\n        /* \"#utility.yul\":6175:6178   */\n      0x00\n        /* \"#utility.yul\":6213:6218   */\n      dup2\n        /* \"#utility.yul\":6207:6219   */\n      mload\n        /* \"#utility.yul\":6240:6246   */\n      dup1\n        /* \"#utility.yul\":6235:6238   */\n      dup5\n        /* \"#utility.yul\":6228:6247   */\n      mstore\n        /* \"#utility.yul\":6266:6270   */\n      0x20\n        /* \"#utility.yul\":6295:6297   */\n      dup1\n        /* \"#utility.yul\":6290:6293   */\n      dup6\n        /* \"#utility.yul\":6286:6298   */\n      add\n        /* \"#utility.yul\":6279:6298   */\n      swap5\n      pop\n        /* \"#utility.yul\":6332:6334   */\n      dup1\n        /* \"#utility.yul\":6325:6330   */\n      dup5\n        /* \"#utility.yul\":6321:6335   */\n      add\n        /* \"#utility.yul\":6353:6354   */\n      0x00\n        /* \"#utility.yul\":6363:6532   */\n    tag_361:\n        /* \"#utility.yul\":6377:6383   */\n      dup4\n        /* \"#utility.yul\":6374:6375   */\n      dup2\n        /* \"#utility.yul\":6371:6384   */\n      lt\n        /* \"#utility.yul\":6363:6532   */\n      iszero\n      tag_363\n      jumpi\n        /* \"#utility.yul\":6438:6451   */\n      dup2\n      mload\n        /* \"#utility.yul\":6426:6452   */\n      dup8\n      mstore\n        /* \"#utility.yul\":6472:6484   */\n      swap6\n      dup3\n      add\n      swap6\n        /* \"#utility.yul\":6507:6522   */\n      swap1\n      dup3\n      add\n      swap1\n        /* \"#utility.yul\":6399:6400   */\n      0x01\n        /* \"#utility.yul\":6392:6401   */\n      add\n        /* \"#utility.yul\":6363:6532   */\n      jump(tag_361)\n    tag_363:\n      pop\n        /* \"#utility.yul\":6548:6551   */\n      swap5\n      swap6\n        /* \"#utility.yul\":6122:6557   */\n      swap5\n      pop\n      pop\n      pop\n      pop\n      pop\n      jump\t// out\n        /* \"#utility.yul\":6562:6823   */\n    tag_51:\n        /* \"#utility.yul\":6741:6743   */\n      0x20\n        /* \"#utility.yul\":6730:6739   */\n      dup2\n        /* \"#utility.yul\":6723:6744   */\n      mstore\n        /* \"#utility.yul\":6704:6708   */\n      0x00\n        /* \"#utility.yul\":6761:6817   */\n      tag_305\n        /* \"#utility.yul\":6813:6815   */\n      0x20\n        /* \"#utility.yul\":6802:6811   */\n      dup4\n        /* \"#utility.yul\":6798:6816   */\n      add\n        /* \"#utility.yul\":6790:6796   */\n      dup5\n        /* \"#utility.yul\":6761:6817   */\n      tag_292\n      jump\t// in\n        /* \"#utility.yul\":6828:7175   */\n    tag_61:\n        /* \"#utility.yul\":6893:6899   */\n      0x00\n        /* \"#utility.yul\":6901:6907   */\n      dup1\n        /* \"#utility.yul\":6954:6956   */\n      0x40\n        /* \"#utility.yul\":6942:6951   */\n      dup4\n        /* \"#utility.yul\":6933:6940   */\n      dup6\n        /* \"#utility.yul\":6929:6952   */\n      sub\n        /* \"#utility.yul\":6925:6957   */\n      slt\n        /* \"#utility.yul\":6922:6974   */\n      iszero\n      tag_367\n      jumpi\n        /* \"#utility.yul\":6970:6971   */\n      0x00\n        /* \"#utility.yul\":6967:6968   */\n      dup1\n        /* \"#utility.yul\":6960:6972   */\n      revert\n        /* \"#utility.yul\":6922:6974   */\n    tag_367:\n        /* \"#utility.yul\":6993:7022   */\n      tag_368\n        /* \"#utility.yul\":7012:7021   */\n      dup4\n        /* \"#utility.yul\":6993:7022   */\n      tag_285\n      jump\t// in\n    tag_368:\n        /* \"#utility.yul\":6983:7022   */\n      swap2\n      pop\n        /* \"#utility.yul\":7072:7074   */\n      0x20\n        /* \"#utility.yul\":7061:7070   */\n      dup4\n        /* \"#utility.yul\":7057:7075   */\n      add\n        /* \"#utility.yul\":7044:7076   */\n      calldataload\n        /* \"#utility.yul\":7119:7124   */\n      dup1\n        /* \"#utility.yul\":7112:7125   */\n      iszero\n        /* \"#utility.yul\":7105:7126   */\n      iszero\n        /* \"#utility.yul\":7098:7103   */\n      dup2\n        /* \"#utility.yul\":7095:7127   */\n      eq\n        /* \"#utility.yul\":7085:7145   */\n      tag_369\n      jumpi\n        /* \"#utility.yul\":7141:7142   */\n      0x00\n        /* \"#utility.yul\":7138:7139   */\n      dup1\n        /* \"#utility.yul\":7131:7143   */\n      revert\n        /* \"#utility.yul\":7085:7145   */\n    tag_369:\n        /* \"#utility.yul\":7164:7169   */\n      dup1\n        /* \"#utility.yul\":7154:7169   */\n      swap2\n      pop\n      pop\n        /* \"#utility.yul\":6828:7175   */\n      swap3\n      pop\n      swap3\n      swap1\n      pop\n      jump\t// out\n        /* \"#utility.yul\":7180:7440   */\n    tag_69:\n        /* \"#utility.yul\":7248:7254   */\n      0x00\n        /* \"#utility.yul\":7256:7262   */\n      dup1\n        /* \"#utility.yul\":7309:7311   */\n      0x40\n        /* \"#utility.yul\":7297:7306   */\n      dup4\n        /* \"#utility.yul\":7288:7295   */\n      dup6\n        /* \"#utility.yul\":7284:7307   */\n      sub\n        /* \"#utility.yul\":7280:7312   */\n      slt\n        /* \"#utility.yul\":7277:7329   */\n      iszero\n      tag_371\n      jumpi\n        /* \"#utility.yul\":7325:7326   */\n      0x00\n        /* \"#utility.yul\":7322:7323   */\n      dup1\n        /* \"#utility.yul\":7315:7327   */\n      revert\n        /* \"#utility.yul\":7277:7329   */\n    tag_371:\n        /* \"#utility.yul\":7348:7377   */\n      tag_372\n        /* \"#utility.yul\":7367:7376   */\n      dup4\n        /* \"#utility.yul\":7348:7377   */\n      tag_285\n      jump\t// in\n    tag_372:\n        /* \"#utility.yul\":7338:7377   */\n      swap2\n      pop\n        /* \"#utility.yul\":7396:7434   */\n      tag_373\n        /* \"#utility.yul\":7430:7432   */\n      0x20\n        /* \"#utility.yul\":7419:7428   */\n      dup5\n        /* \"#utility.yul\":7415:7433   */\n      add\n        /* \"#utility.yul\":7396:7434   */\n      tag_285\n      jump\t// in\n    tag_373:\n        /* \"#utility.yul\":7386:7434   */\n      swap1\n      pop\n        /* \"#utility.yul\":7180:7440   */\n      swap3\n      pop\n      swap3\n      swap1\n      pop\n      jump\t// out\n        /* \"#utility.yul\":7445:8051   */\n    tag_74:\n        /* \"#utility.yul\":7549:7555   */\n      0x00\n        /* \"#utility.yul\":7557:7563   */\n      dup1\n        /* \"#utility.yul\":7565:7571   */\n      0x00\n        /* \"#utility.yul\":7573:7579   */\n      dup1\n        /* \"#utility.yul\":7581:7587   */\n      0x00\n        /* \"#utility.yul\":7634:7637   */\n      0xa0\n        /* \"#utility.yul\":7622:7631   */\n      dup7\n        /* \"#utility.yul\":7613:7620   */\n      dup9\n        /* \"#utility.yul\":7609:7632   */\n      sub\n        /* \"#utility.yul\":7605:7638   */\n      slt\n        /* \"#utility.yul\":7602:7655   */\n      iszero\n      tag_375\n      jumpi\n        /* \"#utility.yul\":7651:7652   */\n      0x00\n        /* \"#utility.yul\":7648:7649   */\n      dup1\n        /* \"#utility.yul\":7641:7653   */\n      revert\n        /* \"#utility.yul\":7602:7655   */\n    tag_375:\n        /* \"#utility.yul\":7674:7703   */\n      tag_376\n        /* \"#utility.yul\":7693:7702   */\n      dup7\n        /* \"#utility.yul\":7674:7703   */\n      tag_285\n      jump\t// in\n    tag_376:\n        /* \"#utility.yul\":7664:7703   */\n      swap5\n      pop\n        /* \"#utility.yul\":7722:7760   */\n      tag_377\n        /* \"#utility.yul\":7756:7758   */\n      0x20\n        /* \"#utility.yul\":7745:7754   */\n      dup8\n        /* \"#utility.yul\":7741:7759   */\n      add\n        /* \"#utility.yul\":7722:7760   */\n      tag_285\n      jump\t// in\n    tag_377:\n        /* \"#utility.yul\":7712:7760   */\n      swap4\n      pop\n        /* \"#utility.yul\":7807:7809   */\n      0x40\n        /* \"#utility.yul\":7796:7805   */\n      dup7\n        /* \"#utility.yul\":7792:7810   */\n      add\n        /* \"#utility.yul\":7779:7811   */\n      calldataload\n        /* \"#utility.yul\":7769:7811   */\n      swap3\n      pop\n        /* \"#utility.yul\":7858:7860   */\n      0x60\n        /* \"#utility.yul\":7847:7856   */\n      dup7\n        /* \"#utility.yul\":7843:7861   */\n      add\n        /* \"#utility.yul\":7830:7862   */\n      calldataload\n        /* \"#utility.yul\":7820:7862   */\n      swap2\n      pop\n        /* \"#utility.yul\":7913:7916   */\n      0x80\n        /* \"#utility.yul\":7902:7911   */\n      dup7\n        /* \"#utility.yul\":7898:7917   */\n      add\n        /* \"#utility.yul\":7885:7918   */\n      calldataload\n        /* \"#utility.yul\":7941:7959   */\n      0xffffffffffffffff\n        /* \"#utility.yul\":7933:7939   */\n      dup2\n        /* \"#utility.yul\":7930:7960   */\n      gt\n        /* \"#utility.yul\":7927:7977   */\n      iszero\n      tag_378\n      jumpi\n        /* \"#utility.yul\":7973:7974   */\n      0x00\n        /* \"#utility.yul\":7970:7971   */\n      dup1\n        /* \"#utility.yul\":7963:7975   */\n      revert\n        /* \"#utility.yul\":7927:7977   */\n    tag_378:\n        /* \"#utility.yul\":7996:8045   */\n      tag_346\n        /* \"#utility.yul\":8037:8044   */\n      dup9\n        /* \"#utility.yul\":8028:8034   */\n      dup3\n        /* \"#utility.yul\":8017:8026   */\n      dup10\n        /* \"#utility.yul\":8013:8035   */\n      add\n        /* \"#utility.yul\":7996:8045   */\n      tag_291\n      jump\t// in\n        /* \"#utility.yul\":8468:8848   */\n    tag_87:\n        /* \"#utility.yul\":8547:8548   */\n      0x01\n        /* \"#utility.yul\":8543:8555   */\n      dup2\n      dup2\n      shr\n      swap1\n        /* \"#utility.yul\":8590:8602   */\n      dup3\n      and\n      dup1\n        /* \"#utility.yul\":8611:8672   */\n      tag_382\n      jumpi\n        /* \"#utility.yul\":8665:8669   */\n      0x7f\n        /* \"#utility.yul\":8657:8663   */\n      dup3\n        /* \"#utility.yul\":8653:8670   */\n      and\n        /* \"#utility.yul\":8643:8670   */\n      swap2\n      pop\n        /* \"#utility.yul\":8611:8672   */\n    tag_382:\n        /* \"#utility.yul\":8718:8720   */\n      0x20\n        /* \"#utility.yul\":8710:8716   */\n      dup3\n        /* \"#utility.yul\":8707:8721   */\n      lt\n        /* \"#utility.yul\":8687:8705   */\n      dup2\n        /* \"#utility.yul\":8684:8722   */\n      sub\n        /* \"#utility.yul\":8681:8842   */\n      tag_383\n      jumpi\n        /* \"#utility.yul\":8764:8774   */\n      0x4e487b71\n        /* \"#utility.yul\":8759:8762   */\n      0xe0\n        /* \"#utility.yul\":8755:8775   */\n      shl\n        /* \"#utility.yul\":8752:8753   */\n      0x00\n        /* \"#utility.yul\":8745:8776   */\n      mstore\n        /* \"#utility.yul\":8799:8803   */\n      0x22\n        /* \"#utility.yul\":8796:8797   */\n      0x04\n        /* \"#utility.yul\":8789:8804   */\n      mstore\n        /* \"#utility.yul\":8827:8831   */\n      0x24\n        /* \"#utility.yul\":8824:8825   */\n      0x00\n        /* \"#utility.yul\":8817:8832   */\n      revert\n        /* \"#utility.yul\":8681:8842   */\n    tag_383:\n      pop\n        /* \"#utility.yul\":8468:8848   */\n      swap2\n      swap1\n      pop\n      jump\t// out\n        /* \"#utility.yul\":9682:9809   */\n    tag_124:\n        /* \"#utility.yul\":9743:9753   */\n      0x4e487b71\n        /* \"#utility.yul\":9738:9741   */\n      0xe0\n        /* \"#utility.yul\":9734:9754   */\n      shl\n        /* \"#utility.yul\":9731:9732   */\n      0x00\n        /* \"#utility.yul\":9724:9755   */\n      mstore\n        /* \"#utility.yul\":9774:9778   */\n      0x32\n        /* \"#utility.yul\":9771:9772   */\n      0x04\n        /* \"#utility.yul\":9764:9779   */\n      mstore\n        /* \"#utility.yul\":9798:9802   */\n      0x24\n        /* \"#utility.yul\":9795:9796   */\n      0x00\n        /* \"#utility.yul\":9788:9803   */\n      revert\n        /* \"#utility.yul\":9814:9941   */\n    tag_293:\n        /* \"#utility.yul\":9875:9885   */\n      0x4e487b71\n        /* \"#utility.yul\":9870:9873   */\n      0xe0\n        /* \"#utility.yul\":9866:9886   */\n      shl\n        /* \"#utility.yul\":9863:9864   */\n      0x00\n        /* \"#utility.yul\":9856:9887   */\n      mstore\n        /* \"#utility.yul\":9906:9910   */\n      0x11\n        /* \"#utility.yul\":9903:9904   */\n      0x04\n        /* \"#utility.yul\":9896:9911   */\n      mstore\n        /* \"#utility.yul\":9930:9934   */\n      0x24\n        /* \"#utility.yul\":9927:9928   */\n      0x00\n        /* \"#utility.yul\":9920:9935   */\n      revert\n        /* \"#utility.yul\":9946:10081   */\n    tag_130:\n        /* \"#utility.yul\":9985:9988   */\n      0x00\n        /* \"#utility.yul\":10006:10023   */\n      0x01\n      dup3\n      add\n        /* \"#utility.yul\":10003:10046   */\n      tag_390\n      jumpi\n        /* \"#utility.yul\":10026:10044   */\n      tag_390\n      tag_293\n      jump\t// in\n    tag_390:\n      pop\n        /* \"#utility.yul\":10073:10074   */\n      0x01\n        /* \"#utility.yul\":10062:10075   */\n      add\n      swap1\n        /* \"#utility.yul\":9946:10081   */\n      jump\t// out\n        /* \"#utility.yul\":10905:11306   */\n    tag_163:\n        /* \"#utility.yul\":11107:11109   */\n      0x20\n        /* \"#utility.yul\":11089:11110   */\n      dup1\n      dup3\n      mstore\n        /* \"#utility.yul\":11146:11148   */\n      0x25\n        /* \"#utility.yul\":11126:11144   */\n      swap1\n      dup3\n      add\n        /* \"#utility.yul\":11119:11149   */\n      mstore\n        /* \"#utility.yul\":11185:11219   */\n      0x455243313135353a207472616e7366657220746f20746865207a65726f206164\n        /* \"#utility.yul\":11180:11182   */\n      0x40\n        /* \"#utility.yul\":11165:11183   */\n      dup3\n      add\n        /* \"#utility.yul\":11158:11220   */\n      mstore\n      shl(0xd8, 0x6472657373)\n        /* \"#utility.yul\":11251:11253   */\n      0x60\n        /* \"#utility.yul\":11236:11254   */\n      dup3\n      add\n        /* \"#utility.yul\":11229:11264   */\n      mstore\n        /* \"#utility.yul\":11296:11299   */\n      0x80\n        /* \"#utility.yul\":11281:11300   */\n      add\n      swap1\n        /* \"#utility.yul\":10905:11306   */\n      jump\t// out\n        /* \"#utility.yul\":11311:11717   */\n    tag_176:\n        /* \"#utility.yul\":11513:11515   */\n      0x20\n        /* \"#utility.yul\":11495:11516   */\n      dup1\n      dup3\n      mstore\n        /* \"#utility.yul\":11552:11554   */\n      0x2a\n        /* \"#utility.yul\":11532:11550   */\n      swap1\n      dup3\n      add\n        /* \"#utility.yul\":11525:11555   */\n      mstore\n        /* \"#utility.yul\":11591:11625   */\n      0x455243313135353a20696e73756666696369656e742062616c616e636520666f\n        /* \"#utility.yul\":11586:11588   */\n      0x40\n        /* \"#utility.yul\":11571:11589   */\n      dup3\n      add\n        /* \"#utility.yul\":11564:11626   */\n      mstore\n      shl(0xb1, 0x39103a3930b739b332b9)\n        /* \"#utility.yul\":11657:11659   */\n      0x60\n        /* \"#utility.yul\":11642:11660   */\n      dup3\n      add\n        /* \"#utility.yul\":11635:11675   */\n      mstore\n        /* \"#utility.yul\":11707:11710   */\n      0x80\n        /* \"#utility.yul\":11692:11711   */\n      add\n      swap1\n        /* \"#utility.yul\":11311:11717   */\n      jump\t// out\n        /* \"#utility.yul\":11722:11850   */\n    tag_178:\n        /* \"#utility.yul\":11762:11765   */\n      0x00\n        /* \"#utility.yul\":11793:11794   */\n      dup3\n        /* \"#utility.yul\":11789:11795   */\n      not\n        /* \"#utility.yul\":11786:11787   */\n      dup3\n        /* \"#utility.yul\":11783:11796   */\n      gt\n        /* \"#utility.yul\":11780:11819   */\n      iszero\n      tag_397\n      jumpi\n        /* \"#utility.yul\":11799:11817   */\n      tag_397\n      tag_293\n      jump\t// in\n    tag_397:\n      pop\n        /* \"#utility.yul\":11835:11844   */\n      add\n      swap1\n        /* \"#utility.yul\":11722:11850   */\n      jump\t// out\n        /* \"#utility.yul\":11855:12320   */\n    tag_181:\n        /* \"#utility.yul\":12112:12114   */\n      0x40\n        /* \"#utility.yul\":12101:12110   */\n      dup2\n        /* \"#utility.yul\":12094:12115   */\n      mstore\n        /* \"#utility.yul\":12075:12079   */\n      0x00\n        /* \"#utility.yul\":12138:12194   */\n      tag_399\n        /* \"#utility.yul\":12190:12192   */\n      0x40\n        /* \"#utility.yul\":12179:12188   */\n      dup4\n        /* \"#utility.yul\":12175:12193   */\n      add\n        /* \"#utility.yul\":12167:12173   */\n      dup6\n        /* \"#utility.yul\":12138:12194   */\n      tag_292\n      jump\t// in\n    tag_399:\n        /* \"#utility.yul\":12242:12251   */\n      dup3\n        /* \"#utility.yul\":12234:12240   */\n      dup2\n        /* \"#utility.yul\":12230:12252   */\n      sub\n        /* \"#utility.yul\":12225:12227   */\n      0x20\n        /* \"#utility.yul\":12214:12223   */\n      dup5\n        /* \"#utility.yul\":12210:12228   */\n      add\n        /* \"#utility.yul\":12203:12253   */\n      mstore\n        /* \"#utility.yul\":12270:12314   */\n      tag_400\n        /* \"#utility.yul\":12307:12313   */\n      dup2\n        /* \"#utility.yul\":12299:12305   */\n      dup6\n        /* \"#utility.yul\":12270:12314   */\n      tag_292\n      jump\t// in\n    tag_400:\n        /* \"#utility.yul\":12262:12314   */\n      swap6\n        /* \"#utility.yul\":11855:12320   */\n      swap5\n      pop\n      pop\n      pop\n      pop\n      pop\n      jump\t// out\n        /* \"#utility.yul\":13397:14224   */\n    tag_238:\n      sub(shl(0xa0, 0x01), 0x01)\n        /* \"#utility.yul\":13794:13809   */\n      dup7\n      dup2\n      and\n        /* \"#utility.yul\":13776:13810   */\n      dup3\n      mstore\n        /* \"#utility.yul\":13846:13861   */\n      dup6\n      and\n        /* \"#utility.yul\":13841:13843   */\n      0x20\n        /* \"#utility.yul\":13826:13844   */\n      dup3\n      add\n        /* \"#utility.yul\":13819:13862   */\n      mstore\n        /* \"#utility.yul\":13756:13759   */\n      0xa0\n        /* \"#utility.yul\":13893:13895   */\n      0x40\n        /* \"#utility.yul\":13878:13896   */\n      dup3\n      add\n        /* \"#utility.yul\":13871:13902   */\n      dup2\n      swap1\n      mstore\n        /* \"#utility.yul\":13719:13723   */\n      0x00\n      swap1\n        /* \"#utility.yul\":13925:13982   */\n      tag_405\n      swap1\n        /* \"#utility.yul\":13962:13981   */\n      dup4\n      add\n        /* \"#utility.yul\":13954:13960   */\n      dup7\n        /* \"#utility.yul\":13925:13982   */\n      tag_292\n      jump\t// in\n    tag_405:\n        /* \"#utility.yul\":14030:14039   */\n      dup3\n        /* \"#utility.yul\":14022:14028   */\n      dup2\n        /* \"#utility.yul\":14018:14040   */\n      sub\n        /* \"#utility.yul\":14013:14015   */\n      0x60\n        /* \"#utility.yul\":14002:14011   */\n      dup5\n        /* \"#utility.yul\":13998:14016   */\n      add\n        /* \"#utility.yul\":13991:14041   */\n      mstore\n        /* \"#utility.yul\":14064:14108   */\n      tag_406\n        /* \"#utility.yul\":14101:14107   */\n      dup2\n        /* \"#utility.yul\":14093:14099   */\n      dup7\n        /* \"#utility.yul\":14064:14108   */\n      tag_292\n      jump\t// in\n    tag_406:\n        /* \"#utility.yul\":14050:14108   */\n      swap1\n      pop\n        /* \"#utility.yul\":14157:14166   */\n      dup3\n        /* \"#utility.yul\":14149:14155   */\n      dup2\n        /* \"#utility.yul\":14145:14167   */\n      sub\n        /* \"#utility.yul\":14139:14142   */\n      0x80\n        /* \"#utility.yul\":14128:14137   */\n      dup5\n        /* \"#utility.yul\":14124:14143   */\n      add\n        /* \"#utility.yul\":14117:14168   */\n      mstore\n        /* \"#utility.yul\":14185:14218   */\n      tag_407\n        /* \"#utility.yul\":14211:14217   */\n      dup2\n        /* \"#utility.yul\":14203:14209   */\n      dup6\n        /* \"#utility.yul\":14185:14218   */\n      tag_287\n      jump\t// in\n    tag_407:\n        /* \"#utility.yul\":14177:14218   */\n      swap9\n        /* \"#utility.yul\":13397:14224   */\n      swap8\n      pop\n      pop\n      pop\n      pop\n      pop\n      pop\n      pop\n      pop\n      jump\t// out\n        /* \"#utility.yul\":14229:14478   */\n    tag_241:\n        /* \"#utility.yul\":14298:14304   */\n      0x00\n        /* \"#utility.yul\":14351:14353   */\n      0x20\n        /* \"#utility.yul\":14339:14348   */\n      dup3\n        /* \"#utility.yul\":14330:14337   */\n      dup5\n        /* \"#utility.yul\":14326:14349   */\n      sub\n        /* \"#utility.yul\":14322:14354   */\n      slt\n        /* \"#utility.yul\":14319:14371   */\n      iszero\n      tag_409\n      jumpi\n        /* \"#utility.yul\":14367:14368   */\n      0x00\n        /* \"#utility.yul\":14364:14365   */\n      dup1\n        /* \"#utility.yul\":14357:14369   */\n      revert\n        /* \"#utility.yul\":14319:14371   */\n    tag_409:\n        /* \"#utility.yul\":14399:14408   */\n      dup2\n        /* \"#utility.yul\":14393:14409   */\n      mload\n        /* \"#utility.yul\":14418:14448   */\n      tag_305\n        /* \"#utility.yul\":14442:14447   */\n      dup2\n        /* \"#utility.yul\":14418:14448   */\n      tag_286\n      jump\t// in\n        /* \"#utility.yul\":14483:14662   */\n    tag_247:\n        /* \"#utility.yul\":14518:14521   */\n      0x00\n        /* \"#utility.yul\":14560:14561   */\n      0x03\n        /* \"#utility.yul\":14542:14558   */\n      returndatasize\n        /* \"#utility.yul\":14539:14562   */\n      gt\n        /* \"#utility.yul\":14536:14656   */\n      iszero\n      tag_412\n      jumpi\n        /* \"#utility.yul\":14606:14607   */\n      0x04\n        /* \"#utility.yul\":14603:14604   */\n      0x00\n        /* \"#utility.yul\":14600:14601   */\n      dup1\n        /* \"#utility.yul\":14585:14608   */\n      returndatacopy\n      pop\n        /* \"#utility.yul\":14643:14644   */\n      0x00\n        /* \"#utility.yul\":14637:14645   */\n      mload\n        /* \"#utility.yul\":14632:14635   */\n      0xe0\n        /* \"#utility.yul\":14628:14646   */\n      shr\n        /* \"#utility.yul\":14536:14656   */\n    tag_412:\n        /* \"#utility.yul\":14483:14662   */\n      swap1\n      jump\t// out\n        /* \"#utility.yul\":14667:15338   */\n    tag_249:\n        /* \"#utility.yul\":14706:14709   */\n      0x00\n        /* \"#utility.yul\":14748:14752   */\n      0x44\n        /* \"#utility.yul\":14730:14746   */\n      returndatasize\n        /* \"#utility.yul\":14727:14753   */\n      lt\n        /* \"#utility.yul\":14724:14763   */\n      iszero\n      tag_414\n      jumpi\n        /* \"#utility.yul\":14667:15338   */\n      swap1\n      jump\t// out\n        /* \"#utility.yul\":14724:14763   */\n    tag_414:\n        /* \"#utility.yul\":14790:14792   */\n      0x40\n        /* \"#utility.yul\":14784:14793   */\n      mload\n      not(0x03)\n        /* \"#utility.yul\":14855:14871   */\n      returndatasize\n        /* \"#utility.yul\":14851:14876   */\n      dup2\n      add\n        /* \"#utility.yul\":14848:14849   */\n      0x04\n        /* \"#utility.yul\":14784:14793   */\n      dup4\n        /* \"#utility.yul\":14827:14877   */\n      returndatacopy\n        /* \"#utility.yul\":14906:14910   */\n      dup2\n        /* \"#utility.yul\":14900:14911   */\n      mload\n        /* \"#utility.yul\":14930:14946   */\n      returndatasize\n        /* \"#utility.yul\":14965:14983   */\n      0xffffffffffffffff\n        /* \"#utility.yul\":15036:15038   */\n      dup2\n        /* \"#utility.yul\":15029:15033   */\n      0x24\n        /* \"#utility.yul\":15021:15027   */\n      dup5\n        /* \"#utility.yul\":15017:15034   */\n      add\n        /* \"#utility.yul\":15014:15039   */\n      gt\n        /* \"#utility.yul\":15009:15011   */\n      dup2\n        /* \"#utility.yul\":15001:15007   */\n      dup5\n        /* \"#utility.yul\":14998:15012   */\n      gt\n        /* \"#utility.yul\":14995:15040   */\n      or\n        /* \"#utility.yul\":14992:15050   */\n      iszero\n      tag_415\n      jumpi\n        /* \"#utility.yul\":15043:15048   */\n      pop\n      pop\n      pop\n      pop\n      pop\n        /* \"#utility.yul\":14667:15338   */\n      swap1\n      jump\t// out\n        /* \"#utility.yul\":14992:15050   */\n    tag_415:\n        /* \"#utility.yul\":15080:15086   */\n      dup3\n        /* \"#utility.yul\":15074:15078   */\n      dup6\n        /* \"#utility.yul\":15070:15087   */\n      add\n        /* \"#utility.yul\":15059:15087   */\n      swap2\n      pop\n        /* \"#utility.yul\":15116:15119   */\n      dup2\n        /* \"#utility.yul\":15110:15120   */\n      mload\n        /* \"#utility.yul\":15143:15145   */\n      dup2\n        /* \"#utility.yul\":15135:15141   */\n      dup2\n        /* \"#utility.yul\":15132:15146   */\n      gt\n        /* \"#utility.yul\":15129:15156   */\n      iszero\n      tag_416\n      jumpi\n        /* \"#utility.yul\":15149:15154   */\n      pop\n      pop\n      pop\n      pop\n      pop\n      pop\n        /* \"#utility.yul\":14667:15338   */\n      swap1\n      jump\t// out\n        /* \"#utility.yul\":15129:15156   */\n    tag_416:\n        /* \"#utility.yul\":15233:15235   */\n      dup5\n        /* \"#utility.yul\":15214:15230   */\n      returndatasize\n        /* \"#utility.yul\":15208:15212   */\n      dup8\n        /* \"#utility.yul\":15204:15231   */\n      add\n        /* \"#utility.yul\":15200:15236   */\n      add\n        /* \"#utility.yul\":15193:15197   */\n      0x20\n        /* \"#utility.yul\":15184:15190   */\n      dup3\n        /* \"#utility.yul\":15179:15182   */\n      dup6\n        /* \"#utility.yul\":15175:15191   */\n      add\n        /* \"#utility.yul\":15171:15198   */\n      add\n        /* \"#utility.yul\":15168:15237   */\n      gt\n        /* \"#utility.yul\":15165:15247   */\n      iszero\n      tag_417\n      jumpi\n        /* \"#utility.yul\":15240:15245   */\n      pop\n      pop\n      pop\n      pop\n      pop\n      pop\n        /* \"#utility.yul\":14667:15338   */\n      swap1\n      jump\t// out\n        /* \"#utility.yul\":15165:15247   */\n    tag_417:\n        /* \"#utility.yul\":15256:15313   */\n      tag_418\n        /* \"#utility.yul\":15307:15311   */\n      0x20\n        /* \"#utility.yul\":15298:15304   */\n      dup3\n        /* \"#utility.yul\":15290:15296   */\n      dup7\n        /* \"#utility.yul\":15286:15305   */\n      add\n        /* \"#utility.yul\":15282:15312   */\n      add\n        /* \"#utility.yul\":15276:15280   */\n      dup8\n        /* \"#utility.yul\":15256:15313   */\n      tag_288\n      jump\t// in\n    tag_418:\n      pop\n        /* \"#utility.yul\":15329:15332   */\n      swap1\n      swap6\n        /* \"#utility.yul\":14667:15338   */\n      swap5\n      pop\n      pop\n      pop\n      pop\n      pop\n      jump\t// out\n        /* \"#utility.yul\":15764:16168   */\n    tag_257:\n        /* \"#utility.yul\":15966:15968   */\n      0x20\n        /* \"#utility.yul\":15948:15969   */\n      dup1\n      dup3\n      mstore\n        /* \"#utility.yul\":16005:16007   */\n      0x28\n        /* \"#utility.yul\":15985:16003   */\n      swap1\n      dup3\n      add\n        /* \"#utility.yul\":15978:16008   */\n      mstore\n        /* \"#utility.yul\":16044:16078   */\n      0x455243313135353a204552433131353552656365697665722072656a65637465\n        /* \"#utility.yul\":16039:16041   */\n      0x40\n        /* \"#utility.yul\":16024:16042   */\n      dup3\n      add\n        /* \"#utility.yul\":16017:16079   */\n      mstore\n      shl(0xc0, 0x6420746f6b656e73)\n        /* \"#utility.yul\":16110:16112   */\n      0x60\n        /* \"#utility.yul\":16095:16113   */\n      dup3\n      add\n        /* \"#utility.yul\":16088:16126   */\n      mstore\n        /* \"#utility.yul\":16158:16161   */\n      0x80\n        /* \"#utility.yul\":16143:16162   */\n      add\n      swap1\n        /* \"#utility.yul\":15764:16168   */\n      jump\t// out\n        /* \"#utility.yul\":16173:16734   */\n    tag_268:\n      sub(shl(0xa0, 0x01), 0x01)\n        /* \"#utility.yul\":16470:16485   */\n      dup7\n      dup2\n      and\n        /* \"#utility.yul\":16452:16486   */\n      dup3\n      mstore\n        /* \"#utility.yul\":16522:16537   */\n      dup6\n      and\n        /* \"#utility.yul\":16517:16519   */\n      0x20\n        /* \"#utility.yul\":16502:16520   */\n      dup3\n      add\n        /* \"#utility.yul\":16495:16538   */\n      mstore\n        /* \"#utility.yul\":16569:16571   */\n      0x40\n        /* \"#utility.yul\":16554:16572   */\n      dup2\n      add\n        /* \"#utility.yul\":16547:16581   */\n      dup5\n      swap1\n      mstore\n        /* \"#utility.yul\":16612:16614   */\n      0x60\n        /* \"#utility.yul\":16597:16615   */\n      dup2\n      add\n        /* \"#utility.yul\":16590:16624   */\n      dup4\n      swap1\n      mstore\n        /* \"#utility.yul\":16432:16435   */\n      0xa0\n        /* \"#utility.yul\":16655:16658   */\n      0x80\n        /* \"#utility.yul\":16640:16659   */\n      dup3\n      add\n        /* \"#utility.yul\":16633:16665   */\n      dup2\n      swap1\n      mstore\n        /* \"#utility.yul\":16395:16399   */\n      0x00\n      swap1\n        /* \"#utility.yul\":16682:16728   */\n      tag_422\n      swap1\n        /* \"#utility.yul\":16708:16727   */\n      dup4\n      add\n        /* \"#utility.yul\":16700:16706   */\n      dup5\n        /* \"#utility.yul\":16682:16728   */\n      tag_287\n      jump\t// in\n    tag_422:\n        /* \"#utility.yul\":16674:16728   */\n      swap8\n        /* \"#utility.yul\":16173:16734   */\n      swap7\n      pop\n      pop\n      pop\n      pop\n      pop\n      pop\n      pop\n      jump\t// out\n\n    auxdata: 0xa2646970667358221220afc5592bb1df1d6194d0b4daae68a83d4e8dda9e5d55a38dfb5433d85c0cadc164736f6c634300080e0033\n}\n",
				"bytecode": {
					"linkReferences": {},
					"object": "60c06040526008608081905267537761705a65726f60c01b60a09081526200002b9160049190620000a1565b506040805180820190915260038082526229abad60e91b60209092019182526200005891600591620000a1565b503480156200006657600080fd5b50604080516020810190915260008152620000818162000088565b5062000183565b80516200009d906002906020840190620000a1565b5050565b828054620000af9062000147565b90600052602060002090601f016020900481019282620000d357600085556200011e565b82601f10620000ee57805160ff19168380011785556200011e565b828001600101855582156200011e579182015b828111156200011e57825182559160200191906001019062000101565b506200012c92915062000130565b5090565b5b808211156200012c576000815560010162000131565b600181811c908216806200015c57607f821691505b6020821081036200017d57634e487b7160e01b600052602260045260246000fd5b50919050565b61169e80620001936000396000f3fe608060405234801561001057600080fd5b50600436106100ce5760003560e01c80634e1273f41161008c578063a22cb46511610066578063a22cb465146101aa578063bd85b039146101bd578063e985e9c5146101dd578063f242432a1461021957600080fd5b80634e1273f4146101605780634f558e791461018057806395d89b41146101a257600080fd5b8062fdd58e146100d357806301ffc9a7146100f957806306fdde031461011c5780630e89341c146101315780632eb2c2d614610144578063313ce56714610159575b600080fd5b6100e66100e1366004610ea3565b61022c565b6040519081526020015b60405180910390f35b61010c610107366004610ee6565b6102c3565b60405190151581526020016100f0565b610124610315565b6040516100f09190610f57565b61012461013f366004610f6a565b6103a7565b6101576101523660046110cf565b61043b565b005b60126100e6565b61017361016e366004611179565b6104d2565b6040516100f0919061127f565b61010c61018e366004610f6a565b600090815260036020526040902054151590565b6101246105fc565b6101576101b8366004611292565b61060b565b6100e66101cb366004610f6a565b60009081526003602052604090205490565b61010c6101eb3660046112ce565b6001600160a01b03918216600090815260016020908152604080832093909416825291909152205460ff1690565b610157610227366004611301565b61061a565b60006001600160a01b03831661029d5760405162461bcd60e51b815260206004820152602b60248201527f455243313135353a2062616c616e636520717565727920666f7220746865207a60448201526a65726f206164647265737360a81b60648201526084015b60405180910390fd5b506000908152602081815260408083206001600160a01b03949094168352929052205490565b60006001600160e01b03198216636cdb3d1360e11b14806102f457506001600160e01b031982166303a24d0760e21b145b8061030f57506301ffc9a760e01b6001600160e01b03198316145b92915050565b60606004805461032490611366565b80601f016020809104026020016040519081016040528092919081815260200182805461035090611366565b801561039d5780601f106103725761010080835404028352916020019161039d565b820191906000526020600020905b81548152906001019060200180831161038057829003601f168201915b5050505050905090565b6060600280546103b690611366565b80601f01602080910402602001604051908101604052809291908181526020018280546103e290611366565b801561042f5780601f106104045761010080835404028352916020019161042f565b820191906000526020600020905b81548152906001019060200180831161041257829003601f168201915b50505050509050919050565b6001600160a01b038516331480610457575061045785336101eb565b6104be5760405162461bcd60e51b815260206004820152603260248201527f455243313135353a207472616e736665722063616c6c6572206973206e6f74206044820152711bdddb995c881b9bdc88185c1c1c9bdd995960721b6064820152608401610294565b6104cb85858585856106a1565b5050505050565b606081518351146105375760405162461bcd60e51b815260206004820152602960248201527f455243313135353a206163636f756e747320616e6420696473206c656e677468604482015268040dad2e6dac2e8c6d60bb1b6064820152608401610294565b6000835167ffffffffffffffff81111561055357610553610f83565b60405190808252806020026020018201604052801561057c578160200160208202803683370190505b50905060005b84518110156105f4576105c78582815181106105a0576105a06113a0565b60200260200101518583815181106105ba576105ba6113a0565b602002602001015161022c565b8282815181106105d9576105d96113a0565b60209081029190910101526105ed816113cc565b9050610582565b509392505050565b60606005805461032490611366565b61061633838361088c565b5050565b6001600160a01b038516331480610636575061063685336101eb565b6106945760405162461bcd60e51b815260206004820152602960248201527f455243313135353a2063616c6c6572206973206e6f74206f776e6572206e6f7260448201526808185c1c1c9bdd995960ba1b6064820152608401610294565b6104cb858585858561096c565b81518351146107035760405162461bcd60e51b815260206004820152602860248201527f455243313135353a2069647320616e6420616d6f756e7473206c656e677468206044820152670dad2e6dac2e8c6d60c31b6064820152608401610294565b6001600160a01b0384166107295760405162461bcd60e51b8152600401610294906113e5565b33610738818787878787610aa4565b60005b845181101561081e576000858281518110610758576107586113a0565b602002602001015190506000858381518110610776576107766113a0565b602090810291909101810151600084815280835260408082206001600160a01b038e1683529093529190912054909150818110156107c65760405162461bcd60e51b81526004016102949061142a565b6000838152602081815260408083206001600160a01b038e8116855292528083208585039055908b16825281208054849290610803908490611474565b9250508190555050505080610817906113cc565b905061073b565b50846001600160a01b0316866001600160a01b0316826001600160a01b03167f4a39dc06d4c0dbc64b70af90fd698a233a518aa5d07e595d983b8c0526c8f7fb878760405161086e92919061148c565b60405180910390a4610884818787878787610c26565b505050505050565b816001600160a01b0316836001600160a01b0316036108ff5760405162461bcd60e51b815260206004820152602960248201527f455243313135353a2073657474696e6720617070726f76616c20737461747573604482015268103337b91039b2b63360b91b6064820152608401610294565b6001600160a01b03838116600081815260016020908152604080832094871680845294825291829020805460ff191686151590811790915591519182527f17307eab39ab6107e8899845ad3d59bd9653f200f220920489ca2b5937696c31910160405180910390a3505050565b6001600160a01b0384166109925760405162461bcd60e51b8152600401610294906113e5565b33600061099e85610d81565b905060006109ab85610d81565b90506109bb838989858589610aa4565b6000868152602081815260408083206001600160a01b038c168452909152902054858110156109fc5760405162461bcd60e51b81526004016102949061142a565b6000878152602081815260408083206001600160a01b038d8116855292528083208985039055908a16825281208054889290610a39908490611474565b909155505060408051888152602081018890526001600160a01b03808b16928c821692918816917fc3d58168c5ae7397731d063d5bbf3d657854427343f4c083240f7aacaa2d0f62910160405180910390a4610a99848a8a8a8a8a610dcc565b505050505050505050565b6001600160a01b038516610b2b5760005b8351811015610b2957828181518110610ad057610ad06113a0565b602002602001015160036000868481518110610aee57610aee6113a0565b602002602001015181526020019081526020016000206000828254610b139190611474565b90915550610b229050816113cc565b9050610ab5565b505b6001600160a01b0384166108845760005b8351811015610c1d576000848281518110610b5957610b596113a0565b602002602001015190506000848381518110610b7757610b776113a0565b6020026020010151905060006003600084815260200190815260200160002054905081811015610bfa5760405162461bcd60e51b815260206004820152602860248201527f455243313135353a206275726e20616d6f756e74206578636565647320746f74604482015267616c537570706c7960c01b6064820152608401610294565b60009283526003602052604090922091039055610c16816113cc565b9050610b3c565b50505050505050565b6001600160a01b0384163b156108845760405163bc197c8160e01b81526001600160a01b0385169063bc197c8190610c6a90899089908890889088906004016114ba565b6020604051808303816000875af1925050508015610ca5575060408051601f3d908101601f19168201909252610ca291810190611518565b60015b610d5157610cb1611535565b806308c379a003610cea5750610cc5611551565b80610cd05750610cec565b8060405162461bcd60e51b81526004016102949190610f57565b505b60405162461bcd60e51b815260206004820152603460248201527f455243313135353a207472616e7366657220746f206e6f6e20455243313135356044820152732932b1b2b4bb32b91034b6b83632b6b2b73a32b960611b6064820152608401610294565b6001600160e01b0319811663bc197c8160e01b14610c1d5760405162461bcd60e51b8152600401610294906115db565b60408051600180825281830190925260609160009190602080830190803683370190505090508281600081518110610dbb57610dbb6113a0565b602090810291909101015292915050565b6001600160a01b0384163b156108845760405163f23a6e6160e01b81526001600160a01b0385169063f23a6e6190610e109089908990889088908890600401611623565b6020604051808303816000875af1925050508015610e4b575060408051601f3d908101601f19168201909252610e4891810190611518565b60015b610e5757610cb1611535565b6001600160e01b0319811663f23a6e6160e01b14610c1d5760405162461bcd60e51b8152600401610294906115db565b80356001600160a01b0381168114610e9e57600080fd5b919050565b60008060408385031215610eb657600080fd5b610ebf83610e87565b946020939093013593505050565b6001600160e01b031981168114610ee357600080fd5b50565b600060208284031215610ef857600080fd5b8135610f0381610ecd565b9392505050565b6000815180845260005b81811015610f3057602081850181015186830182015201610f14565b81811115610f42576000602083870101525b50601f01601f19169290920160200192915050565b602081526000610f036020830184610f0a565b600060208284031215610f7c57600080fd5b5035919050565b634e487b7160e01b600052604160045260246000fd5b601f8201601f1916810167ffffffffffffffff81118282101715610fbf57610fbf610f83565b6040525050565b600067ffffffffffffffff821115610fe057610fe0610f83565b5060051b60200190565b600082601f830112610ffb57600080fd5b8135602061100882610fc6565b6040516110158282610f99565b83815260059390931b850182019282810191508684111561103557600080fd5b8286015b848110156110505780358352918301918301611039565b509695505050505050565b600082601f83011261106c57600080fd5b813567ffffffffffffffff81111561108657611086610f83565b60405161109d601f8301601f191660200182610f99565b8181528460208386010111156110b257600080fd5b816020850160208301376000918101602001919091529392505050565b600080600080600060a086880312156110e757600080fd5b6110f086610e87565b94506110fe60208701610e87565b9350604086013567ffffffffffffffff8082111561111b57600080fd5b61112789838a01610fea565b9450606088013591508082111561113d57600080fd5b61114989838a01610fea565b9350608088013591508082111561115f57600080fd5b5061116c8882890161105b565b9150509295509295909350565b6000806040838503121561118c57600080fd5b823567ffffffffffffffff808211156111a457600080fd5b818501915085601f8301126111b857600080fd5b813560206111c582610fc6565b6040516111d28282610f99565b83815260059390931b85018201928281019150898411156111f257600080fd5b948201945b838610156112175761120886610e87565b825294820194908201906111f7565b9650508601359250508082111561122d57600080fd5b5061123a85828601610fea565b9150509250929050565b600081518084526020808501945080840160005b8381101561127457815187529582019590820190600101611258565b509495945050505050565b602081526000610f036020830184611244565b600080604083850312156112a557600080fd5b6112ae83610e87565b9150602083013580151581146112c357600080fd5b809150509250929050565b600080604083850312156112e157600080fd5b6112ea83610e87565b91506112f860208401610e87565b90509250929050565b600080600080600060a0868803121561131957600080fd5b61132286610e87565b945061133060208701610e87565b93506040860135925060608601359150608086013567ffffffffffffffff81111561135a57600080fd5b61116c8882890161105b565b600181811c9082168061137a57607f821691505b60208210810361139a57634e487b7160e01b600052602260045260246000fd5b50919050565b634e487b7160e01b600052603260045260246000fd5b634e487b7160e01b600052601160045260246000fd5b6000600182016113de576113de6113b6565b5060010190565b60208082526025908201527f455243313135353a207472616e7366657220746f20746865207a65726f206164604082015264647265737360d81b606082015260800190565b6020808252602a908201527f455243313135353a20696e73756666696369656e742062616c616e636520666f60408201526939103a3930b739b332b960b11b606082015260800190565b60008219821115611487576114876113b6565b500190565b60408152600061149f6040830185611244565b82810360208401526114b18185611244565b95945050505050565b6001600160a01b0386811682528516602082015260a0604082018190526000906114e690830186611244565b82810360608401526114f88186611244565b9050828103608084015261150c8185610f0a565b98975050505050505050565b60006020828403121561152a57600080fd5b8151610f0381610ecd565b600060033d111561154e5760046000803e5060005160e01c5b90565b600060443d101561155f5790565b6040516003193d81016004833e81513d67ffffffffffffffff816024840111818411171561158f57505050505090565b82850191508151818111156115a75750505050505090565b843d87010160208285010111156115c15750505050505090565b6115d060208286010187610f99565b509095945050505050565b60208082526028908201527f455243313135353a204552433131353552656365697665722072656a656374656040820152676420746f6b656e7360c01b606082015260800190565b6001600160a01b03868116825285166020820152604081018490526060810183905260a06080820181905260009061165d90830184610f0a565b97965050505050505056fea2646970667358221220afc5592bb1df1d6194d0b4daae68a83d4e8dda9e5d55a38dfb5433d85c0cadc164736f6c634300080e0033",
					"opcodes": "PUSH1 0xC0 PUSH1 0x40 MSTORE PUSH1 0x8 PUSH1 0x80 DUP2 SWAP1 MSTORE PUSH8 0x537761705A65726F PUSH1 0xC0 SHL PUSH1 0xA0 SWAP1 DUP2 MSTORE PUSH3 0x2B SWAP2 PUSH1 0x4 SWAP2 SWAP1 PUSH3 0xA1 JUMP JUMPDEST POP PUSH1 0x40 DUP1 MLOAD DUP1 DUP3 ADD SWAP1 SWAP2 MSTORE PUSH1 0x3 DUP1 DUP3 MSTORE PUSH3 0x29ABAD PUSH1 0xE9 SHL PUSH1 0x20 SWAP1 SWAP3 ADD SWAP2 DUP3 MSTORE PUSH3 0x58 SWAP2 PUSH1 0x5 SWAP2 PUSH3 0xA1 JUMP JUMPDEST POP CALLVALUE DUP1 ISZERO PUSH3 0x66 JUMPI PUSH1 0x0 DUP1 REVERT JUMPDEST POP PUSH1 0x40 DUP1 MLOAD PUSH1 0x20 DUP2 ADD SWAP1 SWAP2 MSTORE PUSH1 0x0 DUP2 MSTORE PUSH3 0x81 DUP2 PUSH3 0x88 JUMP JUMPDEST POP PUSH3 0x183 JUMP JUMPDEST DUP1 MLOAD PUSH3 0x9D SWAP1 PUSH1 0x2 SWAP1 PUSH1 0x20 DUP5 ADD SWAP1 PUSH3 0xA1 JUMP JUMPDEST POP POP JUMP JUMPDEST DUP3 DUP1 SLOAD PUSH3 0xAF SWAP1 PUSH3 0x147 JUMP JUMPDEST SWAP1 PUSH1 0x0 MSTORE PUSH1 0x20 PUSH1 0x0 KECCAK256 SWAP1 PUSH1 0x1F ADD PUSH1 0x20 SWAP1 DIV DUP2 ADD SWAP3 DUP3 PUSH3 0xD3 JUMPI PUSH1 0x0 DUP6 SSTORE PUSH3 0x11E JUMP JUMPDEST DUP3 PUSH1 0x1F LT PUSH3 0xEE JUMPI DUP1 MLOAD PUSH1 0xFF NOT AND DUP4 DUP1 ADD OR DUP6 SSTORE PUSH3 0x11E JUMP JUMPDEST DUP3 DUP1 ADD PUSH1 0x1 ADD DUP6 SSTORE DUP3 ISZERO PUSH3 0x11E JUMPI SWAP2 DUP3 ADD JUMPDEST DUP3 DUP2 GT ISZERO PUSH3 0x11E JUMPI DUP3 MLOAD DUP3 SSTORE SWAP2 PUSH1 0x20 ADD SWAP2 SWAP1 PUSH1 0x1 ADD SWAP1 PUSH3 0x101 JUMP JUMPDEST POP PUSH3 0x12C SWAP3 SWAP2 POP PUSH3 0x130 JUMP JUMPDEST POP SWAP1 JUMP JUMPDEST JUMPDEST DUP1 DUP3 GT ISZERO PUSH3 0x12C JUMPI PUSH1 0x0 DUP2 SSTORE PUSH1 0x1 ADD PUSH3 0x131 JUMP JUMPDEST PUSH1 0x1 DUP2 DUP2 SHR SWAP1 DUP3 AND DUP1 PUSH3 0x15C JUMPI PUSH1 0x7F DUP3 AND SWAP2 POP JUMPDEST PUSH1 0x20 DUP3 LT DUP2 SUB PUSH3 0x17D JUMPI PUSH4 0x4E487B71 PUSH1 0xE0 SHL PUSH1 0x0 MSTORE PUSH1 0x22 PUSH1 0x4 MSTORE PUSH1 0x24 PUSH1 0x0 REVERT JUMPDEST POP SWAP2 SWAP1 POP JUMP JUMPDEST PUSH2 0x169E DUP1 PUSH3 0x193 PUSH1 0x0 CODECOPY PUSH1 0x0 RETURN INVALID PUSH1 0x80 PUSH1 0x40 MSTORE CALLVALUE DUP1 ISZERO PUSH2 0x10 JUMPI PUSH1 0x0 DUP1 REVERT JUMPDEST POP PUSH1 0x4 CALLDATASIZE LT PUSH2 0xCE JUMPI PUSH1 0x0 CALLDATALOAD PUSH1 0xE0 SHR DUP1 PUSH4 0x4E1273F4 GT PUSH2 0x8C JUMPI DUP1 PUSH4 0xA22CB465 GT PUSH2 0x66 JUMPI DUP1 PUSH4 0xA22CB465 EQ PUSH2 0x1AA JUMPI DUP1 PUSH4 0xBD85B039 EQ PUSH2 0x1BD JUMPI DUP1 PUSH4 0xE985E9C5 EQ PUSH2 0x1DD JUMPI DUP1 PUSH4 0xF242432A EQ PUSH2 0x219 JUMPI PUSH1 0x0 DUP1 REVERT JUMPDEST DUP1 PUSH4 0x4E1273F4 EQ PUSH2 0x160 JUMPI DUP1 PUSH4 0x4F558E79 EQ PUSH2 0x180 JUMPI DUP1 PUSH4 0x95D89B41 EQ PUSH2 0x1A2 JUMPI PUSH1 0x0 DUP1 REVERT JUMPDEST DUP1 PUSH3 0xFDD58E EQ PUSH2 0xD3 JUMPI DUP1 PUSH4 0x1FFC9A7 EQ PUSH2 0xF9 JUMPI DUP1 PUSH4 0x6FDDE03 EQ PUSH2 0x11C JUMPI DUP1 PUSH4 0xE89341C EQ PUSH2 0x131 JUMPI DUP1 PUSH4 0x2EB2C2D6 EQ PUSH2 0x144 JUMPI DUP1 PUSH4 0x313CE567 EQ PUSH2 0x159 JUMPI JUMPDEST PUSH1 0x0 DUP1 REVERT JUMPDEST PUSH2 0xE6 PUSH2 0xE1 CALLDATASIZE PUSH1 0x4 PUSH2 0xEA3 JUMP JUMPDEST PUSH2 0x22C JUMP JUMPDEST PUSH1 0x40 MLOAD SWAP1 DUP2 MSTORE PUSH1 0x20 ADD JUMPDEST PUSH1 0x40 MLOAD DUP1 SWAP2 SUB SWAP1 RETURN JUMPDEST PUSH2 0x10C PUSH2 0x107 CALLDATASIZE PUSH1 0x4 PUSH2 0xEE6 JUMP JUMPDEST PUSH2 0x2C3 JUMP JUMPDEST PUSH1 0x40 MLOAD SWAP1 ISZERO ISZERO DUP2 MSTORE PUSH1 0x20 ADD PUSH2 0xF0 JUMP JUMPDEST PUSH2 0x124 PUSH2 0x315 JUMP JUMPDEST PUSH1 0x40 MLOAD PUSH2 0xF0 SWAP2 SWAP1 PUSH2 0xF57 JUMP JUMPDEST PUSH2 0x124 PUSH2 0x13F CALLDATASIZE PUSH1 0x4 PUSH2 0xF6A JUMP JUMPDEST PUSH2 0x3A7 JUMP JUMPDEST PUSH2 0x157 PUSH2 0x152 CALLDATASIZE PUSH1 0x4 PUSH2 0x10CF JUMP JUMPDEST PUSH2 0x43B JUMP JUMPDEST STOP JUMPDEST PUSH1 0x12 PUSH2 0xE6 JUMP JUMPDEST PUSH2 0x173 PUSH2 0x16E CALLDATASIZE PUSH1 0x4 PUSH2 0x1179 JUMP JUMPDEST PUSH2 0x4D2 JUMP JUMPDEST PUSH1 0x40 MLOAD PUSH2 0xF0 SWAP2 SWAP1 PUSH2 0x127F JUMP JUMPDEST PUSH2 0x10C PUSH2 0x18E CALLDATASIZE PUSH1 0x4 PUSH2 0xF6A JUMP JUMPDEST PUSH1 0x0 SWAP1 DUP2 MSTORE PUSH1 0x3 PUSH1 0x20 MSTORE PUSH1 0x40 SWAP1 KECCAK256 SLOAD ISZERO ISZERO SWAP1 JUMP JUMPDEST PUSH2 0x124 PUSH2 0x5FC JUMP JUMPDEST PUSH2 0x157 PUSH2 0x1B8 CALLDATASIZE PUSH1 0x4 PUSH2 0x1292 JUMP JUMPDEST PUSH2 0x60B JUMP JUMPDEST PUSH2 0xE6 PUSH2 0x1CB CALLDATASIZE PUSH1 0x4 PUSH2 0xF6A JUMP JUMPDEST PUSH1 0x0 SWAP1 DUP2 MSTORE PUSH1 0x3 PUSH1 0x20 MSTORE PUSH1 0x40 SWAP1 KECCAK256 SLOAD SWAP1 JUMP JUMPDEST PUSH2 0x10C PUSH2 0x1EB CALLDATASIZE PUSH1 0x4 PUSH2 0x12CE JUMP JUMPDEST PUSH1 0x1 PUSH1 0x1 PUSH1 0xA0 SHL SUB SWAP2 DUP3 AND PUSH1 0x0 SWAP1 DUP2 MSTORE PUSH1 0x1 PUSH1 0x20 SWAP1 DUP2 MSTORE PUSH1 0x40 DUP1 DUP4 KECCAK256 SWAP4 SWAP1 SWAP5 AND DUP3 MSTORE SWAP2 SWAP1 SWAP2 MSTORE KECCAK256 SLOAD PUSH1 0xFF AND SWAP1 JUMP JUMPDEST PUSH2 0x157 PUSH2 0x227 CALLDATASIZE PUSH1 0x4 PUSH2 0x1301 JUMP JUMPDEST PUSH2 0x61A JUMP JUMPDEST PUSH1 0x0 PUSH1 0x1 PUSH1 0x1 PUSH1 0xA0 SHL SUB DUP4 AND PUSH2 0x29D JUMPI PUSH1 0x40 MLOAD PUSH3 0x461BCD PUSH1 0xE5 SHL DUP2 MSTORE PUSH1 0x20 PUSH1 0x4 DUP3 ADD MSTORE PUSH1 0x2B PUSH1 0x24 DUP3 ADD MSTORE PUSH32 0x455243313135353A2062616C616E636520717565727920666F7220746865207A PUSH1 0x44 DUP3 ADD MSTORE PUSH11 0x65726F2061646472657373 PUSH1 0xA8 SHL PUSH1 0x64 DUP3 ADD MSTORE PUSH1 0x84 ADD JUMPDEST PUSH1 0x40 MLOAD DUP1 SWAP2 SUB SWAP1 REVERT JUMPDEST POP PUSH1 0x0 SWAP1 DUP2 MSTORE PUSH1 0x20 DUP2 DUP2 MSTORE PUSH1 0x40 DUP1 DUP4 KECCAK256 PUSH1 0x1 PUSH1 0x1 PUSH1 0xA0 SHL SUB SWAP5 SWAP1 SWAP5 AND DUP4 MSTORE SWAP3 SWAP1 MSTORE KECCAK256 SLOAD SWAP1 JUMP JUMPDEST PUSH1 0x0 PUSH1 0x1 PUSH1 0x1 PUSH1 0xE0 SHL SUB NOT DUP3 AND PUSH4 0x6CDB3D13 PUSH1 0xE1 SHL EQ DUP1 PUSH2 0x2F4 JUMPI POP PUSH1 0x1 PUSH1 0x1 PUSH1 0xE0 SHL SUB NOT DUP3 AND PUSH4 0x3A24D07 PUSH1 0xE2 SHL EQ JUMPDEST DUP1 PUSH2 0x30F JUMPI POP PUSH4 0x1FFC9A7 PUSH1 0xE0 SHL PUSH1 0x1 PUSH1 0x1 PUSH1 0xE0 SHL SUB NOT DUP4 AND EQ JUMPDEST SWAP3 SWAP2 POP POP JUMP JUMPDEST PUSH1 0x60 PUSH1 0x4 DUP1 SLOAD PUSH2 0x324 SWAP1 PUSH2 0x1366 JUMP JUMPDEST DUP1 PUSH1 0x1F ADD PUSH1 0x20 DUP1 SWAP2 DIV MUL PUSH1 0x20 ADD PUSH1 0x40 MLOAD SWAP1 DUP2 ADD PUSH1 0x40 MSTORE DUP1 SWAP3 SWAP2 SWAP1 DUP2 DUP2 MSTORE PUSH1 0x20 ADD DUP3 DUP1 SLOAD PUSH2 0x350 SWAP1 PUSH2 0x1366 JUMP JUMPDEST DUP1 ISZERO PUSH2 0x39D JUMPI DUP1 PUSH1 0x1F LT PUSH2 0x372 JUMPI PUSH2 0x100 DUP1 DUP4 SLOAD DIV MUL DUP4 MSTORE SWAP2 PUSH1 0x20 ADD SWAP2 PUSH2 0x39D JUMP JUMPDEST DUP3 ADD SWAP2 SWAP1 PUSH1 0x0 MSTORE PUSH1 0x20 PUSH1 0x0 KECCAK256 SWAP1 JUMPDEST DUP2 SLOAD DUP2 MSTORE SWAP1 PUSH1 0x1 ADD SWAP1 PUSH1 0x20 ADD DUP1 DUP4 GT PUSH2 0x380 JUMPI DUP3 SWAP1 SUB PUSH1 0x1F AND DUP3 ADD SWAP2 JUMPDEST POP POP POP POP POP SWAP1 POP SWAP1 JUMP JUMPDEST PUSH1 0x60 PUSH1 0x2 DUP1 SLOAD PUSH2 0x3B6 SWAP1 PUSH2 0x1366 JUMP JUMPDEST DUP1 PUSH1 0x1F ADD PUSH1 0x20 DUP1 SWAP2 DIV MUL PUSH1 0x20 ADD PUSH1 0x40 MLOAD SWAP1 DUP2 ADD PUSH1 0x40 MSTORE DUP1 SWAP3 SWAP2 SWAP1 DUP2 DUP2 MSTORE PUSH1 0x20 ADD DUP3 DUP1 SLOAD PUSH2 0x3E2 SWAP1 PUSH2 0x1366 JUMP JUMPDEST DUP1 ISZERO PUSH2 0x42F JUMPI DUP1 PUSH1 0x1F LT PUSH2 0x404 JUMPI PUSH2 0x100 DUP1 DUP4 SLOAD DIV MUL DUP4 MSTORE SWAP2 PUSH1 0x20 ADD SWAP2 PUSH2 0x42F JUMP JUMPDEST DUP3 ADD SWAP2 SWAP1 PUSH1 0x0 MSTORE PUSH1 0x20 PUSH1 0x0 KECCAK256 SWAP1 JUMPDEST DUP2 SLOAD DUP2 MSTORE SWAP1 PUSH1 0x1 ADD SWAP1 PUSH1 0x20 ADD DUP1 DUP4 GT PUSH2 0x412 JUMPI DUP3 SWAP1 SUB PUSH1 0x1F AND DUP3 ADD SWAP2 JUMPDEST POP POP POP POP POP SWAP1 POP SWAP2 SWAP1 POP JUMP JUMPDEST PUSH1 0x1 PUSH1 0x1 PUSH1 0xA0 SHL SUB DUP6 AND CALLER EQ DUP1 PUSH2 0x457 JUMPI POP PUSH2 0x457 DUP6 CALLER PUSH2 0x1EB JUMP JUMPDEST PUSH2 0x4BE JUMPI PUSH1 0x40 MLOAD PUSH3 0x461BCD PUSH1 0xE5 SHL DUP2 MSTORE PUSH1 0x20 PUSH1 0x4 DUP3 ADD MSTORE PUSH1 0x32 PUSH1 0x24 DUP3 ADD MSTORE PUSH32 0x455243313135353A207472616E736665722063616C6C6572206973206E6F7420 PUSH1 0x44 DUP3 ADD MSTORE PUSH18 0x1BDDDB995C881B9BDC88185C1C1C9BDD9959 PUSH1 0x72 SHL PUSH1 0x64 DUP3 ADD MSTORE PUSH1 0x84 ADD PUSH2 0x294 JUMP JUMPDEST PUSH2 0x4CB DUP6 DUP6 DUP6 DUP6 DUP6 PUSH2 0x6A1 JUMP JUMPDEST POP POP POP POP POP JUMP JUMPDEST PUSH1 0x60 DUP2 MLOAD DUP4 MLOAD EQ PUSH2 0x537 JUMPI PUSH1 0x40 MLOAD PUSH3 0x461BCD PUSH1 0xE5 SHL DUP2 MSTORE PUSH1 0x20 PUSH1 0x4 DUP3 ADD MSTORE PUSH1 0x29 PUSH1 0x24 DUP3 ADD MSTORE PUSH32 0x455243313135353A206163636F756E747320616E6420696473206C656E677468 PUSH1 0x44 DUP3 ADD MSTORE PUSH9 0x40DAD2E6DAC2E8C6D PUSH1 0xBB SHL PUSH1 0x64 DUP3 ADD MSTORE PUSH1 0x84 ADD PUSH2 0x294 JUMP JUMPDEST PUSH1 0x0 DUP4 MLOAD PUSH8 0xFFFFFFFFFFFFFFFF DUP2 GT ISZERO PUSH2 0x553 JUMPI PUSH2 0x553 PUSH2 0xF83 JUMP JUMPDEST PUSH1 0x40 MLOAD SWAP1 DUP1 DUP3 MSTORE DUP1 PUSH1 0x20 MUL PUSH1 0x20 ADD DUP3 ADD PUSH1 0x40 MSTORE DUP1 ISZERO PUSH2 0x57C JUMPI DUP2 PUSH1 0x20 ADD PUSH1 0x20 DUP3 MUL DUP1 CALLDATASIZE DUP4 CALLDATACOPY ADD SWAP1 POP JUMPDEST POP SWAP1 POP PUSH1 0x0 JUMPDEST DUP5 MLOAD DUP2 LT ISZERO PUSH2 0x5F4 JUMPI PUSH2 0x5C7 DUP6 DUP3 DUP2 MLOAD DUP2 LT PUSH2 0x5A0 JUMPI PUSH2 0x5A0 PUSH2 0x13A0 JUMP JUMPDEST PUSH1 0x20 MUL PUSH1 0x20 ADD ADD MLOAD DUP6 DUP4 DUP2 MLOAD DUP2 LT PUSH2 0x5BA JUMPI PUSH2 0x5BA PUSH2 0x13A0 JUMP JUMPDEST PUSH1 0x20 MUL PUSH1 0x20 ADD ADD MLOAD PUSH2 0x22C JUMP JUMPDEST DUP3 DUP3 DUP2 MLOAD DUP2 LT PUSH2 0x5D9 JUMPI PUSH2 0x5D9 PUSH2 0x13A0 JUMP JUMPDEST PUSH1 0x20 SWAP1 DUP2 MUL SWAP2 SWAP1 SWAP2 ADD ADD MSTORE PUSH2 0x5ED DUP2 PUSH2 0x13CC JUMP JUMPDEST SWAP1 POP PUSH2 0x582 JUMP JUMPDEST POP SWAP4 SWAP3 POP POP POP JUMP JUMPDEST PUSH1 0x60 PUSH1 0x5 DUP1 SLOAD PUSH2 0x324 SWAP1 PUSH2 0x1366 JUMP JUMPDEST PUSH2 0x616 CALLER DUP4 DUP4 PUSH2 0x88C JUMP JUMPDEST POP POP JUMP JUMPDEST PUSH1 0x1 PUSH1 0x1 PUSH1 0xA0 SHL SUB DUP6 AND CALLER EQ DUP1 PUSH2 0x636 JUMPI POP PUSH2 0x636 DUP6 CALLER PUSH2 0x1EB JUMP JUMPDEST PUSH2 0x694 JUMPI PUSH1 0x40 MLOAD PUSH3 0x461BCD PUSH1 0xE5 SHL DUP2 MSTORE PUSH1 0x20 PUSH1 0x4 DUP3 ADD MSTORE PUSH1 0x29 PUSH1 0x24 DUP3 ADD MSTORE PUSH32 0x455243313135353A2063616C6C6572206973206E6F74206F776E6572206E6F72 PUSH1 0x44 DUP3 ADD MSTORE PUSH9 0x8185C1C1C9BDD9959 PUSH1 0xBA SHL PUSH1 0x64 DUP3 ADD MSTORE PUSH1 0x84 ADD PUSH2 0x294 JUMP JUMPDEST PUSH2 0x4CB DUP6 DUP6 DUP6 DUP6 DUP6 PUSH2 0x96C JUMP JUMPDEST DUP2 MLOAD DUP4 MLOAD EQ PUSH2 0x703 JUMPI PUSH1 0x40 MLOAD PUSH3 0x461BCD PUSH1 0xE5 SHL DUP2 MSTORE PUSH1 0x20 PUSH1 0x4 DUP3 ADD MSTORE PUSH1 0x28 PUSH1 0x24 DUP3 ADD MSTORE PUSH32 0x455243313135353A2069647320616E6420616D6F756E7473206C656E67746820 PUSH1 0x44 DUP3 ADD MSTORE PUSH8 0xDAD2E6DAC2E8C6D PUSH1 0xC3 SHL PUSH1 0x64 DUP3 ADD MSTORE PUSH1 0x84 ADD PUSH2 0x294 JUMP JUMPDEST PUSH1 0x1 PUSH1 0x1 PUSH1 0xA0 SHL SUB DUP5 AND PUSH2 0x729 JUMPI PUSH1 0x40 MLOAD PUSH3 0x461BCD PUSH1 0xE5 SHL DUP2 MSTORE PUSH1 0x4 ADD PUSH2 0x294 SWAP1 PUSH2 0x13E5 JUMP JUMPDEST CALLER PUSH2 0x738 DUP2 DUP8 DUP8 DUP8 DUP8 DUP8 PUSH2 0xAA4 JUMP JUMPDEST PUSH1 0x0 JUMPDEST DUP5 MLOAD DUP2 LT ISZERO PUSH2 0x81E JUMPI PUSH1 0x0 DUP6 DUP3 DUP2 MLOAD DUP2 LT PUSH2 0x758 JUMPI PUSH2 0x758 PUSH2 0x13A0 JUMP JUMPDEST PUSH1 0x20 MUL PUSH1 0x20 ADD ADD MLOAD SWAP1 POP PUSH1 0x0 DUP6 DUP4 DUP2 MLOAD DUP2 LT PUSH2 0x776 JUMPI PUSH2 0x776 PUSH2 0x13A0 JUMP JUMPDEST PUSH1 0x20 SWAP1 DUP2 MUL SWAP2 SWAP1 SWAP2 ADD DUP2 ADD MLOAD PUSH1 0x0 DUP5 DUP2 MSTORE DUP1 DUP4 MSTORE PUSH1 0x40 DUP1 DUP3 KECCAK256 PUSH1 0x1 PUSH1 0x1 PUSH1 0xA0 SHL SUB DUP15 AND DUP4 MSTORE SWAP1 SWAP4 MSTORE SWAP2 SWAP1 SWAP2 KECCAK256 SLOAD SWAP1 SWAP2 POP DUP2 DUP2 LT ISZERO PUSH2 0x7C6 JUMPI PUSH1 0x40 MLOAD PUSH3 0x461BCD PUSH1 0xE5 SHL DUP2 MSTORE PUSH1 0x4 ADD PUSH2 0x294 SWAP1 PUSH2 0x142A JUMP JUMPDEST PUSH1 0x0 DUP4 DUP2 MSTORE PUSH1 0x20 DUP2 DUP2 MSTORE PUSH1 0x40 DUP1 DUP4 KECCAK256 PUSH1 0x1 PUSH1 0x1 PUSH1 0xA0 SHL SUB DUP15 DUP2 AND DUP6 MSTORE SWAP3 MSTORE DUP1 DUP4 KECCAK256 DUP6 DUP6 SUB SWAP1 SSTORE SWAP1 DUP12 AND DUP3 MSTORE DUP2 KECCAK256 DUP1 SLOAD DUP5 SWAP3 SWAP1 PUSH2 0x803 SWAP1 DUP5 SWAP1 PUSH2 0x1474 JUMP JUMPDEST SWAP3 POP POP DUP2 SWAP1 SSTORE POP POP POP POP DUP1 PUSH2 0x817 SWAP1 PUSH2 0x13CC JUMP JUMPDEST SWAP1 POP PUSH2 0x73B JUMP JUMPDEST POP DUP5 PUSH1 0x1 PUSH1 0x1 PUSH1 0xA0 SHL SUB AND DUP7 PUSH1 0x1 PUSH1 0x1 PUSH1 0xA0 SHL SUB AND DUP3 PUSH1 0x1 PUSH1 0x1 PUSH1 0xA0 SHL SUB AND PUSH32 0x4A39DC06D4C0DBC64B70AF90FD698A233A518AA5D07E595D983B8C0526C8F7FB DUP8 DUP8 PUSH1 0x40 MLOAD PUSH2 0x86E SWAP3 SWAP2 SWAP1 PUSH2 0x148C JUMP JUMPDEST PUSH1 0x40 MLOAD DUP1 SWAP2 SUB SWAP1 LOG4 PUSH2 0x884 DUP2 DUP8 DUP8 DUP8 DUP8 DUP8 PUSH2 0xC26 JUMP JUMPDEST POP POP POP POP POP POP JUMP JUMPDEST DUP2 PUSH1 0x1 PUSH1 0x1 PUSH1 0xA0 SHL SUB AND DUP4 PUSH1 0x1 PUSH1 0x1 PUSH1 0xA0 SHL SUB AND SUB PUSH2 0x8FF JUMPI PUSH1 0x40 MLOAD PUSH3 0x461BCD PUSH1 0xE5 SHL DUP2 MSTORE PUSH1 0x20 PUSH1 0x4 DUP3 ADD MSTORE PUSH1 0x29 PUSH1 0x24 DUP3 ADD MSTORE PUSH32 0x455243313135353A2073657474696E6720617070726F76616C20737461747573 PUSH1 0x44 DUP3 ADD MSTORE PUSH9 0x103337B91039B2B633 PUSH1 0xB9 SHL PUSH1 0x64 DUP3 ADD MSTORE PUSH1 0x84 ADD PUSH2 0x294 JUMP JUMPDEST PUSH1 0x1 PUSH1 0x1 PUSH1 0xA0 SHL SUB DUP4 DUP2 AND PUSH1 0x0 DUP2 DUP2 MSTORE PUSH1 0x1 PUSH1 0x20 SWAP1 DUP2 MSTORE PUSH1 0x40 DUP1 DUP4 KECCAK256 SWAP5 DUP8 AND DUP1 DUP5 MSTORE SWAP5 DUP3 MSTORE SWAP2 DUP3 SWAP1 KECCAK256 DUP1 SLOAD PUSH1 0xFF NOT AND DUP7 ISZERO ISZERO SWAP1 DUP2 OR SWAP1 SWAP2 SSTORE SWAP2 MLOAD SWAP2 DUP3 MSTORE PUSH32 0x17307EAB39AB6107E8899845AD3D59BD9653F200F220920489CA2B5937696C31 SWAP2 ADD PUSH1 0x40 MLOAD DUP1 SWAP2 SUB SWAP1 LOG3 POP POP POP JUMP JUMPDEST PUSH1 0x1 PUSH1 0x1 PUSH1 0xA0 SHL SUB DUP5 AND PUSH2 0x992 JUMPI PUSH1 0x40 MLOAD PUSH3 0x461BCD PUSH1 0xE5 SHL DUP2 MSTORE PUSH1 0x4 ADD PUSH2 0x294 SWAP1 PUSH2 0x13E5 JUMP JUMPDEST CALLER PUSH1 0x0 PUSH2 0x99E DUP6 PUSH2 0xD81 JUMP JUMPDEST SWAP1 POP PUSH1 0x0 PUSH2 0x9AB DUP6 PUSH2 0xD81 JUMP JUMPDEST SWAP1 POP PUSH2 0x9BB DUP4 DUP10 DUP10 DUP6 DUP6 DUP10 PUSH2 0xAA4 JUMP JUMPDEST PUSH1 0x0 DUP7 DUP2 MSTORE PUSH1 0x20 DUP2 DUP2 MSTORE PUSH1 0x40 DUP1 DUP4 KECCAK256 PUSH1 0x1 PUSH1 0x1 PUSH1 0xA0 SHL SUB DUP13 AND DUP5 MSTORE SWAP1 SWAP2 MSTORE SWAP1 KECCAK256 SLOAD DUP6 DUP2 LT ISZERO PUSH2 0x9FC JUMPI PUSH1 0x40 MLOAD PUSH3 0x461BCD PUSH1 0xE5 SHL DUP2 MSTORE PUSH1 0x4 ADD PUSH2 0x294 SWAP1 PUSH2 0x142A JUMP JUMPDEST PUSH1 0x0 DUP8 DUP2 MSTORE PUSH1 0x20 DUP2 DUP2 MSTORE PUSH1 0x40 DUP1 DUP4 KECCAK256 PUSH1 0x1 PUSH1 0x1 PUSH1 0xA0 SHL SUB DUP14 DUP2 AND DUP6 MSTORE SWAP3 MSTORE DUP1 DUP4 KECCAK256 DUP10 DUP6 SUB SWAP1 SSTORE SWAP1 DUP11 AND DUP3 MSTORE DUP2 KECCAK256 DUP1 SLOAD DUP9 SWAP3 SWAP1 PUSH2 0xA39 SWAP1 DUP5 SWAP1 PUSH2 0x1474 JUMP JUMPDEST SWAP1 SWAP2 SSTORE POP POP PUSH1 0x40 DUP1 MLOAD DUP9 DUP2 MSTORE PUSH1 0x20 DUP2 ADD DUP9 SWAP1 MSTORE PUSH1 0x1 PUSH1 0x1 PUSH1 0xA0 SHL SUB DUP1 DUP12 AND SWAP3 DUP13 DUP3 AND SWAP3 SWAP2 DUP9 AND SWAP2 PUSH32 0xC3D58168C5AE7397731D063D5BBF3D657854427343F4C083240F7AACAA2D0F62 SWAP2 ADD PUSH1 0x40 MLOAD DUP1 SWAP2 SUB SWAP1 LOG4 PUSH2 0xA99 DUP5 DUP11 DUP11 DUP11 DUP11 DUP11 PUSH2 0xDCC JUMP JUMPDEST POP POP POP POP POP POP POP POP POP JUMP JUMPDEST PUSH1 0x1 PUSH1 0x1 PUSH1 0xA0 SHL SUB DUP6 AND PUSH2 0xB2B JUMPI PUSH1 0x0 JUMPDEST DUP4 MLOAD DUP2 LT ISZERO PUSH2 0xB29 JUMPI DUP3 DUP2 DUP2 MLOAD DUP2 LT PUSH2 0xAD0 JUMPI PUSH2 0xAD0 PUSH2 0x13A0 JUMP JUMPDEST PUSH1 0x20 MUL PUSH1 0x20 ADD ADD MLOAD PUSH1 0x3 PUSH1 0x0 DUP7 DUP5 DUP2 MLOAD DUP2 LT PUSH2 0xAEE JUMPI PUSH2 0xAEE PUSH2 0x13A0 JUMP JUMPDEST PUSH1 0x20 MUL PUSH1 0x20 ADD ADD MLOAD DUP2 MSTORE PUSH1 0x20 ADD SWAP1 DUP2 MSTORE PUSH1 0x20 ADD PUSH1 0x0 KECCAK256 PUSH1 0x0 DUP3 DUP3 SLOAD PUSH2 0xB13 SWAP2 SWAP1 PUSH2 0x1474 JUMP JUMPDEST SWAP1 SWAP2 SSTORE POP PUSH2 0xB22 SWAP1 POP DUP2 PUSH2 0x13CC JUMP JUMPDEST SWAP1 POP PUSH2 0xAB5 JUMP JUMPDEST POP JUMPDEST PUSH1 0x1 PUSH1 0x1 PUSH1 0xA0 SHL SUB DUP5 AND PUSH2 0x884 JUMPI PUSH1 0x0 JUMPDEST DUP4 MLOAD DUP2 LT ISZERO PUSH2 0xC1D JUMPI PUSH1 0x0 DUP5 DUP3 DUP2 MLOAD DUP2 LT PUSH2 0xB59 JUMPI PUSH2 0xB59 PUSH2 0x13A0 JUMP JUMPDEST PUSH1 0x20 MUL PUSH1 0x20 ADD ADD MLOAD SWAP1 POP PUSH1 0x0 DUP5 DUP4 DUP2 MLOAD DUP2 LT PUSH2 0xB77 JUMPI PUSH2 0xB77 PUSH2 0x13A0 JUMP JUMPDEST PUSH1 0x20 MUL PUSH1 0x20 ADD ADD MLOAD SWAP1 POP PUSH1 0x0 PUSH1 0x3 PUSH1 0x0 DUP5 DUP2 MSTORE PUSH1 0x20 ADD SWAP1 DUP2 MSTORE PUSH1 0x20 ADD PUSH1 0x0 KECCAK256 SLOAD SWAP1 POP DUP2 DUP2 LT ISZERO PUSH2 0xBFA JUMPI PUSH1 0x40 MLOAD PUSH3 0x461BCD PUSH1 0xE5 SHL DUP2 MSTORE PUSH1 0x20 PUSH1 0x4 DUP3 ADD MSTORE PUSH1 0x28 PUSH1 0x24 DUP3 ADD MSTORE PUSH32 0x455243313135353A206275726E20616D6F756E74206578636565647320746F74 PUSH1 0x44 DUP3 ADD MSTORE PUSH8 0x616C537570706C79 PUSH1 0xC0 SHL PUSH1 0x64 DUP3 ADD MSTORE PUSH1 0x84 ADD PUSH2 0x294 JUMP JUMPDEST PUSH1 0x0 SWAP3 DUP4 MSTORE PUSH1 0x3 PUSH1 0x20 MSTORE PUSH1 0x40 SWAP1 SWAP3 KECCAK256 SWAP2 SUB SWAP1 SSTORE PUSH2 0xC16 DUP2 PUSH2 0x13CC JUMP JUMPDEST SWAP1 POP PUSH2 0xB3C JUMP JUMPDEST POP POP POP POP POP POP POP JUMP JUMPDEST PUSH1 0x1 PUSH1 0x1 PUSH1 0xA0 SHL SUB DUP5 AND EXTCODESIZE ISZERO PUSH2 0x884 JUMPI PUSH1 0x40 MLOAD PUSH4 0xBC197C81 PUSH1 0xE0 SHL DUP2 MSTORE PUSH1 0x1 PUSH1 0x1 PUSH1 0xA0 SHL SUB DUP6 AND SWAP1 PUSH4 0xBC197C81 SWAP1 PUSH2 0xC6A SWAP1 DUP10 SWAP1 DUP10 SWAP1 DUP9 SWAP1 DUP9 SWAP1 DUP9 SWAP1 PUSH1 0x4 ADD PUSH2 0x14BA JUMP JUMPDEST PUSH1 0x20 PUSH1 0x40 MLOAD DUP1 DUP4 SUB DUP2 PUSH1 0x0 DUP8 GAS CALL SWAP3 POP POP POP DUP1 ISZERO PUSH2 0xCA5 JUMPI POP PUSH1 0x40 DUP1 MLOAD PUSH1 0x1F RETURNDATASIZE SWAP1 DUP2 ADD PUSH1 0x1F NOT AND DUP3 ADD SWAP1 SWAP3 MSTORE PUSH2 0xCA2 SWAP2 DUP2 ADD SWAP1 PUSH2 0x1518 JUMP JUMPDEST PUSH1 0x1 JUMPDEST PUSH2 0xD51 JUMPI PUSH2 0xCB1 PUSH2 0x1535 JUMP JUMPDEST DUP1 PUSH4 0x8C379A0 SUB PUSH2 0xCEA JUMPI POP PUSH2 0xCC5 PUSH2 0x1551 JUMP JUMPDEST DUP1 PUSH2 0xCD0 JUMPI POP PUSH2 0xCEC JUMP JUMPDEST DUP1 PUSH1 0x40 MLOAD PUSH3 0x461BCD PUSH1 0xE5 SHL DUP2 MSTORE PUSH1 0x4 ADD PUSH2 0x294 SWAP2 SWAP1 PUSH2 0xF57 JUMP JUMPDEST POP JUMPDEST PUSH1 0x40 MLOAD PUSH3 0x461BCD PUSH1 0xE5 SHL DUP2 MSTORE PUSH1 0x20 PUSH1 0x4 DUP3 ADD MSTORE PUSH1 0x34 PUSH1 0x24 DUP3 ADD MSTORE PUSH32 0x455243313135353A207472616E7366657220746F206E6F6E2045524331313535 PUSH1 0x44 DUP3 ADD MSTORE PUSH20 0x2932B1B2B4BB32B91034B6B83632B6B2B73A32B9 PUSH1 0x61 SHL PUSH1 0x64 DUP3 ADD MSTORE PUSH1 0x84 ADD PUSH2 0x294 JUMP JUMPDEST PUSH1 0x1 PUSH1 0x1 PUSH1 0xE0 SHL SUB NOT DUP2 AND PUSH4 0xBC197C81 PUSH1 0xE0 SHL EQ PUSH2 0xC1D JUMPI PUSH1 0x40 MLOAD PUSH3 0x461BCD PUSH1 0xE5 SHL DUP2 MSTORE PUSH1 0x4 ADD PUSH2 0x294 SWAP1 PUSH2 0x15DB JUMP JUMPDEST PUSH1 0x40 DUP1 MLOAD PUSH1 0x1 DUP1 DUP3 MSTORE DUP2 DUP4 ADD SWAP1 SWAP3 MSTORE PUSH1 0x60 SWAP2 PUSH1 0x0 SWAP2 SWAP1 PUSH1 0x20 DUP1 DUP4 ADD SWAP1 DUP1 CALLDATASIZE DUP4 CALLDATACOPY ADD SWAP1 POP POP SWAP1 POP DUP3 DUP2 PUSH1 0x0 DUP2 MLOAD DUP2 LT PUSH2 0xDBB JUMPI PUSH2 0xDBB PUSH2 0x13A0 JUMP JUMPDEST PUSH1 0x20 SWAP1 DUP2 MUL SWAP2 SWAP1 SWAP2 ADD ADD MSTORE SWAP3 SWAP2 POP POP JUMP JUMPDEST PUSH1 0x1 PUSH1 0x1 PUSH1 0xA0 SHL SUB DUP5 AND EXTCODESIZE ISZERO PUSH2 0x884 JUMPI PUSH1 0x40 MLOAD PUSH4 0xF23A6E61 PUSH1 0xE0 SHL DUP2 MSTORE PUSH1 0x1 PUSH1 0x1 PUSH1 0xA0 SHL SUB DUP6 AND SWAP1 PUSH4 0xF23A6E61 SWAP1 PUSH2 0xE10 SWAP1 DUP10 SWAP1 DUP10 SWAP1 DUP9 SWAP1 DUP9 SWAP1 DUP9 SWAP1 PUSH1 0x4 ADD PUSH2 0x1623 JUMP JUMPDEST PUSH1 0x20 PUSH1 0x40 MLOAD DUP1 DUP4 SUB DUP2 PUSH1 0x0 DUP8 GAS CALL SWAP3 POP POP POP DUP1 ISZERO PUSH2 0xE4B JUMPI POP PUSH1 0x40 DUP1 MLOAD PUSH1 0x1F RETURNDATASIZE SWAP1 DUP2 ADD PUSH1 0x1F NOT AND DUP3 ADD SWAP1 SWAP3 MSTORE PUSH2 0xE48 SWAP2 DUP2 ADD SWAP1 PUSH2 0x1518 JUMP JUMPDEST PUSH1 0x1 JUMPDEST PUSH2 0xE57 JUMPI PUSH2 0xCB1 PUSH2 0x1535 JUMP JUMPDEST PUSH1 0x1 PUSH1 0x1 PUSH1 0xE0 SHL SUB NOT DUP2 AND PUSH4 0xF23A6E61 PUSH1 0xE0 SHL EQ PUSH2 0xC1D JUMPI PUSH1 0x40 MLOAD PUSH3 0x461BCD PUSH1 0xE5 SHL DUP2 MSTORE PUSH1 0x4 ADD PUSH2 0x294 SWAP1 PUSH2 0x15DB JUMP JUMPDEST DUP1 CALLDATALOAD PUSH1 0x1 PUSH1 0x1 PUSH1 0xA0 SHL SUB DUP2 AND DUP2 EQ PUSH2 0xE9E JUMPI PUSH1 0x0 DUP1 REVERT JUMPDEST SWAP2 SWAP1 POP JUMP JUMPDEST PUSH1 0x0 DUP1 PUSH1 0x40 DUP4 DUP6 SUB SLT ISZERO PUSH2 0xEB6 JUMPI PUSH1 0x0 DUP1 REVERT JUMPDEST PUSH2 0xEBF DUP4 PUSH2 0xE87 JUMP JUMPDEST SWAP5 PUSH1 0x20 SWAP4 SWAP1 SWAP4 ADD CALLDATALOAD SWAP4 POP POP POP JUMP JUMPDEST PUSH1 0x1 PUSH1 0x1 PUSH1 0xE0 SHL SUB NOT DUP2 AND DUP2 EQ PUSH2 0xEE3 JUMPI PUSH1 0x0 DUP1 REVERT JUMPDEST POP JUMP JUMPDEST PUSH1 0x0 PUSH1 0x20 DUP3 DUP5 SUB SLT ISZERO PUSH2 0xEF8 JUMPI PUSH1 0x0 DUP1 REVERT JUMPDEST DUP2 CALLDATALOAD PUSH2 0xF03 DUP2 PUSH2 0xECD JUMP JUMPDEST SWAP4 SWAP3 POP POP POP JUMP JUMPDEST PUSH1 0x0 DUP2 MLOAD DUP1 DUP5 MSTORE PUSH1 0x0 JUMPDEST DUP2 DUP2 LT ISZERO PUSH2 0xF30 JUMPI PUSH1 0x20 DUP2 DUP6 ADD DUP2 ADD MLOAD DUP7 DUP4 ADD DUP3 ADD MSTORE ADD PUSH2 0xF14 JUMP JUMPDEST DUP2 DUP2 GT ISZERO PUSH2 0xF42 JUMPI PUSH1 0x0 PUSH1 0x20 DUP4 DUP8 ADD ADD MSTORE JUMPDEST POP PUSH1 0x1F ADD PUSH1 0x1F NOT AND SWAP3 SWAP1 SWAP3 ADD PUSH1 0x20 ADD SWAP3 SWAP2 POP POP JUMP JUMPDEST PUSH1 0x20 DUP2 MSTORE PUSH1 0x0 PUSH2 0xF03 PUSH1 0x20 DUP4 ADD DUP5 PUSH2 0xF0A JUMP JUMPDEST PUSH1 0x0 PUSH1 0x20 DUP3 DUP5 SUB SLT ISZERO PUSH2 0xF7C JUMPI PUSH1 0x0 DUP1 REVERT JUMPDEST POP CALLDATALOAD SWAP2 SWAP1 POP JUMP JUMPDEST PUSH4 0x4E487B71 PUSH1 0xE0 SHL PUSH1 0x0 MSTORE PUSH1 0x41 PUSH1 0x4 MSTORE PUSH1 0x24 PUSH1 0x0 REVERT JUMPDEST PUSH1 0x1F DUP3 ADD PUSH1 0x1F NOT AND DUP2 ADD PUSH8 0xFFFFFFFFFFFFFFFF DUP2 GT DUP3 DUP3 LT OR ISZERO PUSH2 0xFBF JUMPI PUSH2 0xFBF PUSH2 0xF83 JUMP JUMPDEST PUSH1 0x40 MSTORE POP POP JUMP JUMPDEST PUSH1 0x0 PUSH8 0xFFFFFFFFFFFFFFFF DUP3 GT ISZERO PUSH2 0xFE0 JUMPI PUSH2 0xFE0 PUSH2 0xF83 JUMP JUMPDEST POP PUSH1 0x5 SHL PUSH1 0x20 ADD SWAP1 JUMP JUMPDEST PUSH1 0x0 DUP3 PUSH1 0x1F DUP4 ADD SLT PUSH2 0xFFB JUMPI PUSH1 0x0 DUP1 REVERT JUMPDEST DUP2 CALLDATALOAD PUSH1 0x20 PUSH2 0x1008 DUP3 PUSH2 0xFC6 JUMP JUMPDEST PUSH1 0x40 MLOAD PUSH2 0x1015 DUP3 DUP3 PUSH2 0xF99 JUMP JUMPDEST DUP4 DUP2 MSTORE PUSH1 0x5 SWAP4 SWAP1 SWAP4 SHL DUP6 ADD DUP3 ADD SWAP3 DUP3 DUP2 ADD SWAP2 POP DUP7 DUP5 GT ISZERO PUSH2 0x1035 JUMPI PUSH1 0x0 DUP1 REVERT JUMPDEST DUP3 DUP7 ADD JUMPDEST DUP5 DUP2 LT ISZERO PUSH2 0x1050 JUMPI DUP1 CALLDATALOAD DUP4 MSTORE SWAP2 DUP4 ADD SWAP2 DUP4 ADD PUSH2 0x1039 JUMP JUMPDEST POP SWAP7 SWAP6 POP POP POP POP POP POP JUMP JUMPDEST PUSH1 0x0 DUP3 PUSH1 0x1F DUP4 ADD SLT PUSH2 0x106C JUMPI PUSH1 0x0 DUP1 REVERT JUMPDEST DUP2 CALLDATALOAD PUSH8 0xFFFFFFFFFFFFFFFF DUP2 GT ISZERO PUSH2 0x1086 JUMPI PUSH2 0x1086 PUSH2 0xF83 JUMP JUMPDEST PUSH1 0x40 MLOAD PUSH2 0x109D PUSH1 0x1F DUP4 ADD PUSH1 0x1F NOT AND PUSH1 0x20 ADD DUP3 PUSH2 0xF99 JUMP JUMPDEST DUP2 DUP2 MSTORE DUP5 PUSH1 0x20 DUP4 DUP7 ADD ADD GT ISZERO PUSH2 0x10B2 JUMPI PUSH1 0x0 DUP1 REVERT JUMPDEST DUP2 PUSH1 0x20 DUP6 ADD PUSH1 0x20 DUP4 ADD CALLDATACOPY PUSH1 0x0 SWAP2 DUP2 ADD PUSH1 0x20 ADD SWAP2 SWAP1 SWAP2 MSTORE SWAP4 SWAP3 POP POP POP JUMP JUMPDEST PUSH1 0x0 DUP1 PUSH1 0x0 DUP1 PUSH1 0x0 PUSH1 0xA0 DUP7 DUP9 SUB SLT ISZERO PUSH2 0x10E7 JUMPI PUSH1 0x0 DUP1 REVERT JUMPDEST PUSH2 0x10F0 DUP7 PUSH2 0xE87 JUMP JUMPDEST SWAP5 POP PUSH2 0x10FE PUSH1 0x20 DUP8 ADD PUSH2 0xE87 JUMP JUMPDEST SWAP4 POP PUSH1 0x40 DUP7 ADD CALLDATALOAD PUSH8 0xFFFFFFFFFFFFFFFF DUP1 DUP3 GT ISZERO PUSH2 0x111B JUMPI PUSH1 0x0 DUP1 REVERT JUMPDEST PUSH2 0x1127 DUP10 DUP4 DUP11 ADD PUSH2 0xFEA JUMP JUMPDEST SWAP5 POP PUSH1 0x60 DUP9 ADD CALLDATALOAD SWAP2 POP DUP1 DUP3 GT ISZERO PUSH2 0x113D JUMPI PUSH1 0x0 DUP1 REVERT JUMPDEST PUSH2 0x1149 DUP10 DUP4 DUP11 ADD PUSH2 0xFEA JUMP JUMPDEST SWAP4 POP PUSH1 0x80 DUP9 ADD CALLDATALOAD SWAP2 POP DUP1 DUP3 GT ISZERO PUSH2 0x115F JUMPI PUSH1 0x0 DUP1 REVERT JUMPDEST POP PUSH2 0x116C DUP9 DUP3 DUP10 ADD PUSH2 0x105B JUMP JUMPDEST SWAP2 POP POP SWAP3 SWAP6 POP SWAP3 SWAP6 SWAP1 SWAP4 POP JUMP JUMPDEST PUSH1 0x0 DUP1 PUSH1 0x40 DUP4 DUP6 SUB SLT ISZERO PUSH2 0x118C JUMPI PUSH1 0x0 DUP1 REVERT JUMPDEST DUP3 CALLDATALOAD PUSH8 0xFFFFFFFFFFFFFFFF DUP1 DUP3 GT ISZERO PUSH2 0x11A4 JUMPI PUSH1 0x0 DUP1 REVERT JUMPDEST DUP2 DUP6 ADD SWAP2 POP DUP6 PUSH1 0x1F DUP4 ADD SLT PUSH2 0x11B8 JUMPI PUSH1 0x0 DUP1 REVERT JUMPDEST DUP2 CALLDATALOAD PUSH1 0x20 PUSH2 0x11C5 DUP3 PUSH2 0xFC6 JUMP JUMPDEST PUSH1 0x40 MLOAD PUSH2 0x11D2 DUP3 DUP3 PUSH2 0xF99 JUMP JUMPDEST DUP4 DUP2 MSTORE PUSH1 0x5 SWAP4 SWAP1 SWAP4 SHL DUP6 ADD DUP3 ADD SWAP3 DUP3 DUP2 ADD SWAP2 POP DUP10 DUP5 GT ISZERO PUSH2 0x11F2 JUMPI PUSH1 0x0 DUP1 REVERT JUMPDEST SWAP5 DUP3 ADD SWAP5 JUMPDEST DUP4 DUP7 LT ISZERO PUSH2 0x1217 JUMPI PUSH2 0x1208 DUP7 PUSH2 0xE87 JUMP JUMPDEST DUP3 MSTORE SWAP5 DUP3 ADD SWAP5 SWAP1 DUP3 ADD SWAP1 PUSH2 0x11F7 JUMP JUMPDEST SWAP7 POP POP DUP7 ADD CALLDATALOAD SWAP3 POP POP DUP1 DUP3 GT ISZERO PUSH2 0x122D JUMPI PUSH1 0x0 DUP1 REVERT JUMPDEST POP PUSH2 0x123A DUP6 DUP3 DUP7 ADD PUSH2 0xFEA JUMP JUMPDEST SWAP2 POP POP SWAP3 POP SWAP3 SWAP1 POP JUMP JUMPDEST PUSH1 0x0 DUP2 MLOAD DUP1 DUP5 MSTORE PUSH1 0x20 DUP1 DUP6 ADD SWAP5 POP DUP1 DUP5 ADD PUSH1 0x0 JUMPDEST DUP4 DUP2 LT ISZERO PUSH2 0x1274 JUMPI DUP2 MLOAD DUP8 MSTORE SWAP6 DUP3 ADD SWAP6 SWAP1 DUP3 ADD SWAP1 PUSH1 0x1 ADD PUSH2 0x1258 JUMP JUMPDEST POP SWAP5 SWAP6 SWAP5 POP POP POP POP POP JUMP JUMPDEST PUSH1 0x20 DUP2 MSTORE PUSH1 0x0 PUSH2 0xF03 PUSH1 0x20 DUP4 ADD DUP5 PUSH2 0x1244 JUMP JUMPDEST PUSH1 0x0 DUP1 PUSH1 0x40 DUP4 DUP6 SUB SLT ISZERO PUSH2 0x12A5 JUMPI PUSH1 0x0 DUP1 REVERT JUMPDEST PUSH2 0x12AE DUP4 PUSH2 0xE87 JUMP JUMPDEST SWAP2 POP PUSH1 0x20 DUP4 ADD CALLDATALOAD DUP1 ISZERO ISZERO DUP2 EQ PUSH2 0x12C3 JUMPI PUSH1 0x0 DUP1 REVERT JUMPDEST DUP1 SWAP2 POP POP SWAP3 POP SWAP3 SWAP1 POP JUMP JUMPDEST PUSH1 0x0 DUP1 PUSH1 0x40 DUP4 DUP6 SUB SLT ISZERO PUSH2 0x12E1 JUMPI PUSH1 0x0 DUP1 REVERT JUMPDEST PUSH2 0x12EA DUP4 PUSH2 0xE87 JUMP JUMPDEST SWAP2 POP PUSH2 0x12F8 PUSH1 0x20 DUP5 ADD PUSH2 0xE87 JUMP JUMPDEST SWAP1 POP SWAP3 POP SWAP3 SWAP1 POP JUMP JUMPDEST PUSH1 0x0 DUP1 PUSH1 0x0 DUP1 PUSH1 0x0 PUSH1 0xA0 DUP7 DUP9 SUB SLT ISZERO PUSH2 0x1319 JUMPI PUSH1 0x0 DUP1 REVERT JUMPDEST PUSH2 0x1322 DUP7 PUSH2 0xE87 JUMP JUMPDEST SWAP5 POP PUSH2 0x1330 PUSH1 0x20 DUP8 ADD PUSH2 0xE87 JUMP JUMPDEST SWAP4 POP PUSH1 0x40 DUP7 ADD CALLDATALOAD SWAP3 POP PUSH1 0x60 DUP7 ADD CALLDATALOAD SWAP2 POP PUSH1 0x80 DUP7 ADD CALLDATALOAD PUSH8 0xFFFFFFFFFFFFFFFF DUP2 GT ISZERO PUSH2 0x135A JUMPI PUSH1 0x0 DUP1 REVERT JUMPDEST PUSH2 0x116C DUP9 DUP3 DUP10 ADD PUSH2 0x105B JUMP JUMPDEST PUSH1 0x1 DUP2 DUP2 SHR SWAP1 DUP3 AND DUP1 PUSH2 0x137A JUMPI PUSH1 0x7F DUP3 AND SWAP2 POP JUMPDEST PUSH1 0x20 DUP3 LT DUP2 SUB PUSH2 0x139A JUMPI PUSH4 0x4E487B71 PUSH1 0xE0 SHL PUSH1 0x0 MSTORE PUSH1 0x22 PUSH1 0x4 MSTORE PUSH1 0x24 PUSH1 0x0 REVERT JUMPDEST POP SWAP2 SWAP1 POP JUMP JUMPDEST PUSH4 0x4E487B71 PUSH1 0xE0 SHL PUSH1 0x0 MSTORE PUSH1 0x32 PUSH1 0x4 MSTORE PUSH1 0x24 PUSH1 0x0 REVERT JUMPDEST PUSH4 0x4E487B71 PUSH1 0xE0 SHL PUSH1 0x0 MSTORE PUSH1 0x11 PUSH1 0x4 MSTORE PUSH1 0x24 PUSH1 0x0 REVERT JUMPDEST PUSH1 0x0 PUSH1 0x1 DUP3 ADD PUSH2 0x13DE JUMPI PUSH2 0x13DE PUSH2 0x13B6 JUMP JUMPDEST POP PUSH1 0x1 ADD SWAP1 JUMP JUMPDEST PUSH1 0x20 DUP1 DUP3 MSTORE PUSH1 0x25 SWAP1 DUP3 ADD MSTORE PUSH32 0x455243313135353A207472616E7366657220746F20746865207A65726F206164 PUSH1 0x40 DUP3 ADD MSTORE PUSH5 0x6472657373 PUSH1 0xD8 SHL PUSH1 0x60 DUP3 ADD MSTORE PUSH1 0x80 ADD SWAP1 JUMP JUMPDEST PUSH1 0x20 DUP1 DUP3 MSTORE PUSH1 0x2A SWAP1 DUP3 ADD MSTORE PUSH32 0x455243313135353A20696E73756666696369656E742062616C616E636520666F PUSH1 0x40 DUP3 ADD MSTORE PUSH10 0x39103A3930B739B332B9 PUSH1 0xB1 SHL PUSH1 0x60 DUP3 ADD MSTORE PUSH1 0x80 ADD SWAP1 JUMP JUMPDEST PUSH1 0x0 DUP3 NOT DUP3 GT ISZERO PUSH2 0x1487 JUMPI PUSH2 0x1487 PUSH2 0x13B6 JUMP JUMPDEST POP ADD SWAP1 JUMP JUMPDEST PUSH1 0x40 DUP2 MSTORE PUSH1 0x0 PUSH2 0x149F PUSH1 0x40 DUP4 ADD DUP6 PUSH2 0x1244 JUMP JUMPDEST DUP3 DUP2 SUB PUSH1 0x20 DUP5 ADD MSTORE PUSH2 0x14B1 DUP2 DUP6 PUSH2 0x1244 JUMP JUMPDEST SWAP6 SWAP5 POP POP POP POP POP JUMP JUMPDEST PUSH1 0x1 PUSH1 0x1 PUSH1 0xA0 SHL SUB DUP7 DUP2 AND DUP3 MSTORE DUP6 AND PUSH1 0x20 DUP3 ADD MSTORE PUSH1 0xA0 PUSH1 0x40 DUP3 ADD DUP2 SWAP1 MSTORE PUSH1 0x0 SWAP1 PUSH2 0x14E6 SWAP1 DUP4 ADD DUP7 PUSH2 0x1244 JUMP JUMPDEST DUP3 DUP2 SUB PUSH1 0x60 DUP5 ADD MSTORE PUSH2 0x14F8 DUP2 DUP7 PUSH2 0x1244 JUMP JUMPDEST SWAP1 POP DUP3 DUP2 SUB PUSH1 0x80 DUP5 ADD MSTORE PUSH2 0x150C DUP2 DUP6 PUSH2 0xF0A JUMP JUMPDEST SWAP9 SWAP8 POP POP POP POP POP POP POP POP JUMP JUMPDEST PUSH1 0x0 PUSH1 0x20 DUP3 DUP5 SUB SLT ISZERO PUSH2 0x152A JUMPI PUSH1 0x0 DUP1 REVERT JUMPDEST DUP2 MLOAD PUSH2 0xF03 DUP2 PUSH2 0xECD JUMP JUMPDEST PUSH1 0x0 PUSH1 0x3 RETURNDATASIZE GT ISZERO PUSH2 0x154E JUMPI PUSH1 0x4 PUSH1 0x0 DUP1 RETURNDATACOPY POP PUSH1 0x0 MLOAD PUSH1 0xE0 SHR JUMPDEST SWAP1 JUMP JUMPDEST PUSH1 0x0 PUSH1 0x44 RETURNDATASIZE LT ISZERO PUSH2 0x155F JUMPI SWAP1 JUMP JUMPDEST PUSH1 0x40 MLOAD PUSH1 0x3 NOT RETURNDATASIZE DUP2 ADD PUSH1 0x4 DUP4 RETURNDATACOPY DUP2 MLOAD RETURNDATASIZE PUSH8 0xFFFFFFFFFFFFFFFF DUP2 PUSH1 0x24 DUP5 ADD GT DUP2 DUP5 GT OR ISZERO PUSH2 0x158F JUMPI POP POP POP POP POP SWAP1 JUMP JUMPDEST DUP3 DUP6 ADD SWAP2 POP DUP2 MLOAD DUP2 DUP2 GT ISZERO PUSH2 0x15A7 JUMPI POP POP POP POP POP POP SWAP1 JUMP JUMPDEST DUP5 RETURNDATASIZE DUP8 ADD ADD PUSH1 0x20 DUP3 DUP6 ADD ADD GT ISZERO PUSH2 0x15C1 JUMPI POP POP POP POP POP POP SWAP1 JUMP JUMPDEST PUSH2 0x15D0 PUSH1 0x20 DUP3 DUP7 ADD ADD DUP8 PUSH2 0xF99 JUMP JUMPDEST POP SWAP1 SWAP6 SWAP5 POP POP POP POP POP JUMP JUMPDEST PUSH1 0x20 DUP1 DUP3 MSTORE PUSH1 0x28 SWAP1 DUP3 ADD MSTORE PUSH32 0x455243313135353A204552433131353552656365697665722072656A65637465 PUSH1 0x40 DUP3 ADD MSTORE PUSH8 0x6420746F6B656E73 PUSH1 0xC0 SHL PUSH1 0x60 DUP3 ADD MSTORE PUSH1 0x80 ADD SWAP1 JUMP JUMPDEST PUSH1 0x1 PUSH1 0x1 PUSH1 0xA0 SHL SUB DUP7 DUP2 AND DUP3 MSTORE DUP6 AND PUSH1 0x20 DUP3 ADD MSTORE PUSH1 0x40 DUP2 ADD DUP5 SWAP1 MSTORE PUSH1 0x60 DUP2 ADD DUP4 SWAP1 MSTORE PUSH1 0xA0 PUSH1 0x80 DUP3 ADD DUP2 SWAP1 MSTORE PUSH1 0x0 SWAP1 PUSH2 0x165D SWAP1 DUP4 ADD DUP5 PUSH2 0xF0A JUMP JUMPDEST SWAP8 SWAP7 POP POP POP POP POP POP POP JUMP INVALID LOG2 PUSH5 0x6970667358 0x22 SLT KECCAK256 0xAF 0xC5 MSIZE 0x2B 0xB1 0xDF SAR PUSH2 0x94D0 0xB4 0xDA 0xAE PUSH9 0xA83D4E8DDA9E5D55A3 DUP14 0xFB SLOAD CALLER 0xD8 0x5C 0xC 0xAD 0xC1 PUSH5 0x736F6C6343 STOP ADDMOD 0xE STOP CALLER "
				},
				"gasEstimates": {
					"creation": {
						"codeDepositCost": "1158000",
						"executionCost": "infinite",
						"totalCost": "infinite"
					},
					"external": {
						"balanceOf(address,uint256)": "2672",
						"balanceOfBatch(address[],uint256[])": "infinite",
						"decimals()": "292",
						"exists(uint256)": "2495",
						"isApprovedForAll(address,address)": "infinite",
						"name()": "infinite",
						"safeBatchTransferFrom(address,address,uint256[],uint256[],bytes)": "infinite",
						"safeTransferFrom(address,address,uint256,uint256,bytes)": "infinite",
						"setApprovalForAll(address,bool)": "26705",
						"supportsInterface(bytes4)": "544",
						"symbol()": "infinite",
						"totalSupply(uint256)": "2471",
						"uri(uint256)": "infinite"
					}
				},
				"methodIdentifiers": {
					"balanceOf(address,uint256)": "00fdd58e",
					"balanceOfBatch(address[],uint256[])": "4e1273f4",
					"decimals()": "313ce567",
					"exists(uint256)": "4f558e79",
					"isApprovedForAll(address,address)": "e985e9c5",
					"name()": "06fdde03",
					"safeBatchTransferFrom(address,address,uint256[],uint256[],bytes)": "2eb2c2d6",
					"safeTransferFrom(address,address,uint256,uint256,bytes)": "f242432a",
					"setApprovalForAll(address,bool)": "a22cb465",
					"supportsInterface(bytes4)": "01ffc9a7",
					"symbol()": "95d89b41",
					"totalSupply(uint256)": "bd85b039",
					"uri(uint256)": "0e89341c"
				}
			},
			"storageLayout": {
				"storage": [
					{
						"astId": 25,
						"contract": "azero-swap-contracts/contracts/szERC1155.sol:szERC1155",
						"label": "_balances",
						"offset": 0,
						"slot": "0",
						"type": "t_mapping(t_uint256,t_mapping(t_address,t_uint256))"
					},
					{
						"astId": 31,
						"contract": "azero-swap-contracts/contracts/szERC1155.sol:szERC1155",
						"label": "_operatorApprovals",
						"offset": 0,
						"slot": "1",
						"type": "t_mapping(t_address,t_mapping(t_address,t_bool))"
					},
					{
						"astId": 33,
						"contract": "azero-swap-contracts/contracts/szERC1155.sol:szERC1155",
						"label": "_uri",
						"offset": 0,
						"slot": "2",
						"type": "t_string_storage"
					},
					{
						"astId": 1395,
						"contract": "azero-swap-contracts/contracts/szERC1155.sol:szERC1155",
						"label": "_totalSupply",
						"offset": 0,
						"slot": "3",
						"type": "t_mapping(t_uint256,t_uint256)"
					},
					{
						"astId": 1918,
						"contract": "azero-swap-contracts/contracts/szERC1155.sol:szERC1155",
						"label": "contractName",
						"offset": 0,
						"slot": "4",
						"type": "t_string_storage"
					},
					{
						"astId": 1921,
						"contract": "azero-swap-contracts/contracts/szERC1155.sol:szERC1155",
						"label": "contractSymbol",
						"offset": 0,
						"slot": "5",
						"type": "t_string_storage"
					},
					{
						"astId": 1923,
						"contract": "azero-swap-contracts/contracts/szERC1155.sol:szERC1155",
						"label": "urlPrefix",
						"offset": 0,
						"slot": "6",
						"type": "t_string_storage"
					}
				],
				"types": {
					"t_address": {
						"encoding": "inplace",
						"label": "address",
						"numberOfBytes": "20"
					},
					"t_bool": {
						"encoding": "inplace",
						"label": "bool",
						"numberOfBytes": "1"
					},
					"t_mapping(t_address,t_bool)": {
						"encoding": "mapping",
						"key": "t_address",
						"label": "mapping(address => bool)",
						"numberOfBytes": "32",
						"value": "t_bool"
					},
					"t_mapping(t_address,t_mapping(t_address,t_bool))": {
						"encoding": "mapping",
						"key": "t_address",
						"label": "mapping(address => mapping(address => bool))",
						"numberOfBytes": "32",
						"value": "t_mapping(t_address,t_bool)"
					},
					"t_mapping(t_address,t_uint256)": {
						"encoding": "mapping",
						"key": "t_address",
						"label": "mapping(address => uint256)",
						"numberOfBytes": "32",
						"value": "t_uint256"
					},
					"t_mapping(t_uint256,t_mapping(t_address,t_uint256))": {
						"encoding": "mapping",
						"key": "t_uint256",
						"label": "mapping(uint256 => mapping(address => uint256))",
						"numberOfBytes": "32",
						"value": "t_mapping(t_address,t_uint256)"
					},
					"t_mapping(t_uint256,t_uint256)": {
						"encoding": "mapping",
						"key": "t_uint256",
						"label": "mapping(uint256 => uint256)",
						"numberOfBytes": "32",
						"value": "t_uint256"
					},
					"t_string_storage": {
						"encoding": "bytes",
						"label": "string",
						"numberOfBytes": "32"
					},
					"t_uint256": {
						"encoding": "inplace",
						"label": "uint256",
						"numberOfBytes": "32"
					}
				}
			},
			"userdoc": {
				"kind": "user",
				"methods": {},
				"version": 1
			}
		}
	}
}